:020000040800F2
:10000000C81E002069020008131C0008E917000838
:10001000111C0008C304000899310008000000000A
:10002000000000000000000000000000552800084B
:10003000C504000800000000151C0008572800082F
:10004000830200088302000883020008830200087C
:10005000830200088302000883020008830200086C
:10006000830200088302000883020008830200085C
:10007000830200088302000883020008830200084C
:10008000830200088302000883020008830200083C
:10009000830200088302000883020008830200082C
:1000A0008302000801290008830200088302000877
:1000B000830200088302000883020008830200080C
:1000C00083020008830200088302000883020008FC
:1000D000830200081131000855310008830200082E
:1000E000830200088302000883020008B52C000880
:1000F00083020008830200088302000883020008CC
:1001000083020008830200088302000883020008BB
:1001100083020008C12F0008852C00089D2C0008D0
:10012000830200088302000883020008830200089B
:10013000830200088302000883020008830200088B
:10014000830200088302000883020008830200087B
:10015000830200088302000883020008830200086B
:10016000830200088302000883020008830200085B
:1001700083020008830200088302000800000000D8
:10018000830200088302000800F002F800F05CF827
:100190000AA090E8000C82448344AAF10107DA45E2
:1001A00001D100F051F8AFF2090EBAE80F0013F0D8
:1001B000010F18BFFB1A43F0010318473C5700001A
:1001C0005C5700000A444FF0000C10F8013B13F09C
:1001D000070408BF10F8014B1D1108BF10F8015BA0
:1001E000641E05D010F8016B641E01F8016BF9D193
:1001F00013F0080F1EBF10F8014BAD1C0C1B09D1EA
:100200006D1E58BF01F801CBFAD505E014F8016B5B
:1002100001F8016B6D1EF9D59142D6D370470000ED
:100220000023002400250026103A28BF78C1FBD8FF
:10023000520728BF30C148BF0B6070471FB504F09C
:10024000CEFC1FBD10B510BD00F001F91146FFF73F
:10025000F5FF02F0B3FF00F01FF903B4FFF7F2FF60
:1002600003BC00F027F9000009488047094800470F
:10027000FEE7FEE7FEE7FEE7FEE7FEE7FEE7FEE756
:10028000FEE7FEE704480549054A064B70470000B3
:10029000F128000889010008C8180020C81E0020A5
:1002A000C81A0020C81A002053EA020C00F0698026
:1002B0002DE9F04B4FF00006002B1FBFB3FA83F57A
:1002C00003FA05F424FA05F65E4012BF1643B2FAAB
:1002D00082F502FA05F4C5F120051EBF22FA05FCDD
:1002E00044EA0C04203556EA044C4FEA144418BF83
:1002F000641C4FF000084FF00009904271EB030CB2
:1003000039D3002919BFB1FA81F701FA07F6B0FA1B
:1003100080F700FA07F6C7F120071EBF20FA07FC96
:1003200046EA0C062037B6FBF4FCA7EB0507103FA6
:1003300007F01F0BCBF120060CFA0BFB2CFA06F68C
:1003400044BFB3460026202FA4BF5E464FF0000BEB
:100350005BEA060C08BF4FF0010B19EB0B09ABFB76
:10036000027C48EB0608C01B06FB02CC0BFB03CC4F
:1003700071EB0C01C1E70B46024641464846BDE819
:10038000F08B13B54FF000004FF00001AFF3008089
:10039000BDE81C40704710B5203AC0F00B80B1E8B2
:1003A0001850203AA0E81850B1E81850A0E81850AA
:1003B000BFF4F5AF5FEA027C24BFB1E81850A0E8B3
:1003C000185044BF18C918C0BDE810405FEA827CCD
:1003D00024BF51F8043B40F8043B08BF7047D207E4
:1003E00028BF31F8023B48BF11F8012B28BF20F885
:1003F000023B48BF00F8012B70474FF0000200B5E8
:10040000134694469646203922BFA0E80C50A0E837
:100410000C50B1F12001BFF4F7AF090728BFA0E8E5
:100420000C5048BF0CC05DF804EB890028BF40F8B1
:10043000042B08BF704748BF20F8022B11F0804FF3
:1004400018BF00F8012B704770477047704775461A
:1004500000F02CF8AE4605006946534620F0070030
:10046000854618B020B5FFF70DFFBDE820404FF0DE
:1004700000064FF000074FF000084FF0000B21F08E
:100480000701AC46ACE8C009ACE8C009ACE8C0095B
:10049000ACE8C0098D46704710B50446AFF3008044
:1004A0002046BDE81040FFF7D8BE00000048704766
:1004B0006418002001491820ABBEFEE726000200A8
:1004C0007047FEE7704772B6FEE700002DE9F84F6F
:1004D000DFF8BCA10022012503264FF00F090AF125
:1004E000040BAAF1040E00BF0B6805FA02F42340C6
:1004F000A34270D10F7907F00307012F01D0022F1B
:1005000016D187684FEA420806FA08FC27EA0C076A
:10051000D1F80CC00CFA08FC4CEA070CC0F808C073
:100520004768A7430C79C4F3001494403C434460EB
:100530000C79E443A4070AD0C4684FEA420C06FAD7
:100540000CF7BC438F6807FA0CF72743C7600C7998
:1005500004F00304022C12D1D40800EB840CDCF864
:1005600020405707FF0E09FA07F824EA0804D1F8DB
:10057000108008FA07F848EA0408CCF820800468DC
:100580004FEA420C06FA0CF7BC430F7907F0030759
:1005900007FA0CF7274307604C6814F4403F70D00B
:1005A0003C4C276847F480472760246822F0030703
:1005B00004F480440094384C07EB040CDCF8084841
:1005C00097074FEA177809FA08F7BC43334FB84248
:1005D00002D1002724E054E0314FB84201D1012775
:1005E0001EE0304FB84201D1022719E02E4FB84229
:1005F00001D1032714E02D4FB84201D104270FE0A9
:100600002B4FB84201D105270AE02A4FB84201D149
:10061000062705E0284FB84201D1072700E0082748
:1006200007FA08F72743CCF80878DAF8004057466D
:10063000D1F804C09C435FEACC2C00D51C433C603D
:10064000DBF800405F46D1F804C09C435FEA8C2C85
:1006500000D51C433C60DEF800407746D1F804C06A
:100660009C435FEA8C3C00D51C433C60084F083F2C
:100670003C68D1F804C09C435FEACC3C00D51C43E5
:100680003C60521C102AFFF42FAFBDE8F88F000029
:10069000083C014044380240003001400000024064
:1006A0000004024000080240000C0240001002401A
:1006B0000014024000180240001C0240006908407B
:1006C00000D0012070470AB1816170470904FBE73F
:1006D00001488068704700002001002002488168BE
:1006E0000278114481607047200100200B4810B54A
:1006F000016841F400710160016841F480610160AA
:10070000016841F480710160032000F07BF80F2044
:1007100000F006F800F024F8002010BD003C024074
:1007200070B50D4D04464FF47A712878B1FBF0F0A6
:100730000A490968B1FBF0F000F016FB48B9102C2B
:1007400007D200222146501E00F03CF800206C60C9
:1007500070BD012070BD0000200100202C01002090
:100760000A4808B5016841F480410160006800F45E
:10077000804000900548001F016841F080510160F1
:10078000006800F08050009008BD0000443802402E
:10079000002809DB00F01F02012191404009800080
:1007A00000F1E020C0F880127047002809DB00F05B
:1007B0001F02012191404009800000F1E020C0F8B3
:1007C00000117047F0B40E4B1B680C46C3F30223B4
:1007D000C3F10705042D00D90425191D072901D2ED
:1007E000002300E0DB1E012606FA05F1491E214028
:1007F00099409E40761E16403143F0BC02F0CDBCBD
:100800000CED00E0064900F0070208684FF6FF0310
:10081000184040EA0220034A104308607047000075
:100820000CED00E00000FA052DE9F0470E4605004A
:1008300065D0DFF81481D8F80000F7B200F00700A7
:10084000B04207D288F80070D8F8000000F0070026
:10085000B04254D128683D4C810712D5400703D5DA
:10086000206840F4E05020602878000703D5206815
:1008700040F4604020602068A96820F0F000084340
:1008800020602878C0072DD03049686808390128D1
:1008900012D0022813D0032811D009688907002933
:1008A0002DDA216821F0030101432160FFF710FFD9
:1008B000814641F2883A0EE009688903EFE709684A
:1008C0008901ECE7FFF704FFA0EB0901514502D9CC
:1008D0000320BDE8F0872068696800F00C00B0EBE9
:1008E000810FEFD1D8F80010404601F00701B14266
:1008F00007D90770006800F00700B04201D001205E
:10090000E7E72878400705D52068E96820F4E0503B
:10091000084320602878000706D52068296920F45C
:10092000604040EAC100206000F038F82168084AC1
:10093000C1F30311515CC8400649086006480068CD
:10094000FFF7EEFE0020C4E7003C024008380240FA
:10095000E05800082C01002024010020044805492B
:1009600000680968044AC1F38221515CC84070479D
:100970002C01002008380240F058000804480549BE
:1009800000680968044AC1F34231515CC8407047AD
:100990002C01002008380240F0580008154810B516
:1009A000006810F00C02144813D04110042A0FD034
:1009B000082A0ED10F4C241F2268236802F03F0240
:1009C0005B0207D52068C0F38810A0FB010106E098
:1009D000084610BD2168C1F38811A1FB0001002366
:1009E000FFF762FC2168C1F30141491C4900B0FBDB
:1009F000F1F010BD083802400024F4002DE9F84F52
:100A000004006ED02078DFF84C93C007A9F10405EC
:100A10004AD009F104000168C1F38101012908D01D
:100A20000068C0F3810002280AD1D9F80000400212
:100A300006D52868800337D560680028E1D033E008
:100A40006068B0F5803F10D0B0F5A02F286810D0B6
:100A500020F480302860286820F4802028606068B6
:100A6000A8B1FFF735FE06460DE0286840F4803057
:100A7000F4E740F480202860F7E700BFFFF728FE86
:100A8000801B642873D828688003F7D50CE0FFF733
:100A90001FFE064605E000BFFFF71AFE801B642814
:100AA000F0D828688003F7D42078DFF8AC8280077C
:100AB0004FF0000A3ED5A748001D016811F00C0F49
:100AC00008D00068C0F3810002280BD1D9F80000DB
:100AD000400207D42868800716D5E068012800D1B5
:100AE00012E033E1E068B8B10120C8F80000FFF778
:100AF000EFFD064605E000BFFFF7EAFD801B022878
:100B0000C0D828688007F7D52868216920F0F80048
:100B100040EAC10028600DE0C8F800A0FFF7D8FD4A
:100B2000064604E0FFF7D4FD801B02281FD8286882
:100B30008007F7D42078000722D5864F874861695F
:100B4000703771B101210160FFF7C2FD064604E074
:100B5000FFF7BEFD801B022809D838688007F7D54B
:100B60000EE0C0F800A0FFF7B3FD064605E082E006
:100B7000FFF7AEFD801B02287DD838688007F7D4C8
:100B80002078400768D5DFF8CCB100270BF13C0B8B
:100B9000DBF80000C0000BD4DBF8001041F08051FE
:100BA000CBF80010DBF80000012700F08050009027
:100BB0006B4E3068C00510D4306840F480703060EF
:100BC000FFF786FD009005E0FFF782FD0099401ACF
:100BD000022850D83068C005F6D55E4EA0686C3645
:100BE00001280FD00528306810D020F001003060B7
:100BF000306820F004003060A068B8B1FFF768FDED
:100C000000900FE0306840F00100F4E740F004008D
:100C10003060F7E7FFF75CFD0099411A41F2883038
:100C2000814266D830688007F4D50EE0FFF750FDAA
:100C3000009007E0FFF74CFD0099411A41F288301F
:100C4000814256D830688007F4D42FB1DBF8001009
:100C500021F08051CBF80010A069C8B33D49091DAF
:100C60000968C1F3810102294AD00228504607D001
:100C7000C8F8600000E03CE0FFF72AFD04463BE0D6
:100C80004746C8F86000FFF723FD064605E000BFB1
:100C9000FFF71EFD801B02282BD828688001F7D49F
:100CA000D4E907010843A16A2E4A490802EB014131
:100CB000626A41EA8211084394F82C1040EA01610B
:100CC000C9F8001001203866FFF702FD044606E06F
:100CD0003EE000BFFFF7FCFC001B022809D8286893
:100CE0008001F7D534E000BFFFF7F2FC001B0228BB
:100CF00002D90320BDE8F88F28688001F4D427E0EA
:100D00000128F7D0D9F80000E26900F4800191428F
:100D10001CD1226A00F03F01914217D147F6C07101
:100D2000626A0140B1EB821F10D1A26A4FF0FF331B
:100D300000F4403103EB5202B1EB024F06D194F8BC
:100D40002C1000F07060B0EB016F01D00120D1E7F2
:100D50000020CFE70438024000004742800E47429F
:100D6000007000400000FFFF10B5401EB0F1807F12
:100D700001D3012010BD4FF0E02460610F21601706
:100D800002F00BFA0020A06107202061002010BDB6
:100D900010B590F83C20012A22D0012280F83C2096
:100DA000CA688C6822F4407222434C6822F4806244
:100DB00022430C6822F4006222430C6922F4805220
:100DC00022434C6922F400522243C969002322F4D1
:100DD00080420A4301684A6480F83C30002010BD1C
:100DE000022010BD70B590F83C20012A32D00124B9
:100DF00080F83C40022280F83D2003685A689D68D4
:100E000022F070060A6832435A60134B02689A4215
:100E100014D0B2F1804F11D0104B9A420ED0104B2B
:100E20009A420BD00F4B9A4208D00F4B9A4205D0F2
:100E30000E4B9A4202D00E4B9A4204D1496825F0DB
:100E400080031943916080F83D40002180F83C10F8
:100E5000084670BD022070BD000001400004004043
:100E600000080040000C0040000401400040014028
:100E70000018004010B50446022249B104290ED0E2
:100E8000082913D094F84500012816D0012010BD80
:100E900094F842000128F9D184F842200FE094F838
:100EA00043000128F2D184F8432008E094F844007C
:100EB0000128EBD184F8442001E084F84520042285
:100EC000206801F078FF2068416C41F400414164E2
:100ED00011492068884214D0B0F1804F11D00F49D9
:100EE00088420ED00E4988420BD00E49884208D065
:100EF0000D49884205D00D49884202D00C498842EC
:100F000004D1816801F00701062903D0016841F08E
:100F100001010160002010BD0000014000040040FC
:100F200000080040000C0040000401400040014067
:100F30000018004070B504460D460068002201F01C
:100F40003AFF2068036A41F211110B4240F2444219
:100F500006D1036A134203D1436C23F40043436474
:100F60002068036A0B4206D1016A114203D101686D
:100F700021F00101016001203DB1042D08D0082DB0
:100F800009D084F84500002070BD84F84200FAE7DB
:100F900084F84300F7E784F84400F4E710B5040050
:100FA00003D094F83D0010B107E0012010BD0020EF
:100FB00084F83C00204600F01FF8022084F83D0031
:100FC000211D206801F082FE012084F8460084F88B
:100FD0003E0084F83F0084F8400084F8410084F823
:100FE000420084F8430084F8440084F8450084F803
:100FF0003D00002010BD000008B51E4A01681E48D3
:1010000091420ED1016841F0100101600068002298
:1010100000F01000009011463620FFF7D3FB362079
:1010200022E0164A91420ED1016841F02001016090
:101030000068002200F02000009011463720FFF7E2
:10104000C1FB372010E00E4A914211D1016841F0F6
:10105000400101600068002200F04000009011464D
:101060002B20FFF7AFFB2B20BDE80840FFF79DBB0F
:1010700008BD00000010004040380240001400404D
:101080000018004090F83D10012901D00120704760
:10109000022180F83D100168CA6842F00102CA606E
:1010A00000681149884214D0B0F1804F11D00F4927
:1010B00088420ED00E4988420BD00E49884208D093
:1010C0000D49884205D00D49884202D00C4988421A
:1010D00004D1816801F00701062903D0016841F0BD
:1010E0000101016000207047000001400004004041
:1010F00000080040000C0040000401400040014096
:101100000018004070B5044690F83C000025012806
:1011100017D0012684F83C60022084F83D00206846
:10112000826822F0770222F47F42826008685028A9
:1011300038D00DDC20284FD005DC90B3102811D119
:101140004AE0022070BD302846D040280AD13BE05A
:1011500060282FD070280DD0B0F5805F03D0B0F597
:10116000005F12D0012584F83D60002084F83C0027
:10117000284670BDCB68D1E90121206801F028FE26
:101180002068816841F0770109E0CB68D1E901214D
:10119000206801F01DFE2068816841F48041816073
:1011A000E1E719E0CA684968206801F0E5FE5021CE
:1011B000206806E0CA684968206801F0EEFE6021F8
:1011C000206801F00FFECEE7CA684968206801F088
:1011D000D3FE40212068F4E7226801461046F0E77C
:1011E00070B5044690F83C0000260D4601280FD04B
:1011F000012084F83C006AB1042A1DD0082A2FD0AF
:101200000C2A3FD00126002084F83C00304670BDF7
:10121000022070BD206801F0EDFD2068816941F079
:10122000080181612068816921F0040181612068E1
:1012300081692A69114311E0206801F00BFE2068E2
:10124000816941F4006181612068816921F48061D4
:101250008161206881692A6941EA02218161D2E7BE
:10126000206801F02DFE2068C16941F00801C161CC
:101270002068C16921F00401C1612068C1692A693F
:10128000114311E0206801F04FFE2068C16941F46C
:101290000061C1612068C16921F48061C161206879
:1012A000C1692A6941EA0221C161ACE710B50400B5
:1012B00003D094F83D0010B107E0012010BD0020DC
:1012C00084F83C00204600F01FF8022084F83D001E
:1012D000211D206801F0FAFC012084F8460084F802
:1012E0003E0084F83F0084F8400084F8410084F810
:1012F000420084F8430084F8440084F8450084F8F0
:101300003D00002010BD0000F0B587B00446142158
:101310006846FFF772F86E496C4B266800246C4DE6
:10132000143902226B484FF0030E9E4211D12B68F4
:1013300043F002032B602B6803F0020305930B6854
:1013400043F001030B60096801F0010105912021C0
:1013500039E0614B0127DFF884C19E421AD1286829
:1013600040F001002860286800F00100059008683E
:1013700040F00200086008680097CDE9012400F001
:101380000200CDE90470694603929CE0FFF79EF8E5
:1013900007B0F0BD4E4B1B1FB6F1804F19D0504F18
:1013A000BE422CD12B6843F480332B602B6803F4AE
:1013B000803305930B6843F001030B60096801F06B
:1013C0000101059104218DE81600CDE9032E69463F
:1013D000DCE71D6845F001051D601B6803F0010393
:1013E00005930B6843F001030B6009680092CDE997
:1013F000012401F00101CDE90471039217E0394D98
:10140000AE4216D11D6845F008051D601B6803F04B
:10141000080305930B6843F001030B60096801F0B2
:101420000101059108218DE8160003920492694696
:10143000ACE72D4F0925BE4211D11E6846F080064B
:101440001E601B6803F0800305930B6843F00103E3
:101450000B60096801F001010591402113E0234F61
:10146000BE4216D11E6846F480761E601B6803F4E7
:10147000807305930B6843F001030B60096801F06A
:101480000101059180218DE81600CDE9032569460B
:101490007CE7174886427FF47BAF186840F0020073
:1014A0001860186800F002000590086840F002001B
:1014B000086008680092CDE9012400F00200CDE93F
:1014C000042069460392604660E700000004014082
:1014D0004438024000000240000001400004024085
:1014E00000400140000C0040001C00400020004073
:1014F0000004004010B50446022249B104290ED070
:10150000082913D094F84100012816D0012010BDFD
:1015100094F83E000128F9D184F83E200FE094F8B9
:101520003F000128F2D184F83F2008E094F8400001
:101530000128EBD184F8402001E084F84120012209
:10154000206801F02BFC16492068164A884201D019
:10155000904203D1436C43F40043436420688842C3
:1015600013D0B0F1804F10D00F4988420DD00F49F1
:1015700088420AD00E49884207D0904205D00D49D2
:10158000884202D00C49884204D1816801F00701E9
:10159000062903D0016841F001010160002010BD5F
:1015A0000000014000040140000400400008004029
:1015B000000C0040004001400018004030B50446D7
:1015C0000D460068002201F0E9FB194B41F21111B0
:1015D00020688A10984202D0164B984209D1036ABB
:1015E0000B4206D1036A134203D1436C23F4004338
:1015F00043642068036A0B4206D1016A114203D199
:10160000016821F00101016001203DB1042D08D0E5
:10161000082D09D084F84100002030BD84F83E0038
:10162000FAE784F83F00F7E784F84000F4E70000A9
:10163000000001400004014070B5040004D094F89B
:101640004100002510B106E0012070BD84F8405033
:10165000204600F023F8242084F841002068C16867
:1016600021F40051C160204601F0CCFC20680169E2
:1016700021F4904101612068416921F02A01416112
:101680002068C16841F40051C1606564202084F87D
:10169000410084F842006563002070BD2DE9F041EF
:1016A00086B0044614216846FEF7A7FE4848474B1B
:1016B000226800244649103802250326DFF81481E9
:1016C0009A4233D10A6842F480120A60096801F430
:1016D00080110591016841F004010160016801F089
:1016E00004010591016841F008010160006802AA47
:1016F00000F0080005909814CDE90005082782E85D
:10170000D00069463448FEF7E1FE0420CDE900052B
:1017100002AA694682E8D0004046FEF7D7FE0022C2
:1017200011463520FFF74EF8352026E02B4F0723D2
:10173000BA4227D12649091D0A6842F010020A6000
:10174000096801F010010591016841F00101016093
:101750000068029400F0010005904FF4C060CDE9EC
:101760000005CDE9036369461D48FEF7AFFE002280
:1017700011462520FFF726F82520FFF716F806B0BA
:10178000BDE8F081174FBA42F9D10A6842F400323D
:101790000A60096801F400310591016841F008010F
:1017A00001600068029400F0080005906020CDE917
:1017B0000005CDE9036369464046FEF787FE002237
:1017C00011462620FEF7FEFF2620D6E700500040F7
:1017D00040380240000C0240000802400010014066
:1017E0000000024000440040FEE700002DE9F04FF9
:1017F00087B014216846FEF700FE9E480024016869
:1018000041F010010160016801F0100105910168CB
:1018100041F004010160016801F0040105910168D3
:1018200041F020010160016801F02001059101688B
:1018300041F080010160016801F0800105910168BB
:1018400041F001010160016801F0010105910168A9
:1018500041F002010160016801F002010591016897
:1018600041F040010160016801F04001059101680B
:1018700041F0080101600068002200F008000590B6
:101880004FF47C717C48FEF71EFF49F604060022E7
:1018900031467A48FEF717FF4FF460570022394669
:1018A0007748FEF710FF4FF4F04800224146754894
:1018B000FEF709FF4FF44749002249467248FEF7F8
:1018C00002FF4FF4FE7A002251467048FEF7FBFEFD
:1018D0004FF4C85B002259466D48FEF7F4FE48F20B
:1018E0007E00CDE900040120029069466548FEF7BC
:1018F000EDFD4EF20F000325CDE900056946029487
:101900005D48FEF7E3FD40F2FF70CDE90005694652
:1019100002945B48FEF7DAFDFF20CDE90005694639
:1019200002945B48FEF7D2FD4FF47C7000900120DA
:10193000CDE90104694650480394FEF7C7FD40F223
:10194000FB30CDE90005694602944C48FEF7BEFD28
:1019500001200096CDE90104694648480394FEF74A
:10196000B5FD01200097CDE9010469464448039480
:10197000FEF7ACFDA803CDE9000401200290694602
:101980003F48FEF7A3FD48F20300CDE90005694694
:1019900002943E48FEF79AFD40F28170CDE90005C1
:1019A000694602943748FEF791FD0120CDF800808A
:1019B000CDE90104694633480394FEF787FD4FF4EF
:1019C000C840CDE900040120029069462B48FEF78B
:1019D0007DFD0120CDF80090CDE9010469462A483B
:1019E0000394FEF773FD41F69B00CDE9000401204E
:1019F000029069462448FEF769FD4FF40050CDE996
:101A00000005694602942048FEF760FD0120CDF8EC
:101A100000A0CDE9010469461C480394FEF756FD79
:101A20000120CDF800B0CDE90104694618480394BF
:101A3000FEF74CFD4FF40040CDE900040120029078
:101A400069461348FEF742FDA802CDE900040120D3
:101A5000029069460848FEF739FD4FF4FC40CDE995
:101A600000040120029069460848FEF72FFD07B0E8
:101A7000BDE8F08F30380240000802400004024008
:101A80000014024000100240000C02400018024006
:101A9000000002401FB50021104800910191029101
:101AA0000D4A0391C0E900214FF6FF72C0E902120E
:101AB00001618161FFF772FA08B1FEF704FD4FF48E
:101AC0008050009069460548FFF71CFB002801D0B4
:101AD000FEF7F9FC1FBD000000180040C001002007
:101AE0001CB500240E4800940C490194C0E9001470
:101AF0004FF6FF71C0E902418461FFF74FFA08B168
:101B0000FEF7E1FC0094694605480194FFF76AF985
:101B1000002801D0FEF7D7FC1CBD000000100040DB
:101B2000300100201CB500240E4800940C4901949B
:101B3000C0E900144FF6FF71C0E902418461FFF76C
:101B40002DFA08B1FEF7BFFC0094694605480194E0
:101B5000FFF748F9002801D0FEF7B5FC1CBD0000D6
:101B600000140040780100200C4810B50A490160BB
:101B70004FF4E1314160002181600C22C160C0E975
:101B800004128161C161FFF757FD002803D0BDE851
:101B90001040FEF798BC10BD005000400802002025
:101BA0000C4810B50A4901604FF4E1314160002151
:101BB00081600C22C160C0E904128161C161FFF73C
:101BC0003BFD002803D0BDE81040FEF77CBC10BDF3
:101BD00000100140500200200C4810B50A49016075
:101BE0004FF4E1314160002181600C22C160C0E905
:101BF00004128161C161FFF71FFD002803D0BDE819
:101C00001040FEF760BC10BD004400409802002068
:101C1000FEE7FEE77047000030B58BB00D46044686
:101C200003460AAA09A9284600F00EFA082C3AD25F
:101C3000DFE804F004070B0F1A1E222E384809991A
:101C40001DE037480999483005E03548099990303A
:101C500021E0344809990268916202680A99D162C8
:101C60000068490841631EE02D480999D830F2E721
:101C70002C4809999038EEE72A48099948300268BB
:101C8000916202680A99D1620068490881630AE09A
:101C90002448099948380268916202680A99D16219
:101CA0000068490801642049C4EBC40001EB8000CE
:101CB000042C45612ED100EE905AA1F140049FED15
:101CC0001B1AF8EE600A94ED020A00EE810A84ED18
:101CD000020AFCEEC00A10EE900A05042D0C19D081
:101CE00000EE905A20221249F8EE600A01A830EE68
:101CF000600A84ED020AFEF74EFB0D48008D81B2AA
:101D00000598FEF7DBFC0128608805D0A84205D2C3
:101D1000002060800BB030BD2844FAE7401BF8E794
:101D2000E002002090040020400000206F12833A5F
:101D3000E84B000830B52DED108BB0EE419AF0EE77
:101D4000429AB4EEC90AB0EE61BAF0EE60BAF1EEB2
:101D500010FA83B006D99FEDB4ABF5EEC09AF1EE60
:101D600010FA04D803B00020BDEC108B30BD10EE8B
:101D7000100A02F0C3FE41EC180B1BEE900A02F0B1
:101D8000BDFE41EC1E0B19EE100A02F0B7FE41EC4D
:101D90001F0B19EE900A02F0B1FE41EC1D0B1BEE79
:101DA000100A02F0ABFE41EC1C0BB0EE4A9AF0EECA
:101DB0006A9A53EC1C2B51EC1E0B02F039FC7DD2BD
:101DC00053EC1E2B51EC1C0B02F0AEFD53EC1D2B03
:101DD00002F0A6FA41EC1B0B9FED950B51EC1D0B8D
:101DE00053EC102B02F09CFA53EC1B2B02F05CFC22
:101DF00053EC1B2B02F058FC53EC1B2B02F054FC51
:101E000041EC100B8DED000B9FED8B0B51EC1E0B7D
:101E100053EC102B02F048FC53EC1B2B02F044FC5B
:101E200053EC1B2B02F040FC41EC1A0B53EC1B2B28
:101E300051EC180B02F038FC53EC1A2B02F074FD35
:101E40009DED000B53EC102B02F06EFD41EC1A0BD4
:101E50009FED790B51EC1D0B53EC102B02F024FC81
:101E600053EC1B2B02F020FC53EC1B2B02F01CFC50
:101E700041EC100B53EC1B2B8DED000B51EC1E0BAA
:101E800002F012FC53EC182B02F042FD9DED000B0A
:101E900053EC102B02F048FD41EC180BB0EE49BAA0
:101EA000F0EE69BA53EC1B2B51EC1A0B02F0C0FB9D
:101EB00003D2B0EE4BAAF0EE6BAA00E015E053ECB3
:101EC0001F2B51EC180B02F0B3FB06D89FED5A0BF9
:101ED00051EC1A0B53EC102B9DE053EC1A2B51ECE8
:101EE000190B02F069F941EC190B9FED53BB51EC52
:101EF0001C0B53EC1B2B02F0D7FB0D4645EC100BD3
:101F0000044653EC1C2B51EC100B02F0CDFB53ECB0
:101F10001D2B02F005FA53EC1F2B02F04DF941EC9A
:101F20001A0B51EC180B53EC1A2B02F0BBFC2AD203
:101F30009FED430B51EC1C0B53EC102B02F0B4FB48
:101F400041EC1E0B53EC1A2B51EC1A0B02F0ACFBBC
:101F500041EC1F0B53EC182B51EC180B02F0A4FBB7
:101F600053EC1F2B02F0E0FC53EC1E2B02F0D8F9CF
:101F700041EC100B51EC190B53EC102B02F01CF937
:101F800041EC190B03E0B0EE48AAF0EE68AA53EC5E
:101F90001D2B51EC1C0B02F0C3F99FED250B41ECFE
:101FA000180B53EC102B51EC1D0B02F0B9F953EC4C
:101FB000182B02F079FB53EC182B02F075FB53EC55
:101FC000182B02F071FB45EC104B41EC1C0B53EC51
:101FD000182B51EC100B02F067FB53EC182B02F09E
:101FE00063FB41EC1D0B53EC182B51EC1A0B02F068
:101FF0005BFB53EC1D2B02F097FC53EC1C2B02F007
:10200000DBF841EC100B51EC190B53EC102B02F0E8
:10201000D3F853EC1B2B02F0CFF803B0BDEC108BC0
:10202000BDE8304002F0D4BA00000000000000001B
:102030000000000000001840000000000000E03F29
:10204000000000000000004010B590B14FF4FA54B9
:10205000A04200D92046012B0DD0032B0BD0062B1C
:1020600009D053230B600549B1FBF0F0401E10600E
:1020700010BD0120EFE7A723F4E7000040420F0066
:102080002DE9F043334E89B03078002818D006F19E
:10209000A404A4F1B001708849884FF00008451AE3
:1020A000002D54D002DD4FF0010001E04FF00000A0
:1020B0008146207C4FF0010708B9607C18B1277673
:1020C00009B0BDE8F0834FF0200223496846FEF7CF
:1020D00062F921483038B0F8580081B20498FEF710
:1020E000EDFA012807D000214945277605D027744D
:1020F00084F81180E4E70121F6E7002D00DA6D4253
:102100001448144F243014370089B7EE001A00EE3B
:10211000100A3889B8EE402A00EE100AF8EE401A8C
:1021200094EC020AFFF706FE854202DD4FF4FA64E2
:1021300000E001240748001D0189A142C0D00481AC
:102140003A892146042000F0D1F9012CB8D186F853
:102150000080B5E70C000020184C0008F0B58FB0E7
:102160000C4605461F4616461C216846FEF745F9F3
:10217000202107A8FEF741F96C600024C5E902465A
:1021800080202C61C5E905402846FFF78FF8C8B9C3
:102190006020CDE9000402940394049405943A4627
:1021A000694628460694FFF71BF858B90E940B941D
:1021B0000C940D940A9407A928460994FEF7E8FDAB
:1021C000002800D001200FB0F0BDF0B587B00C465C
:1021D00005461F4616461C216846FEF70EF96C6040
:1021E0000024C5E9024680202C61A8612846FFF73B
:1021F0005DF858B96020CDE9000402943A4669467A
:1022000028460494FEF7ECFF002800D0012007B018
:10221000F0BD0000F0B50024ADF5717D15460E4609
:102220000746012806D0022F16D0042F3CD0052FD8
:1022300064D177E050226B49D3A8FEF7ACF8694926
:1022400028225031E7A8FEF7A6F8BDF89C13D398D2
:10225000A1E030437ED050E06249502278315AA844
:10226000FEF799F85F492822C83196A8FEF793F83F
:102270005C495022F0316EA8FEF78DF828225A49A9
:10228000B4A8FEF788F8BDF85A125B98FEF716FA64
:10229000012800D00020304378D0BDF8D4127098C7
:1022A00027E0002E72D128E04F4950222831A0A803
:1022B000FEF771F84C4928227831BEA8FEF76BF87A
:1022C00049495022A03182A8FEF765F846492822E4
:1022D000F031C8A8FEF75FF8BDF80213A598FEF725
:1022E000EDF9012800D0002030434FD0BDF82C1369
:1022F0008898FEF7E3F90128D3D1002450223B4906
:102300006846FEF748F839492822503114A8FEF7EC
:1023100042F8BDF876101398FEF7D0F9012841D0A5
:10232000012440E0502232496846FEF734F8304933
:10233000282250313CA8FEF72EF82D495022783142
:1023400014A8FEF728F829492822A03946A8FEF744
:1023500022F800E01AE025495022783928A8FEF733
:102360001AF822492822283950A8FEF714F8BDF897
:10237000FE100798FEF7A2F9012806D1BDF82A1130
:102380001D98FEF79BF9012802D00EB10124B5E794
:10239000BDF850113098FEF791F901283FF459AF7C
:1023A000002056E7D4B1F8B200F0F4F8114801214A
:1023B0009FED110A20F8171085ED000A85ED010A3E
:1023C000B7EE000A002085ED020A287669612874BC
:1023D0006874042F02D10749091F08700DF5717D3B
:1023E0002046F0BD484C0008884D00080850000801
:1023F000A04E000810000020000000001CB504469C
:1024000008284CD2034601AA69460120FFF71CFEAA
:10241000082C44D2DFE804F0040B12191F262D38D3
:1024200020494FF0804004230860084632E01D49EF
:102430001D4848310023086008462BE019491B4815
:1024400090310C230860084624E01A4918480023FC
:102450000860084613E013491748D8310023086084
:10246000084617E0134915489039002308600846CC
:1024700010E0104912484831042308600846DDE99D
:102480000012FFF76BFE1CBD0A490E4848390C23A9
:1024900008600846DDE90012FFF797FE1CBD012029
:1024A0001CBD0000E002002000400140000C004084
:1024B0000004014090040020001C00400020004067
:1024C000000001400004004070B500252C46E0B239
:1024D000FFF794FF08B1012502E0641C082CF6DB2D
:1024E00000F042F900B10125284670BD10B508285A
:1024F00007D24B1EB3F5FA5F03D2531EB3F57A6FC2
:1025000001D3012010BD0B4CC0EBC00300EE101A2C
:1025100004EB8304074BB8EE400A203B012984ED0D
:10252000020A23F8102001D900F006F801202076D5
:10253000002010BD40000020082825D2DFE800F070
:1025400004070B0F12161A1F042110481AE00F4837
:102550000021483016E00D480C21903012E0002197
:102560000B480AE009480021D8300BE00848002158
:10257000903807E0064804214830FEF77BBC044849
:102580000C214838FEF7B6BF01207047E00200205A
:1025900090040020082825D2DFE800F004070B0F84
:1025A00012161A1F042110481AE00F480021483063
:1025B00016E00D480C21903012E000210B480AE093
:1025C00009480021D8300BE008480021903807E086
:1025D000064804214830FEF7ADBC04480C214838B9
:1025E000FEF7ECBF01207047E002002090040020BD
:1025F00070B5584C0026BCB0207804F14005052881
:1026000077D2DFE800F003384E788E00402252493E
:102610006846FDF7C0FE50492022403110A8FDF762
:10262000BAFEBDF8461000220398FEF74CF84A495E
:10263000402260316846FDF7AEFE47492022A031B6
:1026400010A8FDF7A8FEBDF8441001220298FEF77D
:102650003AF841494022C0316846FDF79CFE2022ED
:102660003E4910A8FDF797FEBDF8421001220198DF
:10267000FEF729F83AE03949202220316846FDF773
:102680008AFE36481838B0F8600081B20498FEF728
:1026900015F801282AD185F8880005F8800F6E709A
:1026A00024E02E49502250316846FDF774FE2B4934
:1026B0002822A03128A8FDF76EFE28495022C831F3
:1026C00014A8FDF768FE2822254932A8FDF763FE0D
:1026D000BDF8A6100398FDF7F1FF012809D0BDF859
:1026E000D0101898FDF7EAFF012802D02078401C8E
:1026F00020703CB070BD95F880000028F9D195F8A5
:1027000081000028F5D113484FF4C86110300289C8
:102710008A42EBD00181103002890420FFF7E6FEE7
:10272000E4E70F49502228316846FDF734FE0C4992
:102730002822783114A8FDF72EFEBDF85A1005980E
:10274000FDF7BCFF0128D4D066809FED060A84ED1A
:10275000020ACBE7000000208050000880510008EA
:10276000985200080000000038B5174800210268A0
:1027700042F4003202600068154C00F40030009012
:1027800012482060A720C4E9010140F2E730C4E903
:1027900003018020A0612046FEF700FC88B9206874
:1027A000C16841F00101C160002201211920FEF73A
:1027B00009F81920FDF7F9FF2046FEF763FC002811
:1027C00000D0012038BD00004438024000440140E0
:1027D00020050020D0ED011AB6EE002ADFED1A2AFE
:1027E00021EE822A22EE212A82EE013AB4EEC30AB9
:1027F000F1EE10FA0BDD41EE221AC0ED011AF4EEF3
:10280000E01AF1EE10FA01DDC0ED010A704710EE9A
:10281000101A0E4A914204DDC2EE000AC0ED030A0E
:1028200001E080ED031A90ED030A40EE621AC0ED5C
:10283000011AF5EEC01AF1EE10FAE7D29FED040A84
:1028400080ED010A704700006F12833A0AD7233CDB
:10285000000000007047FDF741BF000030B593B0A5
:1028600030216846FDF7C9FD14210CA8FDF7C5FD10
:102870001D480025016841F080510160006800F0AA
:10288000805011901948016841F48041016000684E
:10289000022400F480401190012000900004019077
:1028A0008001CDE9064008AA0420A82182E813008F
:1028B0000B906846FEF7A2F808B172B6FEE70CA9C5
:1028C0000F2081E831004FF4A0500F904FF480505A
:1028D000109005210CA8FDF7A7FF002801D072B6C3
:1028E000FEE713B030BD00004038024000700040E9
:1028F0000248016841F470010160704788ED00E012
:102900002DE9F04FD8482DED048BABB0006801697C
:10291000C943C90773D1891E0161D4484168491C64
:102920004160FFF7ADFB0025D04EDFF84493403601
:10293000A6F1100BA8469FEDCF8ADFEDCF9A4FF09E
:102940007E57B6EE009A00BFC5EBC50006EB8004CB
:10295000207E002852D020684FF02002B84253DC7D
:10296000C3490CA83039FDF716FDC14A0DF1540AD0
:10297000103A072D0FCA8AE80F0009DC15A830F8B5
:1029800015100CA850F82500FDF798FE012800D07E
:1029900000208246207C48B384ED008A84ED018AC1
:1029A000BAF1000F2CD0002082462022B04904A8A2
:1029B000FDF7F1FC09F12000072D90E80E00D9F891
:1029C0002C00CDE92130CDE91F120BDC1FA8BAF194
:1029D000000F30F8151004A850F8250012D001227D
:1029E000FDF771FE84F8108084F81180224651466C
:1029F0002846FFF70FFCA0B384F81080F8E02DE123
:102A00000120D1E70022EBE7994907A83031FDF713
:102A1000C2FC09F15000072D90E80E00D9F85C00C7
:102A2000CDE90530CDE9031209DC03A830F8151013
:102A300007A850F82500FDF741FE012807D0002126
:102A400022462846FFF7E6FB00286ED101E001216F
:102A5000F6E7207C28B1607C88B1012811D00228DB
:102A60007ED0D4ED021A94ED000A71EEC08AF5EE24
:102A7000C08AF1EE10FA74DBB0EE680A87E001203C
:102A8000607494ED000A10EE100AB8424EDC84ED3A
:102A9000008A84ED018AE8B2FFF77CFD74492022A8
:102AA00060310FA8FDF777FCDFF8C4A1072D0AF10C
:102AB000800A9AE80E00DAF80C00CDE92930CDE959
:102AC000271209DC27A830F815100FA850F82500A8
:102AD000FDF7F4FD012800D0002065490290202276
:102AE000903117A8FDF757FC0AF13000072D90E848
:102AF0000E00DAF83C00CDE92530CDE923120DDCDB
:102B00000298002823A830F8151017A850F82500BF
:102B100001D0002200E00122FDF7D5FD0220607403
:102B200084F81080E8B2FFF707FD61E03BF815007C
:102B300000EE900A4D482030B8EE601A30F81500CB
:102B400000EE900A2046F8EE600AFFF743FE94EC90
:102B5000020A00EEE90A84ED000AB5EEC00A01E0BF
:102B600010E012E0F1EE10FA01D284ED008A94ED4B
:102B7000000A30EE090ABCEEC00A10EE101A71BB52
:102B8000012132E084F8118032E0B1EE680A374862
:102B9000203030F8150000EE900A3BF8150001EEE9
:102BA000100A10EE100AF8EE600AB8EE411AB0F101
:102BB0007C5F28DC11EE900AC4ED001A84ED018AD6
:102BC000B84209DCE8B2FFF7E5FC84ED008A84ED49
:102BD000018A84F818800BE031EE890A37E004E0BE
:102BE0004FF4FA50814200D90146E8B2FFF714F8D9
:102BF0006D1C082DFFF6A8AE2BB0BDEC048BBDE814
:102C0000F04FFFF7F5BC2046FFF7E4FDF5EEC08A74
:102C1000F1EE10FA94EC020A02DD00EEA90A01E0DE
:102C200000EEE90A10EE100A84ED000AB84203DA59
:102C3000B7EE000A84ED000A10EE100A0F49884230
:102C400003DD9FED0F0A84ED000A30EE090ABCEEA9
:102C5000C00A10EE101A0029C2D191E72BB0BDECCA
:102C6000048BBDE8F08F000020050020000000204C
:102C700068530008000000006F12833A0000FA4514
:102C80000000FA4503496FF0010009680861024835
:102C900001F00CB8300100206805002003496FF0F6
:102CA000010009680861024801F000B878010020BD
:102CB000BC0B002003496FF001000968086102485D
:102CC00000F0F4BFC001002010120020F0B502682F
:102CD000274B284D284E294F294C4FF0804C9842C5
:102CE00009D0604507D0A84205D0B04203D0B84211
:102CF00001D0A04204D122F0700E4A6842EA0E02CE
:102D000098421BD0604519D0A84217D0B04215D0C8
:102D1000B84213D0A04211D01A4DA8420ED01A4D7D
:102D2000A8420BD0194DA84208D0194DA84205D091
:102D3000184DA84202D0184DA84203D122F4407584
:102D4000CA682A434D6922F080022A438D68C56211
:102D50000D688562984201D0A04201D109690163E2
:102D6000016841F004010160012141610260F0BD90
:102D7000000001400004004000080040000C00403A
:102D8000000401400040014000440140004801406F
:102D900000180040001C00400020004010B501F069
:102DA0001F030121046A99408C430462016A9A401E
:102DB0001143016210BD10B501F00F030421046A34
:102DC00099408C430462016A9A401143016210BD2C
:102DD00010B5846842EA032224F47F440A43224364
:102DE000826010BD826822F070020A4342F007013F
:102DF00081607047F0B5036A026A22F00102026244
:102E000042688469124E24F073050C682C4323F049
:102E100002058B682B430D4DA84201D0B04205D16D
:102E200023F00807CB683B4323F00403A84201D0FA
:102E3000B04205D14D6922F4407215438A692A4394
:102E400042608461496841630362F0BD0000014053
:102E500000040140F0B5026A036A23F01003036224
:102E6000436884690D6824F4E64444EA05248D68C7
:102E700022F0200242EA05120F4D104EA84201D066
:102E8000B04206D1CF6822F0800242EA071222F057
:102E90004002A84201D0B04207D14D6923F44063FB
:102EA00043EA85038D6943EA850343608461496889
:102EB00081630262F0BD0000000001400004014097
:102EC000F0B5026A036A23F4807303624368C4693D
:102ED00022F4007224F073050C68124E2C438D68A6
:102EE00042EA05220E4DA84201D0B04206D1CF6879
:102EF00022F4006242EA072222F48062A84201D052
:102F0000B04207D14D6923F4405343EA05138D695C
:102F100043EA05134360C4614968C1630262F0BDBE
:102F2000000001400004014030B5046A026A22F446
:102F3000805202624268C3690D6823F4E64343EAA3
:102F400005238D6824F4005444EA0534084DA84252
:102F500002D0084DA84204D14D6922F4804242EAD1
:102F600085124260C36149680164046230BD00009B
:102F7000000001400004014010B5036A046A24F017
:102F800001040462846924F0F00444EA021423F08A
:102F90000A020A438461026210BD10B5036A046A22
:102FA00024F010040462846923F0A00324F4704424
:102FB00044EA023243EA01118261016210BD00005D
:102FC00010B53520FDF7E4FB0C4C20680168C943BF
:102FD000890605D46FF020010160094800F071FEF8
:102FE00020680168C943090607D46FF080010160B9
:102FF000BDE81040024800F08DBE10BD0802002060
:103000001012002070B5044600680169E26821F4DE
:103010004051114301612169A068E2690843616977
:10302000114308432168CA6849F20C639A4302437A
:10303000CA6020684169A26921F44071114341616D
:1030400031492068884202D03049884202D1FDF7D8
:1030500095FC01E0FDF782FCE2690023192164255B
:103060003226B2F5004F626828D0A0FB0101930F11
:103070009200FDF719F90146B0FBF5F06FF0180268
:10308000504301EB800006EB0010B0FBF5F000F0C0
:10309000F002B1FBF5F002EB0012B1FBF5F06FF0BE
:1030A0001803584301EB800006EB0010B0FBF5F06D
:1030B00000F00F0021681044886070BDA0FB010182
:1030C00092185B41FDF7F0F80146B0FBF5F0020104
:1030D000B1FBF5F06FF01803584301EB800006EBED
:1030E000C000B0FBF5F000F0F80002EB4002B1FBCD
:1030F000F5F0584301EB800006EBC000B0FBF5F0A3
:1031000000F00700D6E70000001001400014014065
:1031100010B52520FDF73CFB0C4C20680168C94325
:10312000890605D46FF020010160094800F0C9FD4F
:1031300020680168C943090607D46FF08001016067
:10314000BDE81040024800F0E5BD10BD500200206F
:103150006805002010B52620FDF71AFB0C4C2068EE
:103160000168C943890605D46FF020010160094850
:1031700000F0A7FD20680168C943090607D46FF075
:1031800080010160BDE81040024800F0C3BD10BDE1
:1031900098020020BC0B0020FEE70907090E00285A
:1031A00004DB00F1E02080F80014704700F00F000D
:1031B00000F1E02080F8141D70470000FDF796FA3A
:1031C000FFF74CFBFEF712FBFEF7EAFCFEF7CCFC28
:1031D000FEF702FDFEF75EFCFEF782FCFEF7A2FCA6
:1031E000174A01204FF4964382F8A2050021C2F845
:1031F000A43582F8A315134A82F8A205C2F8A435B3
:1032000082F8A315104A82F8A2054FF4E130C2F803
:10321000A40582F8A3150A4800F01EFB094800F037
:103220001BFB094800F018FBFFF74EF9044800F0BB
:1032300059FC044800F056FC034800F053FCF5E745
:1032400068050020BC0B00201012002070B5094D4D
:10325000FF231A4605F5807606E000BF10F8014B03
:1032600054402A5D5A40335D491E89B2F6D242EA83
:10327000032070BD2854000830B490F803120529CB
:1032800031D008DC012928D0022926D0032927D0F3
:10329000042906D124E0062928D00F2929D0102995
:1032A0002AD0012180F80014447890F80252C11C01
:1032B000621C42700B46655490F8031241F0800482
:1032C00041784A1C4270CC54417890F800444A1C22
:1032D0004270CC5430BC00F0CABC30BC00F046BDDB
:1032E00030BC00F0BFBD30BC00F020BE30BC00F0F0
:1032F00068BE30BC00F0A6BE30BC00F003BF10B505
:1033000001F0070400EBD101012391F80104A3406F
:103310000AB1184300E0984381F8010410BD000091
:103320002DE9F04F00242DED028BB3B00F46064679
:10333000022A1BD0BC480078052817D106EB4700AD
:10334000A0F81224B948864202D0B94886420DD16D
:10335000DFF8E0B2C62F02D09FEDB78A0FE0B6F8D3
:103360009E15ABF8021001218BF8001033B0BDECB4
:10337000028BBDE8F08F042C01D100287ED12022E1
:10338000AE4904A8FDF707F8DFF8B082072C08F172
:10339000180808F1080090E80E00D8F81400CDE9EC
:1033A0000C12CDE90E3009D80CA830F8141004A87E
:1033B00050F82400FDF782F901287CD05FF000016D
:1033C00004EB840906EB8905B5F8140482468142B2
:1033D0001ED09A492022303114A8FCF7DCFF08F1F6
:1033E0003800072C90E80E00D8F84400CDE9101200
:1033F000CDE912300CD810A8BAF1000F30F8141033
:1034000014A850F8240075D05FF00102FDF75BF9B5
:103410008A492022603108A8FCF7BDFF08F1680046
:10342000072C90E80E00D8F87400CDE90412CDE91D
:10343000063009D804A830F8141008A850F8240061
:10344000FDF73CF9012863D05FF00001B5F81604E0
:10345000814208D07A48C4EBC40200EB820001210B
:103460000174002141747749B5F81C0431F8142027
:10347000904210D0E8B34FF47A6200E081E09042CD
:1034800000D9104621F81400B0F5803F01D34FF663
:10349000FF70A5F81C046C49B5F81A0431F8142023
:1034A00090420BD038B34FF47A62904200D9104664
:1034B00021F8140000E027E0A5F81A04DFF88C8159
:1034C000B5F8180438F81420904210D038B34FF4EF
:1034D000FA52904200D9104628F81400A5F81804B2
:1034E00031F8142038F814102046FEF7FFFF0621AB
:1034F00002E00FE00AE010E001EB4900B84224D1FD
:10350000B5F81E0468B120E0012159E700227DE7EB
:1035100001219BE74FF4FA60B4E70120C8E70120DE
:10352000DAE72046FFF736F84548C4EBC40201212C
:1035300000EB820028F8141080ED008A80ED028AEA
:1035400080ED018A416100210176C72F17D1B6F8BD
:10355000A005012813D12046FFF71CF83848C4EB1A
:10356000C402012100EB820028F8141080ED008ACB
:1035700080ED028A80ED018A4161002101769BF88D
:103580000000641CE4B2082CFFF4F5AE002403AD87
:103590000DF18C0829494022903113A8FCF7FBFE5D
:1035A00026492022D0312BA8FCF7F5FE0F2C09D894
:1035B0002BA830F8141013A850F82400FDF77EF85B
:1035C000012800D0002006EB4401B1F8B274B842E3
:1035D00014D01A494022F03103A8FCF7DCFE202267
:1035E0001B4923A8FCF7D7FE0F2C07D838F8141076
:1035F00055F82400B7B10122FDF765F8641CE4B268
:10360000102CC7D3134A002006EB4001B1F8D214A6
:1036100019B102EB4003A3F82814401CC0B20528DE
:10362000F2D3A3E60022E7E70000002068050020AF
:10363000BC0B00200C000020000000009057000888
:10364000400000203000002020000020100000205A
:10365000C05800081012002090F8011441F0010138
:1036600080F80114704700002DE9F04F05466F48BF
:103670000024A9B0854202D06D4885427ED16D4FAD
:10368000DFF8B491DFF8B4A1DFF8B4B107F1800836
:10369000202268490EA8FCF77EFE07F120000AAE42
:1036A0000FC886E80F00072C09D80AA830F81410B4
:1036B0000EA850F82400FDF701F8012800D00020E2
:1036C00004EB840105EB81065A49A6F81204202276
:1036D000303116A8FCF75FFE07F150010DF1080C20
:1036E0000FC98CE80F00072C09D802A830F8141075
:1036F00016A850F82400FCF7E1FF012800D00020B4
:103700004C49A6F81404202260311EA8FCF743FEA1
:1037100098E80E00D8F80C00CDE90612CDE9083083
:10372000072C09D806A830F814101EA850F8240059
:10373000FCF7C4FF012800D00020A6F8160439F8D1
:103740001400A6F818043AF81400A6F81A043BF876
:103750001400A6F81C04C4EBC4013A48641C00EB36
:103760008100E4B2808AA6F81E04082C90D30024BD
:1037700001AE15AF2F495022903100E052E001A870
:10378000FCF709FE2B492822E03115A8FCF703FEBF
:10379000132C07D837F8141056F82400FCF78EFFC6
:1037A000012800D0002005EB4401641CE4B2A1F81C
:1037B000E604142CDED3002401AE11AF40222249CE
:1037C00001A8FCF7E8FD20492022403111A8FCF7B0
:1037D000E2FD0F2C07D837F8141056F82400FCF738
:1037E0006DFF012800D0002005EB4401641CE4B209
:1037F000A1F8B204102CE1D31449002001EB4002DF
:1038000005EB4003401CB2F81224C0B2A3F80E2509
:103810001028F3D30E480088A5F81A050D48007843
:10382000A5F81C0529B0BDE8F08F00006805002050
:10383000BC0B0020285600081000002020000020AB
:1038400030000020400000203057000810120020F7
:1038500002000020000000202DE9F0418D490446BF
:1038600000F5BC6600F2F45500F5B56888424AD10F
:10387000262289494046FCF78EFD874FF88CA4F834
:10388000CE05B86AC4F8D005B88DA4F8D405F88D73
:10389000A4F8D605386BC4F8D805786BC4F8DC05F5
:1038A000092207F13801304604F21C64FCF773FD6D
:1038B00097F8410004F8330C97F8420004F8320CF2
:1038C000786C44F8300C754844F82C0C3D2274494F
:1038D0002846FCF760FD724810F83D1F617541787D
:1038E000A1758178E175C178217601796176417998
:1038F000A1768179E176C1792177017A6177407A81
:10390000A07768489AE0684884424AD126226749ED
:103910004046FCF740FD654FF88CA4F8CE05B86A28
:10392000C4F8D005B88DA4F8D405F88DA4F8D60550
:10393000386BC4F8D805786BC4F8DC05092207F1A8
:103940003801304604F21C64FCF725FD97F841006D
:1039500004F8330C97F8420004F8320C786C44F801
:10396000300C534844F82C0C3D2252492846FCF7B1
:1039700012FD504810F83D1F61754178A17581789E
:10398000E175C1782176017961764179A1768179F5
:10399000E176C1792177017A6177407AA07746484C
:1039A0004CE0464884424CD1262245494046FCF72B
:1039B000F2FC434FF88CA4F8CE05B86AC4F8D005E1
:1039C000B88DA4F8D405F88DA4F8D605386BC4F8E2
:1039D000D805786BC4F8DC05092207F138013046B8
:1039E00004F21C64FCF7D7FC97F8410004F8330C90
:1039F00097F8420004F8320C786C44F8300C3148E7
:103A000044F82C0C3D2230492846FCF7C4FC2E48D3
:103A100010F83D1F61754178A1758178E175C17815
:103A20002176017961764179A1768179E176C17952
:103A30002177017A6177407AA07724482062A4F246
:103A40001C64404694F8A335D4F8A425D4F8F015A6
:103A500000F0E8F82846D4F8A425D4F83C1600F085
:103A6000AFF81B48C4F840061A48C4F844061A4880
:103A7000C4F848061948C4F84C061948C4F850065A
:103A8000032020704046BDE8F0410122002100F0F3
:103A9000B5B8000068050020500200200010014069
:103AA0003001002000100040BC0B002098020020D4
:103AB0000044004078010020001400401012002053
:103AC0000802002000500040C00100200018004003
:103AD000433B00083B3B0008FD3B00087F3B0008E0
:103AE000493B000870B501780446042908D000203D
:103AF00005291AD0062915D184F80102032010E007
:103B000094F80112062504290DD304F20220FFF7D0
:103B10009DFB40B994F8020294F8A215884202D1A4
:103B20000520207070BD257070BD607084F80004A1
:103B30002046BDE87040FFF79FBB006840680870F2
:103B4000704700684160704701680A6A41F21113CA
:103B50001A4207D10A6A9B101A4203D10A6822F05E
:103B600001020A600268002151620168CA6822F0FD
:103B70000102CA6000686FF00101016170470168CD
:103B80000A6A41F211131A4207D10A6A9B101A42BB
:103B900003D10A6822F001020A6002686FF0010195
:103BA00011610168CA6842F00102CA60026800211E
:103BB00051620068016841F0010101607047000036
:103BC00010B501605321416000218160B2F5964F2C
:103BD00002D94FF4E16202E0074BB3FBF2F2C0E915
:103BE00003218161FDF7DAF9002803D0BDE8104018
:103BF000FCF769BC10BD0000A0764B0203680029E9
:103C0000D96802D041F0800101E021F08001D96043
:103C10000068C16812B141F0200101E021F02001EB
:103C2000C160704710B5C0E9001200214FF4805206
:103C3000012B10D0022B13D08160C16001610C22D6
:103C4000C0E90521C161FDF7F7FC00280ED0BDE8F1
:103C50001040FCF738BCC0E902214FF4C06203E019
:103C6000C0E902214FF480620261E8E710BD10B59F
:103C700004460020A07084F801026178E01CFFF780
:103C8000E5FA6278E11C531C63705054030A6078B3
:103C9000421C6270435401202070014604F5B56057
:103CA000D4F84836BDE810400022184701780329AF
:103CB00006D104210170D0F8501600F2F4500847E4
:103CC000704738B50446D0F84426694600F5B5601B
:103CD0009047237804F2022004F2F452022B02D01F
:103CE000032B12D109E000219DF80050012384F834
:103CF00001320D540320207007E094F801329DF842
:103D00000050591C84F801121D54D4F84C1610466A
:103D1000884738BD10B50178044600F5B560012923
:103D200008D0022921D1D4F848360122BDE810403C
:103D300000211847A178627891420DD102212170AB
:103D40000122D4F848360021984704F2F450D4F800
:103D50004C16BDE810400847E31C4A1CA270C95C21
:103D6000D4F84026BDE81040104710BD2DE9F843B7
:103D700004460020009094F80102082804D0032093
:103D800084F80004BDE8F883B4F8040290FA90F9CE
:103D9000B4F8060246BAF01DC708E51C5EB309EB8D
:103DA0000600102827D82046FFF756FC0020694659
:103DB00001221AE009EB000304EBD30C03F0070324
:103DC0009CF801C42CFA03FC5FEACC730BD001EB26
:103DD000D00300F0070893F800C002FA08F84CEA94
:103DE000080C83F800C0401C80B2B042E2D394F8C3
:103DF0000004D8B102E0022084F80004607894F84E
:103E00000222411C6170425594F8030240F0800286
:103E10006078411C61704255617894F80024481C18
:103E200060704A552046FFF722FFABE7627894F8AE
:103E30000232501C60705355607894F80332421C73
:103E4000627043556278501C60705755002006E040
:103E500062780E5C531C6370401C565580B2B842A9
:103E6000F6D3DFE72DE9F041044690F80102082877
:103E700002D0032084F80004B4F80402E51C46BA1A
:103E8000B4F8060247BA4FB1F019C82806D8204640
:103E9000FFF7EAFB94F80004E0B102E0022084F8A6
:103EA0000004607894F80222411C6170425594F835
:103EB000030240F080026078411C617042556078D6
:103EC00094F80024411C617042552046BDE8F04141
:103ED000FFF7CDBE607894F80222411C6170425514
:103EE000607894F80322411C6170425561787A0031
:103EF000481C60704A55002015E000BF04EB4602E4
:103F0000761CB2F81214B6B24FEA112C61784B1C31
:103F1000637001F805C0617892F812344A1C62702F
:103F2000401C4B5580B2B842E8D3CEE770B504468A
:103F300090F801020322082801D084F80024B4F884
:103F4000040241BAB4F8060240BA20B1B0F57F4F7E
:103F500001D084F8002410290AD808B1FF2200E01B
:103F600000222046FFF7CBF994F80004E8B102E004
:103F7000022084F80004617894F80252E21C4B1C81
:103F800063708D5494F8030240F080036078411C04
:103F900061708354607894F80034411C61708354DC
:103FA0002046BDE87040FFF762BE2118401C91F822
:103FB0000222CA706178C0B2491C61700628F4D32D
:103FC000EEE770B5044690F80102082802D00320FD
:103FD00084F80004B4F8040241BAB4F80602C8290F
:103FE00042BA06D82046FFF79BF994F80004E8B1DE
:103FF00002E0022084F80004617894F80252E21C86
:104000004B1C63708D5494F8030240F08003607879
:10401000411C61708354607894F80034411C6170D5
:1040200083542046BDE87040FFF721BE2118401C94
:1040300091F80222CA70617880B2491C617006282A
:10404000F4D3EEE72DE9F041044690F80102032194
:104050000A2801D284F80014B4F8040246BAB4F86D
:10406000060247BA94F80802B0EBD70F01D984F8DA
:10407000001400254FF0020819E000BF04EBD50042
:10408000102E90F809020ED805F00701C840C007AD
:1040900001D0FF2200E0002231462046FFF72FF931
:1040A000761CB6B201E084F800846D1CEDB2BD420E
:1040B000E4D394F80004C8B1637894F80252E21C87
:1040C000591C61709D5494F8030240F0800360789D
:1040D000411C61708354607894F80034411C617015
:1040E00083542046BDE8F041FFF7C1BD2118401CB4
:1040F00091F80222CA706178C0B2491C617006282A
:10410000F4D3EEE72DE9F041044690F801120320C4
:104110000B2901D284F80004B4F804124DBAB4F8A3
:1041200006124FBA94F80812B1EB470F01D084F889
:10413000000400264FF0020812E000BF04EB460026
:10414000C82DB0F8090242BA06D829462046FFF722
:10415000E7F86D1CADB201E084F80084761CF6B27D
:10416000BE42EBD394F80004C8B1617894F80252CF
:10417000E21C4B1C63708D5494F8030240F08003E2
:104180006078411C61708354607894F80034411C5D
:10419000617083542046BDE8F041FFF768BD2118E7
:1041A000401C91F80222CA706178C0B2491C61704B
:1041B0000628F4D3EEE7000010B591EA030F48BFDC
:1041C00083F0004300F1B883841A71EB030C05D22D
:1041D000121943EB0C03001B61EB0C01DFF824E127
:1041E0004FEA1154A4EB135C1EEA430F18BF9EEA7A
:1041F000445F73D023EA0E03DCF1200E21EA045160
:1042000043F4801332D322FA0CFE10EB0E0023FA93
:104210000CFE41EB0E01CCF1200E03FA0EFE10EB6A
:104220000E0051F10001B1F5801FCCF1200E32D209
:1042300001EB045112FA0EF2BDE8104058BF70476E
:10424000401C38BF5FEA420218BF7047002814BF05
:1042500020F0010041F100014FEA410313F5001F76
:1042600038BF7047A1F1C04100F016BB012A43EBF3
:104270000302ACF1200CDCF11F0E32BF4FF0000E38
:1042800023FA0CF310EB030041EB0451B4EB115F84
:10429000D0D0A1EB045101F5801149085FEA30004C
:1042A00001EB04510ED350F1000038BF12FA0EFE9C
:1042B00008D1BDE81040C9E7401C38BF5FEA4202A0
:1042C000CAD1C3E7BDE810404FEA410313F5001F10
:1042D00038BF7047A1F1C04100F0DEBA9EEA445FEA
:1042E00008D011EA5E0FBDE8104004BF01F00041A4
:1042F00000207047BDE8104070B500F07FFA00BFA5
:1043000064FBBE3E0000E0FF491058BFC1F14041D0
:104310005B1058BFC3F140438B42EFF300807047FE
:104320002DE9C04130B4DFF8A0C23CEA111418BF37
:104330003CEA131400F0EC8081EA03051CEA111436
:1043400044EAD57418BF1CEA131500F0C780A4EB2B
:1043500005044FF0004545EAC12145EAC32341EA7F
:10436000505143EA525304F17F74994204F50034EA
:104370004FEAC0204FEAC22208BF904200F09C8062
:104380004FEA13650FF24016765D4FEA134506FBC0
:1043900005F7C7F1807706FB07F74FEAD737A7FB8A
:1043A00003687642C8F58038A7FB06CE38BFA8F16F
:1043B000010807FB08E64FF0000EA6FB028CE6FBA7
:1043C00003CEDCF1000CCEF1004E38BFAEF1010E91
:1043D000A6FB0C584FF000074FF00005E6FB0E87D8
:1043E000A1FB08C6A0FB07CE16EB0E0645F10005A3
:1043F000E1FB076515F1E04E7EBFA4F580345FEA6E
:1044000046066D4116F1800745F100054FEA172772
:104410004FEA066647EA0567A6F1DE46B6F1805F19
:104420004FEA15251FD9384624F0010C05EBC4715D
:10443000BCF1FE6F01EB0C1102D8F0BCBDE80081AD
:1044400024425CBF01F5801E9EEAC47F02D4F0BC0A
:10445000BDE80081244238D4F0BCA1F1C041BDE8E0
:10446000004100F019BA4FEAD22242EA43524FEA21
:10447000D323A7FB02864FEAD02040EA415007FB36
:1044800003661EEA0E0F4FEAD12105FB026658BFF4
:10449000A6EB0056B6EB00564FEA520E4EEAC37E2C
:1044A00018EB0E0E56EB530EBDD518EB02085E410D
:1044B0007F1C55F10005B6E74FF480154FF000075B
:1044C0004FF000064FF00008ADE7F0BC4FF00000E1
:1044D00001F1C04101F00041BDE8008111EA0C1F6B
:1044E0000CEA131500D00CE013EA0C1F00F0258035
:1044F0004FF00000F0BC81EA030101F00041BDE88B
:104500000081F0BCBDE8004181EA030100F0C4B9BC
:10451000F0BCBDE8004170B500F070F9097EFC3ECA
:1045200000F007B881EA03014FF0000001F00041FC
:10453000704781EA030100F0AFB9F0BCBDE800416B
:104540004FF0000021497047FFFDFBF9F7F5F4F249
:10455000F0EEEDEBE9E8E6E4E3E1E0DEDDDBDAD81E
:10456000D7D5D4D3D1D0CFCDCCCBCAC8C7C6C5C47C
:10457000C2C1C0BFBEBDBCBBBAB9B8B7B6B5B4B393
:10458000B2B1B0AFAEADACABAAA9A8A8A7A6A5A47E
:10459000A3A3A2A1A09F9F9E9D9C9C9B9A99999842
:1045A0009797969595949393929191908F8F8E8EE5
:1045B0008D8C8C8B8B8A8989888887878685858472
:1045C00084838382828181800000FF070000F87F5E
:1045D0004FEA41034FEA5353A3F58063D3F11E031F
:1045E000C8BFD3F1210C0CDD4FF0004242EAC122DA
:1045F00042EA505232FA03FC8CEAE17CACEBE17007
:104600007047102BC4BF0020704703F5787CBCF1C5
:10461000FF3F04D06FF0004282EA2100704770B57E
:1046200000F0ECF84992248000207047F2E7000087
:1046300051EA030C17D41CF5801F58BFBCF5801F2E
:1046400000F10680994218BF704708BF904270473A
:1046500007D711F5801F58BF13F5801F19D4994251
:104660007047894270471CF5801F08D5BCF5801F34
:10467000F7D58B4218BF704708BF824270474FF48E
:10468000001C1CEB410F38BF1CEB430F01D28B42C7
:10469000704770B500F0B2F8922449004FF0005115
:1046A0004FF08053FFF730BEDFF848C170B51CEA09
:1046B000111E1EBF1CEA13159EEA0C0F95EA0C0F83
:1046C00000F06F8081EA030423EA4C134EEAD47EA3
:1046D00021EA4C1141F4801143F48013AE44A1FB54
:1046E000024CA0FB0365AEF17F7E361955EB0C053D
:1046F000A1FB034C4CF10003A0FB021C16EB0C06C3
:10470000654153F10003094218BF46F0010613F456
:10471000007F0BD14FEA03314FEA0530340341EA01
:10472000155140EA16506FF003020AE04FEAC32128
:104730004FEAC520F40241EA555140EA56506FF065
:10474000020202EB2E4201EB025585EACE710AD03D
:104750005FEA440C18BF24F0004450F1000041F11E
:10476000000120EAD47040F2FE7C624500D270BDA8
:10477000A84214BF4FF080444FF04044002E08BFC1
:104780000024BEF1806FA8BFA1F1C041BDE8704018
:1047900080F282804FF0000001F1C04101F0004141
:1047A00070479EEA0C0F0CEA131518BF95EA0C0F20
:1047B00006D04FF0000081EA030E0EF0004170BDFC
:1047C00000F01CF88900013E00F007B800F009B8BD
:1047D0004FEA430C5FEA5C5C08D081EA030100F019
:1047E0005BB84FEA410C5FEA5C5CF6D14FF0000029
:1047F000014970470000FF070000F87F0EF1020E2C
:104800002EF0030E5EF8046B364205D4012A43EB0A
:10481000030515F5001F12D8012841EB010C1CF50A
:10482000001F0CD80ED14FEAD17C15F5001F0CEB00
:104830004C0C0CF1020C08BF4CEBD37C04E04FF0A5
:10484000080C01E04FEAD37C0CEB4C0526FA05F688
:1048500006F00706B6F1040C06D20EEB860CBDE896
:1048600070404CF0010C6047DFE80CF0090B0202CD
:104870004FF000414FF00000A1F5002170BD194636
:104880001046012851EB010418BFD4F5001484BF71
:10489000002001F0004170BD0808A0F500114FEAAA
:1048A0003101704753EA010C17D41CF5801F58BF23
:1048B000BCF5801F00F106808B4218BF704708BF0F
:1048C0008242704707D713F5801F58BF11F5801F2C
:1048D00019D48B4270479B4270471CF5801F08D546
:1048E000BCF5801FF7D5994218BF704708BF9042AA
:1048F00070474FF4001C1CEB430F38BF1CEB410FFB
:1049000001D2994270470FB40CBC03BCFFF7C1BE83
:1049100091EA030F10B581F000413FF555AC83F0EB
:10492000004300F009B8000010B591EA030F48BF3A
:1049300083F000433FF548AC841A71EB030C07D2B7
:1049400012198CF0004C43EB0C03001B61EB0C01C3
:10495000DFF8A4E14FEA1154A4EB135C1EEA430F05
:1049600018BF9EEA445F00F0B08023EA6E03524213
:1049700021EA0451C3EB6E0338BF5B1EDCF1200E4D
:1049800025D322FA0CFE10EB0E0043FA0CFE41EB8D
:104990000E01CCF1200E03FA0EFE10EB0E0051F1C9
:1049A0000001CCF1200E29D412FA0EF201EB0451D1
:1049B000BDE8104058BF7047401C1CBFB2F1004F0B
:1049C000704700280CBF491C20F00100704712EB13
:1049D000020E43EB030218BF4FF0010E4EEA4202F3
:1049E000ACF1200CDCF11E0E54D943FA0CFE10EB96
:1049F0000E0051F1FF31CCF11E0ED5D50EF1010E96
:104A000012FA0EFE404141EB010101EB445C5FEA0A
:104A10005C5C10D910EBDE7001EB045138BFBEF1C5
:104A2000004FBDE8104018BF704700280CBF491C5C
:104A300020F00100704730D24FEAD42C11F500115C
:104A400024F400641BD0B1FA81F20B3AA41AA41E1C
:104A5000D2F12003914030FA03F31943904001EB67
:104A6000CC71002C01EB0451BDE81040A8BF704789
:104A700001F1C0414FF0000001F000417047B0FA71
:104A800080F310FA03F100D110BDE41A173C480579
:104A9000C90AE4E701EB045110BD491001EB0451D0
:104AA000BDE810404FEA300002E04FF000017047CF
:104AB0004A0008BF0042F8D0B2F5001F28BF704777
:104AC00001F000414FF0000070479EEA445F07D0BC
:104AD00011EA5E0FBDE8104004BF002100207047BE
:104AE000BDE8104070B5FFF789FE00BF40DFF63E1D
:104AF00083F00041104670470000E0FF43004FEA9A
:104B0000D30C4FEA3C0C43401FBF40070CF16051EF
:104B100013F0FE4F70471CF0006F03D100200CF023
:104B2000004170470CF0004343EA507010B540EA72
:104B3000CC0000F00EF800BF000000924FEA000128
:104B4000FFF7AABE4FF000414FF00000A1F5002191
:104B500070470EF1020E2EF0030E5EF8044B244255
:104B600004D44FEA4102B2F17F4F11D84FEA40031B
:104B7000B3F17F4F0CD80ED14FEAD07CB2F17F4F0A
:104B80000CEB4C0C0CF1020C08BF4CEBD17C04E09C
:104B90004FF0080C01E04FEAD17C0CEB4C0324FAF7
:104BA00003F404F00704B4F1040C06D20EEB840CF9
:104BB000BDE810404CF0010C6047DFE80CF007083E
:104BC00002024FF00040A0F5800010BD08464200F0
:104BD00018BFD2F1807288BF00F0004010BD4FF0C6
:104BE0004070E1EE100A70470004024000140240D9
:104BF000001002400010024000080240000802407D
:104C000000040240000C02400400000800080010EC
:104C10001000200000800001000402400014024047
:104C2000001002400010024000080240000802404C
:104C300000040240000C02400400000800080010BC
:104C4000100020000080000100100240001002400F
:104C5000001002400010024000100240001002400C
:104C600000180240001802400018024000180240DC
:104C70000018024000180240000C0240000C0240E4
:104C8000000C0240000C0240000C024000080240F0
:104C90000008024000000240400020001000080010
:104CA0000400020000400020001000080004000280
:104CB00080001000080002000100000800040080CD
:104CC000001002400010024000100240001002409C
:104CD000001002400010024000180240001802407C
:104CE000001802400018024000180240001802405C
:104CF000000C0240000C0240000C0240000C02407C
:104D0000000C02400008024000080240000002407F
:104D100040002000100008000400020000400020B5
:104D200000100008000400028000100008000200CB
:104D30000100000800040080001002400010024042
:104D4000001002400010024000100240001002401B
:104D500000180240001802400018024000180240EB
:104D60000018024000180240000C0240000C0240F3
:104D7000000C0240000C0240000C024000080240FF
:104D8000000802400000024040002000100008001F
:104D9000040002000040002000100008000400028F
:104DA00080001000080002000100000800040080DC
:104DB00000100240001002400010024000100240AB
:104DC000001002400010024000180240001802408B
:104DD000001802400018024000180240001802406B
:104DE000000C0240000C0240000C0240000C02408B
:104DF000000C02400008024000080240000002408F
:104E000040002000100008000400020000400020C4
:104E100000100008000400028000100008000200DA
:104E20000100000800040080001002400010024051
:104E3000001002400010024000100240001002402A
:104E400000180240001802400018024000180240FA
:104E50000018024000180240000C0240000C024002
:104E6000000C0240000C0240000C0240000802400E
:104E7000000802400000024040002000100008002E
:104E8000040002000040002000100008000400029E
:104E900080001000080002000100000800040080EB
:104EA00000100240001002400010024000100240BA
:104EB000001002400010024000180240001802409A
:104EC000001802400018024000180240001802407A
:104ED000000C0240000C0240000C0240000C02409A
:104EE000000C02400008024000080240000002409E
:104EF00040002000100008000400020000400020D4
:104F000000100008000400028000100008000200E9
:104F10000100000800040080001002400010024060
:104F20000010024000100240001002400010024039
:104F30000018024000180240001802400018024009
:104F40000018024000180240000C0240000C024011
:104F5000000C0240000C0240000C0240000802401D
:104F6000000802400000024040002000100008003D
:104F700004000200004000200010000800040002AD
:104F800080001000080002000100000800040080FA
:104F900000100240001002400010024000100240C9
:104FA00000100240001002400018024000180240A9
:104FB0000018024000180240001802400018024089
:104FC000000C0240000C0240000C0240000C0240A9
:104FD000000C0240000802400008024000000240AD
:104FE00040002000100008000400020000400020E3
:104FF00000100008000400028000100008000200F9
:10500000010000080004008000100240001002406F
:105010000010024000100240001002400010024048
:105020000018024000180240001802400018024018
:105030000018024000180240000C0240000C024020
:10504000000C0240000C0240000C0240000802402C
:10505000000802400000024040002000100008004C
:1050600004000200004000200010000800040002BC
:105070008000100008000200010000080004008009
:105080000000024000000240000002400008024010
:1050900000080240000802400008024000180240D8
:1050A0000018024000180240001802400018024098
:1050B0000018024000180240000C0240000C0240A0
:1050C0000010000800010002000180004000000103
:1050D0008000400020001000080004000080004014
:1050E00000000240000002400000024000080240B0
:1050F0000008024000080240000802400018024078
:105100000018024000180240001802400018024037
:105110000018024000180240000C0240000C02403F
:1051200000100008000100020001800040000001A2
:1051300080004000200010000800040000800040B3
:10514000000002400000024000000240000802404F
:105150000008024000080240000802400018024017
:1051600000180240001802400018024000180240D7
:105170000018024000180240000C0240000C0240DF
:105180000010000800010002000180004000000142
:105190008000400020001000080004000080004053
:1051A00000040240001402400010024000100240BF
:1051B000000802400008024000040240000C0240C7
:1051C000040000080008001010002000008000010A
:1051D0000010024000100240001002400010024087
:1051E0000010024000100240001802400018024067
:1051F0000018024000180240001802400018024047
:10520000000C0240000C0240000C0240000C024066
:10521000000C02400008024000080240000002406A
:1052200040002000100008000400020000400020A0
:1052300000100008000400028000100008000200B6
:10524000010000080004008000100240001002402D
:105250000010024000100240001002400010024006
:1052600000180240001802400018024000180240D6
:105270000018024000180240000C0240000C0240DE
:10528000000C0240000C0240000C024000080240EA
:10529000000802400000024040002000100008000A
:1052A000040002000040002000100008000400027A
:1052B00080001000080002000100000800040080C7
:1052C0000010024000100240001002400010024096
:1052D0000010024000100240001802400018024076
:1052E0000018024000180240001802400018024056
:1052F000000C0240000C0240000C0240000C024076
:10530000000C024000080240000802400000024079
:1053100040002000100008000400020000400020AF
:1053200000100008000400028000100008000200C5
:105330000100000800040080000402400014024044
:105340000010024000100240000802400008024025
:1053500000040240000C0240040000080008001095
:1053600010002000008000010004024000140240F0
:1053700000100240001002400008024000080240F5
:1053800000040240000C0240040000080008001065
:1053900010002000008000010004024000140240C0
:1053A00000100240001002400008024000080240C5
:1053B00000040240000C0240040000080008001035
:1053C0001000200000800001000402400014024090
:1053D0000010024000100240000802400008024095
:1053E00000040240000C0240040000080008001005
:1053F0001000200000800001000402400014024060
:105400000010024000100240000802400008024064
:1054100000040240000C02400400000800080010D4
:10542000100020000080000100C1814001C08041C7
:1054300001C0804100C1814001C0804100C1814064
:1054400000C1814001C0804101C0804100C1814054
:1054500000C1814001C0804100C1814001C0804144
:1054600001C0804100C1814001C0804100C1814034
:1054700000C1814001C0804100C1814001C0804124
:1054800001C0804100C1814000C1814001C0804114
:1054900001C0804100C1814001C0804100C1814004
:1054A00000C1814001C0804101C0804100C18140F4
:1054B00000C1814001C0804100C1814001C08041E4
:1054C00001C0804100C1814000C1814001C08041D4
:1054D00001C0804100C1814001C0804100C18140C4
:1054E00000C1814001C0804100C1814001C08041B4
:1054F00001C0804100C1814001C0804100C18140A4
:1055000000C1814001C0804101C0804100C1814093
:1055100000C1814001C0804100C1814001C0804183
:1055200001C0804100C1814000C0C101C30302C26B
:10553000C60607C705C5C404CC0C0DCD0FCFCE0ED3
:105540000ACACB0BC90908C8D81819D91BDBDA1A43
:105550001EDEDF1FDD1D1CDC14D4D515D71716D6B3
:10556000D21213D311D1D010F03031F133F3F23223
:1055700036F6F737F53534F43CFCFD3DFF3F3EFE93
:10558000FA3A3BFB39F9F83828E8E929EB2B2AEA03
:10559000EE2E2FEF2DEDEC2CE42425E527E7E62673
:1055A00022E2E323E12120E0A06061A163A3A262E3
:1055B00066A6A767A56564A46CACAD6DAF6F6EAE53
:1055C000AA6A6BAB69A9A86878B8B979BB7B7ABAC3
:1055D000BE7E7FBF7DBDBC7CB47475B577B7B67633
:1055E00072B2B373B17170B05090915193535292A3
:1055F00096565797559594549C5C5D9D5F9F9E5E13
:105600005A9A9B5B99595898884849894B8B8A4A82
:105610004E8E8F4F8D4D4C8C4484854587474686F2
:1056200082424383418180400014024000140240C2
:105630000004024000100240000402400004024046
:10564000000C0240000C024000800040000400807A
:105650000040002000100008001402400014024026
:10566000001002400010024000040240000402400A
:10567000000C0240000C02400010002000200040FE
:105680000008001000020004000402400014024060
:1056900000100240001002400008024000080240D2
:1056A00000040240000C0240040000080008001042
:1056B0001000200000800001001002400010024095
:1056C0000010024000100240001002400010024092
:1056D0000018024000180240001802400018024062
:1056E0000018024000180240000C0240000C02406A
:1056F000000C0240000C0240000C02400008024076
:105700000008024000000240400020001000080095
:105710000400020000400020001000080004000205
:105720008000100008000200010000080004008052
:105730000000024000000240000002400008024059
:105740000008024000080240000802400018024021
:1057500000180240001802400018024000180240E1
:105760000018024000180240000C0240000C0240E9
:10577000001000080001000200018000400000014C
:10578000800040002000100008000400008000405D
:1057900000140240001402400010024000100240B9
:1057A0000004024000040240000C0240000C0240D1
:1057B000001000200020004000080010000200043B
:1057C0000014024000140240001002400010024089
:1057D0000004024000040240000C0240000C0240A1
:1057E000001000200020004000080010000200040B
:1057F0000004024000140240001002400010024069
:10580000000802400008024000040240000C024070
:1058100004000008000800101000200000800001B3
:105820000000024000000240000002400008024068
:105830000008024000080240000802400018024030
:1058400000180240001802400018024000180240F0
:105850000018024000180240000C0240000C0240F8
:10586000001000080001000200018000400000015B
:10587000800040002000100008000400008000406C
:105880000000024000000240000002400008024008
:1058900000080240000802400008024000180240D0
:1058A0000018024000180240001802400018024090
:1058B0000018024000180240000C0240000C024098
:1058C00000100008000100020001800040000001FB
:1058D000800040002000100008000400008000400C
:1058E0000000000000000000010203040607080990
:1058F0000000000001020304185900080000002005
:1059000030010000C40100083459000830010020B3
:10591000981D0000200200080110DA0102CBE80304
:1059200002CBD007020114021B0109AE1C29088218
:04593000101324F438
:040000050800018965
:00000001FF
