:020000040800F2
:10000000C81E002069020008131C0008E917000838
:10001000111C0008C3040008AD28000800000000FF
:100020000000000000000000000000009120000817
:10003000C504000800000000151C000893200008FB
:10004000830200088302000883020008830200087C
:10005000830200088302000883020008830200086C
:10006000830200088302000883020008830200085C
:10007000830200088302000883020008830200084C
:10008000830200088302000883020008830200083C
:10009000830200088302000883020008830200082C
:1000A000830200083D210008830200088302000843
:1000B000830200088302000883020008830200080C
:1000C00083020008830200088302000883020008FC
:1000D0008302000825280008692800088302000818
:1000E000830200088302000883020008C923000875
:1000F00083020008830200088302000883020008CC
:1001000083020008830200088302000883020008BB
:1001100083020008D526000899230008B1230008AF
:10012000830200088302000883020008830200089B
:10013000830200088302000883020008830200088B
:10014000830200088302000883020008830200087B
:10015000830200088302000883020008830200086B
:10016000830200088302000883020008830200085B
:1001700083020008830200088302000800000000D8
:10018000830200088302000800F002F800F05CF827
:100190000AA090E8000C82448344AAF10107DA45E2
:1001A00001D100F051F8AFF2090EBAE80F0013F0D8
:1001B000010F18BFFB1A43F001031847FC3B000076
:1001C0001C3C00000A444FF0000C10F8013B13F0F7
:1001D000070408BF10F8014B1D1108BF10F8015BA0
:1001E000641E05D010F8016B641E01F8016BF9D193
:1001F00013F0080F1EBF10F8014BAD1C0C1B09D1EA
:100200006D1E58BF01F801CBFAD505E014F8016B5B
:1002100001F8016B6D1EF9D59142D6D370470000ED
:100220000023002400250026103A28BF78C1FBD8FF
:10023000520728BF30C148BF0B6070471FB503F09D
:100240001EFB1FBD10B510BD00F001F91146FFF7F0
:10025000F5FF02F03DFB00F01FF903B4FFF7F2FFDA
:1002600003BC00F027F9000009488047094800470F
:10027000FEE7FEE7FEE7FEE7FEE7FEE7FEE7FEE756
:10028000FEE7FEE704480549054A064B70470000B3
:100290002D21000889010008C8180020C81E002070
:1002A000C81A0020C81A002053EA020C00F0698026
:1002B0002DE9F04B4FF00006002B1FBFB3FA83F57A
:1002C00003FA05F424FA05F65E4012BF1643B2FAAB
:1002D00082F502FA05F4C5F120051EBF22FA05FCDD
:1002E00044EA0C04203556EA044C4FEA144418BF83
:1002F000641C4FF000084FF00009904271EB030CB2
:1003000039D3002919BFB1FA81F701FA07F6B0FA1B
:1003100080F700FA07F6C7F120071EBF20FA07FC96
:1003200046EA0C062037B6FBF4FCA7EB0507103FA6
:1003300007F01F0BCBF120060CFA0BFB2CFA06F68C
:1003400044BFB3460026202FA4BF5E464FF0000BEB
:100350005BEA060C08BF4FF0010B19EB0B09ABFB76
:10036000027C48EB0608C01B06FB02CC0BFB03CC4F
:1003700071EB0C01C1E70B46024641464846BDE819
:10038000F08B13B54FF000004FF00001AFF3008089
:10039000BDE81C40704710B5203AC0F00B80B1E8B2
:1003A0001850203AA0E81850B1E81850A0E81850AA
:1003B000BFF4F5AF5FEA027C24BFB1E81850A0E8B3
:1003C000185044BF18C918C0BDE810405FEA827CCD
:1003D00024BF51F8043B40F8043B08BF7047D207E4
:1003E00028BF31F8023B48BF11F8012B28BF20F885
:1003F000023B48BF00F8012B70474FF0000200B5E8
:10040000134694469646203922BFA0E80C50A0E837
:100410000C50B1F12001BFF4F7AF090728BFA0E8E5
:100420000C5048BF0CC05DF804EB890028BF40F8B1
:10043000042B08BF704748BF20F8022B11F0804FF3
:1004400018BF00F8012B704770477047704775461A
:1004500000F02CF8AE4605006946534620F0070030
:10046000854618B020B5FFF70DFFBDE820404FF0DE
:1004700000064FF000074FF000084FF0000B21F08E
:100480000701AC46ACE8C009ACE8C009ACE8C0095B
:10049000ACE8C0098D46704710B50446AFF3008044
:1004A0002046BDE81040FFF7D8BE00000048704766
:1004B0006818002001491820ABBEFEE726000200A4
:1004C0007047FEE7704772B6FEE700002DE9F84F6F
:1004D000DFF8BCA10022012503264FF00F090AF125
:1004E000040BAAF1040E00BF0B6805FA02F42340C6
:1004F000A34270D10F7907F00307012F01D0022F1B
:1005000016D187684FEA420806FA08FC27EA0C076A
:10051000D1F80CC00CFA08FC4CEA070CC0F808C073
:100520004768A7430C79C4F3001494403C434460EB
:100530000C79E443A4070AD0C4684FEA420C06FAD7
:100540000CF7BC438F6807FA0CF72743C7600C7998
:1005500004F00304022C12D1D40800EB840CDCF864
:1005600020405707FF0E09FA07F824EA0804D1F8DB
:10057000108008FA07F848EA0408CCF820800468DC
:100580004FEA420C06FA0CF7BC430F7907F0030759
:1005900007FA0CF7274307604C6814F4403F70D00B
:1005A0003C4C276847F480472760246822F0030703
:1005B00004F480440094384C07EB040CDCF8084841
:1005C00097074FEA177809FA08F7BC43334FB84248
:1005D00002D1002724E054E0314FB84201D1012775
:1005E0001EE0304FB84201D1022719E02E4FB84229
:1005F00001D1032714E02D4FB84201D104270FE0A9
:100600002B4FB84201D105270AE02A4FB84201D149
:10061000062705E0284FB84201D1072700E0082748
:1006200007FA08F72743CCF80878DAF8004057466D
:10063000D1F804C09C435FEACC2C00D51C433C603D
:10064000DBF800405F46D1F804C09C435FEA8C2C85
:1006500000D51C433C60DEF800407746D1F804C06A
:100660009C435FEA8C3C00D51C433C60084F083F2C
:100670003C68D1F804C09C435FEACC3C00D51C43E5
:100680003C60521C102AFFF42FAFBDE8F88F000029
:10069000083C014044380240003001400000024064
:1006A0000004024000080240000C0240001002401A
:1006B0000014024000180240001C0240006908407B
:1006C00000D0012070470AB1816170470904FBE73F
:1006D00001488068704700002401002002488168BA
:1006E0000278114481607047240100200B4810B546
:1006F000016841F400710160016841F480610160AA
:10070000016841F480710160032000F07BF80F2044
:1007100000F006F800F024F8002010BD003C024074
:1007200070B50D4D04464FF47A712878B1FBF0F0A6
:100730000A490968B1FBF0F000F016FB48B9102C2B
:1007400007D200222146501E00F03CF800206C60C9
:1007500070BD012070BD0000240100203001002088
:100760000A4808B5016841F480410160006800F45E
:10077000804000900548001F016841F080510160F1
:10078000006800F08050009008BD0000443802402E
:10079000002809DB00F01F02012191404009800080
:1007A00000F1E020C0F880127047002809DB00F05B
:1007B0001F02012191404009800000F1E020C0F8B3
:1007C00000117047F0B40E4B1B680C46C3F30223B4
:1007D000C3F10705042D00D90425191D072901D2ED
:1007E000002300E0DB1E012606FA05F1491E214028
:1007F00099409E40761E16403143F0BC02F057B837
:100800000CED00E0064900F0070208684FF6FF0310
:10081000184040EA0220034A104308607047000075
:100820000CED00E00000FA052DE9F0470E4605004A
:1008300065D0DFF81481D8F80000F7B200F00700A7
:10084000B04207D288F80070D8F8000000F0070026
:10085000B04254D128683D4C810712D5400703D5DA
:10086000206840F4E05020602878000703D5206815
:1008700040F4604020602068A96820F0F000084340
:1008800020602878C0072DD03049686808390128D1
:1008900012D0022813D0032811D009688907002933
:1008A0002DDA216821F0030101432160FFF710FFD9
:1008B000814641F2883A0EE009688903EFE709684A
:1008C0008901ECE7FFF704FFA0EB0901514502D9CC
:1008D0000320BDE8F0872068696800F00C00B0EBE9
:1008E000810FEFD1D8F80010404601F00701B14266
:1008F00007D90770006800F00700B04201D001205E
:10090000E7E72878400705D52068E96820F4E0503B
:10091000084320602878000706D52068296920F45C
:10092000604040EAC100206000F038F82168084AC1
:10093000C1F30311515CC8400649086006480068CD
:10094000FFF7EEFE0020C4E7003C024008380240FA
:10095000A03D00083001002028010020044805497E
:1009600000680968044AC1F38221515CC84070479D
:100970003001002008380240B03D00080448054915
:1009800000680968044AC1F34231515CC8407047AD
:100990003001002008380240B03D0008154810B56D
:1009A000006810F00C02144813D04110042A0FD034
:1009B000082A0ED10F4C241F2268236802F03F0240
:1009C0005B0207D52068C0F38810A0FB010106E098
:1009D000084610BD2168C1F38811A1FB0001002366
:1009E000FFF762FC2168C1F30141491C4900B0FBDB
:1009F000F1F010BD083802400024F4002DE9F84F52
:100A000004006ED02078DFF84C93C007A9F10405EC
:100A10004AD009F104000168C1F38101012908D01D
:100A20000068C0F3810002280AD1D9F80000400212
:100A300006D52868800337D560680028E1D033E008
:100A40006068B0F5803F10D0B0F5A02F286810D0B6
:100A500020F480302860286820F4802028606068B6
:100A6000A8B1FFF735FE06460DE0286840F4803057
:100A7000F4E740F480202860F7E700BFFFF728FE86
:100A8000801B642873D828688003F7D50CE0FFF733
:100A90001FFE064605E000BFFFF71AFE801B642814
:100AA000F0D828688003F7D42078DFF8AC8280077C
:100AB0004FF0000A3ED5A748001D016811F00C0F49
:100AC00008D00068C0F3810002280BD1D9F80000DB
:100AD000400207D42868800716D5E068012800D1B5
:100AE00012E033E1E068B8B10120C8F80000FFF778
:100AF000EFFD064605E000BFFFF7EAFD801B022878
:100B0000C0D828688007F7D52868216920F0F80048
:100B100040EAC10028600DE0C8F800A0FFF7D8FD4A
:100B2000064604E0FFF7D4FD801B02281FD8286882
:100B30008007F7D42078000722D5864F874861695F
:100B4000703771B101210160FFF7C2FD064604E074
:100B5000FFF7BEFD801B022809D838688007F7D54B
:100B60000EE0C0F800A0FFF7B3FD064605E082E006
:100B7000FFF7AEFD801B02287DD838688007F7D4C8
:100B80002078400768D5DFF8CCB100270BF13C0B8B
:100B9000DBF80000C0000BD4DBF8001041F08051FE
:100BA000CBF80010DBF80000012700F08050009027
:100BB0006B4E3068C00510D4306840F480703060EF
:100BC000FFF786FD009005E0FFF782FD0099401ACF
:100BD000022850D83068C005F6D55E4EA0686C3645
:100BE00001280FD00528306810D020F001003060B7
:100BF000306820F004003060A068B8B1FFF768FDED
:100C000000900FE0306840F00100F4E740F004008D
:100C10003060F7E7FFF75CFD0099411A41F2883038
:100C2000814266D830688007F4D50EE0FFF750FDAA
:100C3000009007E0FFF74CFD0099411A41F288301F
:100C4000814256D830688007F4D42FB1DBF8001009
:100C500021F08051CBF80010A069C8B33D49091DAF
:100C60000968C1F3810102294AD00228504607D001
:100C7000C8F8600000E03CE0FFF72AFD04463BE0D6
:100C80004746C8F86000FFF723FD064605E000BFB1
:100C9000FFF71EFD801B02282BD828688001F7D49F
:100CA000D4E907010843A16A2E4A490802EB014131
:100CB000626A41EA8211084394F82C1040EA01610B
:100CC000C9F8001001203866FFF702FD044606E06F
:100CD0003EE000BFFFF7FCFC001B022809D8286893
:100CE0008001F7D534E000BFFFF7F2FC001B0228BB
:100CF00002D90320BDE8F88F28688001F4D427E0EA
:100D00000128F7D0D9F80000E26900F4800191428F
:100D10001CD1226A00F03F01914217D147F6C07101
:100D2000626A0140B1EB821F10D1A26A4FF0FF331B
:100D300000F4403103EB5202B1EB024F06D194F8BC
:100D40002C1000F07060B0EB016F01D00120D1E7F2
:100D50000020CFE70438024000004742800E47429F
:100D6000007000400000FFFF10B5401EB0F1807F12
:100D700001D3012010BD4FF0E02460610F21601706
:100D800001F095FD0020A06107202061002010BD2A
:100D900010B590F83C20012A22D0012280F83C2096
:100DA000CA688C6822F4407222434C6822F4806244
:100DB00022430C6822F4006222430C6922F4805220
:100DC00022434C6922F400522243C969002322F4D1
:100DD00080420A4301684A6480F83C30002010BD1C
:100DE000022010BD70B590F83C20012A32D00124B9
:100DF00080F83C40022280F83D2003685A689D68D4
:100E000022F070060A6832435A60134B02689A4215
:100E100014D0B2F1804F11D0104B9A420ED0104B2B
:100E20009A420BD00F4B9A4208D00F4B9A4205D0F2
:100E30000E4B9A4202D00E4B9A4204D1496825F0DB
:100E400080031943916080F83D40002180F83C10F8
:100E5000084670BD022070BD000001400004004043
:100E600000080040000C0040000401400040014028
:100E70000018004010B50446022249B104290ED0E2
:100E8000082913D094F84500012816D0012010BD80
:100E900094F842000128F9D184F842200FE094F838
:100EA00043000128F2D184F8432008E094F844007C
:100EB0000128EBD184F8442001E084F84520042285
:100EC000206801F002FB2068416C41F4004141645C
:100ED00011492068884214D0B0F1804F11D00F49D9
:100EE00088420ED00E4988420BD00E49884208D065
:100EF0000D49884205D00D49884202D00C498842EC
:100F000004D1816801F00701062903D0016841F08E
:100F100001010160002010BD0000014000040040FC
:100F200000080040000C0040000401400040014067
:100F30000018004070B504460D460068002201F01C
:100F4000C4FA2068036A41F211110B4240F2444294
:100F500006D1036A134203D1436C23F40043436474
:100F60002068036A0B4206D1016A114203D101686D
:100F700021F00101016001203DB1042D08D0082DB0
:100F800009D084F84500002070BD84F84200FAE7DB
:100F900084F84300F7E784F84400F4E710B5040050
:100FA00003D094F83D0010B107E0012010BD0020EF
:100FB00084F83C00204600F01FF8022084F83D0031
:100FC000211D206801F00CFA012084F8460084F805
:100FD0003E0084F83F0084F8400084F8410084F823
:100FE000420084F8430084F8440084F8450084F803
:100FF0003D00002010BD000008B51E4A01681E48D3
:1010000091420ED1016841F0100101600068002298
:1010100000F01000009011463620FFF7D3FB362079
:1010200022E0164A91420ED1016841F02001016090
:101030000068002200F02000009011463720FFF7E2
:10104000C1FB372010E00E4A914211D1016841F0F6
:10105000400101600068002200F04000009011464D
:101060002B20FFF7AFFB2B20BDE80840FFF79DBB0F
:1010700008BD00000010004040380240001400404D
:101080000018004090F83D10012901D00120704760
:10109000022180F83D100168CA6842F00102CA606E
:1010A00000681149884214D0B0F1804F11D00F4927
:1010B00088420ED00E4988420BD00E49884208D093
:1010C0000D49884205D00D49884202D00C4988421A
:1010D00004D1816801F00701062903D0016841F0BD
:1010E0000101016000207047000001400004004041
:1010F00000080040000C0040000401400040014096
:101100000018004070B5044690F83C000025012806
:1011100017D0012684F83C60022084F83D00206846
:10112000826822F0770222F47F42826008685028A9
:1011300038D00DDC20284FD005DC90B3102811D119
:101140004AE0022070BD302846D040280AD13BE05A
:1011500060282FD070280DD0B0F5805F03D0B0F597
:10116000005F12D0012584F83D60002084F83C0027
:10117000284670BDCB68D1E90121206801F0B2F9A1
:101180002068816841F0770109E0CB68D1E901214D
:10119000206801F0A7F92068816841F480418160EE
:1011A000E1E719E0CA684968206801F06FFA502148
:1011B000206806E0CA684968206801F078FA602172
:1011C000206801F099F9CEE7CA684968206801F003
:1011D0005DFA40212068F4E7226801461046F0E7F6
:1011E00070B5044690F83C0000260D4601280FD04B
:1011F000012084F83C006AB1042A1DD0082A2FD0AF
:101200000C2A3FD00126002084F83C00304670BDF7
:10121000022070BD206801F077F92068816941F0F3
:10122000080181612068816921F0040181612068E1
:1012300081692A69114311E0206801F095F920685D
:10124000816941F4006181612068816921F48061D4
:101250008161206881692A6941EA02218161D2E7BE
:10126000206801F0B7F92068C16941F00801C16147
:101270002068C16921F00401C1612068C1692A693F
:10128000114311E0206801F0D9F92068C16941F4E7
:101290000061C1612068C16921F48061C161206879
:1012A000C1692A6941EA0221C161ACE710B50400B5
:1012B00003D094F83D0010B107E0012010BD0020DC
:1012C00084F83C00204600F01FF8022084F83D001E
:1012D000211D206801F084F8012084F8460084F87C
:1012E0003E0084F83F0084F8400084F8410084F810
:1012F000420084F8430084F8440084F8450084F8F0
:101300003D00002010BD0000F0B587B00446142158
:101310006846FFF772F86E496C4B266800246C4DE6
:10132000143902226B484FF0030E9E4211D12B68F4
:1013300043F002032B602B6803F0020305930B6854
:1013400043F001030B60096801F0010105912021C0
:1013500039E0614B0127DFF884C19E421AD1286829
:1013600040F001002860286800F00100059008683E
:1013700040F00200086008680097CDE9012400F001
:101380000200CDE90470694603929CE0FFF79EF8E5
:1013900007B0F0BD4E4B1B1FB6F1804F19D0504F18
:1013A000BE422CD12B6843F480332B602B6803F4AE
:1013B000803305930B6843F001030B60096801F06B
:1013C0000101059104218DE81600CDE9032E69463F
:1013D000DCE71D6845F001051D601B6803F0010393
:1013E00005930B6843F001030B6009680092CDE997
:1013F000012401F00101CDE90471039217E0394D98
:10140000AE4216D11D6845F008051D601B6803F04B
:10141000080305930B6843F001030B60096801F0B2
:101420000101059108218DE8160003920492694696
:10143000ACE72D4F0925BE4211D11E6846F080064B
:101440001E601B6803F0800305930B6843F00103E3
:101450000B60096801F001010591402113E0234F61
:10146000BE4216D11E6846F480761E601B6803F4E7
:10147000807305930B6843F001030B60096801F06A
:101480000101059180218DE81600CDE9032569460B
:101490007CE7174886427FF47BAF186840F0020073
:1014A0001860186800F002000590086840F002001B
:1014B000086008680092CDE9012400F00200CDE93F
:1014C000042069460392604660E700000004014082
:1014D0004438024000000240000001400004024085
:1014E00000400140000C0040001C00400020004073
:1014F0000004004010B50446022249B104290ED070
:10150000082913D094F84100012816D0012010BDFD
:1015100094F83E000128F9D184F83E200FE094F8B9
:101520003F000128F2D184F83F2008E094F8400001
:101530000128EBD184F8402001E084F84120012209
:10154000206800F0B5FF16492068164A884201D08D
:10155000904203D1436C43F40043436420688842C3
:1015600013D0B0F1804F10D00F4988420DD00F49F1
:1015700088420AD00E49884207D0904205D00D49D2
:10158000884202D00C49884204D1816801F00701E9
:10159000062903D0016841F001010160002010BD5F
:1015A0000000014000040140000400400008004029
:1015B000000C0040004001400018004030B50446D7
:1015C0000D460068002200F073FF194B41F2111123
:1015D00020688A10984202D0164B984209D1036ABB
:1015E0000B4206D1036A134203D1436C23F4004338
:1015F00043642068036A0B4206D1016A114203D199
:10160000016821F00101016001203DB1042D08D0E5
:10161000082D09D084F84100002030BD84F83E0038
:10162000FAE784F83F00F7E784F84000F4E70000A9
:10163000000001400004014070B5040004D094F89B
:101640004100002510B106E0012070BD84F8405033
:10165000204600F023F8242084F841002068C16867
:1016600021F40051C160204601F056F8206801695C
:1016700021F4904101612068416921F02A01416112
:101680002068C16841F40051C1606564202084F87D
:10169000410084F842006563002070BD2DE9F041EF
:1016A00086B0044614216846FEF7A7FE4848474B1B
:1016B000226800244649103802250326DFF81481E9
:1016C0009A4233D10A6842F480120A60096801F430
:1016D00080110591016841F004010160016801F089
:1016E00004010591016841F008010160006802AA47
:1016F00000F0080005909814CDE90005082782E85D
:10170000D00069463448FEF7E1FE0420CDE900052B
:1017100002AA694682E8D0004046FEF7D7FE0022C2
:1017200011463520FFF74EF8352026E02B4F0723D2
:10173000BA4227D12649091D0A6842F010020A6000
:10174000096801F010010591016841F00101016093
:101750000068029400F0010005904FF4C060CDE9EC
:101760000005CDE9036369461D48FEF7AFFE002280
:1017700011462520FFF726F82520FFF716F806B0BA
:10178000BDE8F081174FBA42F9D10A6842F400323D
:101790000A60096801F400310591016841F008010F
:1017A00001600068029400F0080005906020CDE917
:1017B0000005CDE9036369464046FEF787FE002237
:1017C00011462620FEF7FEFF2620D6E700500040F7
:1017D00040380240000C0240000802400010014066
:1017E0000000024000440040FEE700002DE9F04FF9
:1017F00087B014216846FEF700FE9E480024016869
:1018000041F010010160016801F0100105910168CB
:1018100041F004010160016801F0040105910168D3
:1018200041F020010160016801F02001059101688B
:1018300041F080010160016801F0800105910168BB
:1018400041F001010160016801F0010105910168A9
:1018500041F002010160016801F002010591016897
:1018600041F040010160016801F04001059101680B
:1018700041F0080101600068002200F008000590B6
:101880004FF47C717C48FEF71EFF49F604060022E7
:1018900031467A48FEF717FF4FF460570022394669
:1018A0007748FEF710FF4FF4F04800224146754894
:1018B000FEF709FF4FF44749002249467248FEF7F8
:1018C00002FF4FF4FE7A002251467048FEF7FBFEFD
:1018D0004FF4C85B002259466D48FEF7F4FE48F20B
:1018E0007E00CDE900040120029069466548FEF7BC
:1018F000EDFD4EF20F000325CDE900056946029487
:101900005D48FEF7E3FD40F2FF70CDE90005694652
:1019100002945B48FEF7DAFDFF20CDE90005694639
:1019200002945B48FEF7D2FD4FF47C7000900120DA
:10193000CDE90104694650480394FEF7C7FD40F223
:10194000FB30CDE90005694602944C48FEF7BEFD28
:1019500001200096CDE90104694648480394FEF74A
:10196000B5FD01200097CDE9010469464448039480
:10197000FEF7ACFDA803CDE9000401200290694602
:101980003F48FEF7A3FD48F20300CDE90005694694
:1019900002943E48FEF79AFD40F28170CDE90005C1
:1019A000694602943748FEF791FD0120CDF800808A
:1019B000CDE90104694633480394FEF787FD4FF4EF
:1019C000C840CDE900040120029069462B48FEF78B
:1019D0007DFD0120CDF80090CDE9010469462A483B
:1019E0000394FEF773FD41F69B00CDE9000401204E
:1019F000029069462448FEF769FD4FF40050CDE996
:101A00000005694602942048FEF760FD0120CDF8EC
:101A100000A0CDE9010469461C480394FEF756FD79
:101A20000120CDF800B0CDE90104694618480394BF
:101A3000FEF74CFD4FF40040CDE900040120029078
:101A400069461348FEF742FDA802CDE900040120D3
:101A5000029069460848FEF739FD4FF4FC40CDE995
:101A600000040120029069460848FEF72FFD07B0E8
:101A7000BDE8F08F30380240000802400004024008
:101A80000014024000100240000C02400018024006
:101A9000000002401FB50021104800910191029101
:101AA0000D4A0391C0E900214FF6FF72C0E902120E
:101AB00001618161FFF772FA08B1FEF704FD4FF48E
:101AC0008050009069460548FFF71CFB002801D0B4
:101AD000FEF7F9FC1FBD000000180040C401002003
:101AE0001CB500240E4800940C490194C0E9001470
:101AF0004FF6FF71C0E902418461FFF74FFA08B168
:101B0000FEF7E1FC0094694605480194FFF76AF985
:101B1000002801D0FEF7D7FC1CBD000000100040DB
:101B2000340100201CB500240E4800940C49019497
:101B3000C0E900144FF6FF71C0E902418461FFF76C
:101B40002DFA08B1FEF7BFFC0094694605480194E0
:101B5000FFF748F9002801D0FEF7B5FC1CBD0000D6
:101B6000001400407C0100200C4810B50A490160B7
:101B70004FF4E1314160002181600C22C160C0E975
:101B800004128161C161FFF757FD002803D0BDE851
:101B90001040FEF798BC10BD005000400C02002021
:101BA0000C4810B50A4901604FF4E1314160002151
:101BB00081600C22C160C0E904128161C161FFF73C
:101BC0003BFD002803D0BDE81040FEF77CBC10BDF3
:101BD00000100140540200200C4810B50A49016071
:101BE0004FF4E1314160002181600C22C160C0E905
:101BF00004128161C161FFF71FFD002803D0BDE819
:101C00001040FEF760BC10BD004400409C02002064
:101C1000FEE7FEE7704700007CB50D46044603462C
:101C200001AA6946284600F04BF8082C3AD2DFE8B2
:101C300004F004070B0F1A1E222E1E4800991DE007
:101C40001C480099483005E01A480099903021E07E
:101C5000194800990268916202680199D16200688E
:101C6000490841631EE013480099D830F2E7124852
:101C700000999038EEE71048009948300268916268
:101C800002680199D1620068490881630AE00A4844
:101C9000009948380268916202680199D16200682F
:101CA000490801640549C4EBC40001EB80004561AB
:101CB0007CBD0000E40200209404002034000020D9
:101CC00010B590B14FF4FA54A04200D92046012B30
:101CD0000DD0032B0BD0062B09D053230B600549E5
:101CE000B1FBF0F0401E106010BD0120EFE7A7230C
:101CF000F4E7000040420F00F0B58FB00C460546F7
:101D00001F4616461C216846FEF777FB202107A8D0
:101D1000FEF773FB6C600024C5E9024680202C614D
:101D2000C5E905402846FFF7C1FAC8B96020CDE9EA
:101D3000000402940394049405943A4669462846A4
:101D40000694FFF74DFA58B90E940B940C940D9429
:101D50000A9407A928460994FFF71AF8002800D02A
:101D600001200FB0F0BDF0B587B00C4605461F4608
:101D700016461C216846FEF740FB6C600024C5E94E
:101D8000024680202C61A8612846FFF78FFA58B9D7
:101D90006020CDE9000402943A466946284604943E
:101DA000FFF71EFA002800D0012007B0F0BD0000A8
:101DB0001CB5044608284CD2034601AA69460120F6
:101DC000FFF77EFF082C44D2DFE804F0040B121961
:101DD0001F262D3820494FF0804004230860084614
:101DE00032E01D491D4848310023086008462BE0B9
:101DF00019491B4890310C230860084624E01A4911
:101E0000184800230860084613E013491748D831E2
:101E100000230860084617E013491548903900234D
:101E20000860084610E01049124848310423086051
:101E30000846DDE90012FFF75FFF1CBD0A490E48A6
:101E400048390C2308600846DDE90012FFF78BFFD4
:101E50001CBD01201CBD0000E40200200040014028
:101E6000000C00400004014094040020001C0040CD
:101E700000200040000001400004004070B5002533
:101E80002C46E0B2FFF794FF08B1012502E0641C84
:101E9000082CF6DB00F086F800B10125284670BD5D
:101EA00010B5082807D24B1EB3F5FA5F03D2531EB4
:101EB000B3F57A6F01D3012010BD0B4CC0EBC0030A
:101EC00000EE101A04EB8304074BB8EE400A303BD7
:101ED000012984ED020A23F8102001D900F006F848
:101EE00001202076002010BD34000020082825D2D3
:101EF000DFE800F004070B0F12161A1F0421104828
:101F00001AE00F480021483016E00D480C219030AF
:101F100012E000210B480AE009480021D8300BE00C
:101F200008480021903807E0064804214830FEF7B1
:101F3000A1BF04480C214838FFF7DCBA01207047E4
:101F4000E402002094040020082825D2DFE800F0F5
:101F500004070B0F12161A1F042110481AE00F482D
:101F60000021483016E00D480C21903012E000218D
:101F70000B480AE009480021D8300BE0084800214E
:101F8000903807E0064804214830FEF7D3BF0448E4
:101F90000C214838FFF712BB01207047E4020020F3
:101FA0009404002038B517480021026842F400323A
:101FB00002600068154C00F4003000901248206068
:101FC000A720C4E9010140F2E730C4E90301802001
:101FD000A0612046FEF7E2FF88B92068C16841F0A1
:101FE0000101C160002201211920FEF7EBFB19203D
:101FF000FEF7DBFB2046FFF745F8002800D0012064
:1020000038BD00004438024000440140240500204F
:10201000D0ED011AB6EE002ADFED1A2A21EE822A4F
:1020200022EE212A82EE013AB4EEC30AF1EE10FA52
:102030000BDD41EE221AC0ED011AF4EEE01AF1EECA
:1020400010FA01DDC0ED010A704710EE101A0E4AB9
:10205000914204DDC2EE000AC0ED030A01E080ED0A
:10206000031A90ED030A40EE621AC0ED011AF5EE74
:10207000C01AF1EE10FAE7D29FED040A80ED010AD2
:10208000704700006F12833A0AD7233C000000001B
:102090007047FEF723BB000030B593B0302168468F
:1020A000FEF7ABF914210CA8FEF7A7F91D4800258F
:1020B000016841F080510160006800F0805011908B
:1020C0001948016841F4804101600068022400F46D
:1020D0008040119001200090000401908001CDE922
:1020E000064008AA0420A82182E813000B90684645
:1020F000FEF784FC08B172B6FEE70CA90F2081E858
:1021000031004FF4A0500F904FF4805010900521F3
:102110000CA8FEF789FB002801D072B6FEE713B0C9
:1021200030BD0000403802400070004002480168A5
:1021300041F470010160704788ED00E02DE9F04F37
:102140008E482DED048B9DB000680169C943C90715
:1021500078D1891E01618A4901F13406086801F1CC
:102160001408401C002501F10409AA469FED858A48
:10217000DFED859A4FF07E57B6EE009A4FF4FA5B8A
:10218000C1F80000C5EBC50006EB8004207E0028E6
:1021900063D0207C28B1607C88B1012811D002284E
:1021A0007DD0D4ED021A94ED000A71EEC08AF5EEEE
:1021B000C08AF1EE10FA7EDBB0EE680A7DE0012005
:1021C000607494ED000A10EE100AB84246DC84ED0B
:1021D000008A84ED018AE8B2FFF7B6FE20226B493F
:1021E00003A8FEF7D8F869480DF1600C2030072DE0
:1021F0000FC88CE80F0009DC18A830F8151003A8E8
:1022000050F82500FEF75AFA012800D000205F4957
:102210000190202230310BA8FEF7BDF85B480DF18C
:102220004C0C5030072D0FC88CE80F000EDC0198C5
:10223000002813A830F815100BA850F8250002D07C
:10224000002201E069E00122FEF73DFA02206074FD
:1022500084F810A0E8B2FFF749FE5AE058F82500CC
:1022600000EE900A39F81500B8EE601A00EE900AF8
:102270002046F8EE600AFFF7CBFE94EC020A00EE6F
:10228000E90A84ED000AB5EEC00AF1EE10FA01D2B7
:1022900084ED008A94ED000A30EE090A01E007E0BF
:1022A00009E0BCEEC00A10EE101A79BB01212DE046
:1022B00084F811A02DE0B1EE680A39F8150000EE9F
:1022C000900A58F8250001EE100A10EE100AF8EEF8
:1022D000600AB8EE411AB0F17C5F23DC11EE900A7F
:1022E000C4ED001A84ED018AB84209DCE8B2FFF7B8
:1022F0002BFE84ED008A84ED018A84F818A008E0A2
:1023000031EE890A32E0594500D95946E8B2FFF763
:1023100083FC6D1C082DFFF635AF1DB0BDEC048BA2
:10232000BDE8F08F2046FFF773FEF5EEC08AF1EEB0
:1023300010FA94EC020A02DD00EEA90A01E000EEB8
:10234000E90A10EE100A84ED000AB84203DAB7EE8B
:10235000000A84ED000A10EE100A0D49884203DDE0
:102360009FED0C0A84ED000A30EE090ABCEEC00AAB
:1023700010EE101A0029C6D198E7000024050020AD
:1023800000000020000000006F12833A8838000827
:102390000000FA450000FA4503496FF001000968A2
:1023A0000861024800F0E6BF340100206C050020FF
:1023B00003496FF0010009680861024800F0DABFC4
:1023C0007C010020C00B002003496FF00100096868
:1023D0000861024800F0CEBFC401002014120020A2
:1023E000F0B50268274B284D284E294F294C4FF055
:1023F000804C984209D0604507D0A84205D0B04231
:1024000003D0B84201D0A04204D122F0700E4A6835
:1024100042EA0E0298421BD0604519D0A84217D05C
:10242000B04215D0B84213D0A04211D01A4DA842E4
:102430000ED01A4DA8420BD0194DA84208D0194D04
:10244000A84205D0184DA84202D0184DA84203D189
:1024500022F44075CA682A434D6922F080022A435B
:102460008D68C5620D688562984201D0A04201D195
:1024700009690163016841F00401016001214161C2
:102480000260F0BD00000140000400400008004070
:10249000000C0040000401400040014000440140A5
:1024A0000048014000180040001C0040002000408F
:1024B00010B501F01F030121046A99408C430462A6
:1024C000016A9A401143016210BD10B501F00F037B
:1024D0000421046A99408C430462016A9A401143C2
:1024E000016210BD10B5846842EA032224F47F44DF
:1024F0000A432243826010BD826822F070020A43C0
:1025000042F0070181607047F0B5036A026A22F069
:102510000102026242688469124E24F073050C685D
:102520002C4323F002058B682B430D4DA84201D0AC
:10253000B04205D123F00807CB683B4323F00403E6
:10254000A84201D0B04205D14D6922F44072154332
:102550008A692A4342608461496841630362F0BD2D
:102560000000014000040140F0B5026A036A23F054
:1025700010030362436884690D6824F4E64444EA66
:1025800005248D6822F0200242EA05120F4D104EFC
:10259000A84201D0B04206D1CF6822F0800242EAC0
:1025A000071222F04002A84201D0B04207D14D6983
:1025B00023F4406343EA85038D6943EA850343605E
:1025C0008461496881630262F0BD0000000001403F
:1025D00000040140F0B5026A036A23F480730362C9
:1025E0004368C46922F4007224F073050C68124E2B
:1025F0002C438D6842EA05220E4DA84201D0B0421C
:1026000006D1CF6822F4006242EA072222F48062F7
:10261000A84201D0B04207D14D6923F4405343EAA8
:1026200005138D6943EA05134360C4614968C163BA
:102630000262F0BD000001400004014030B5046AB0
:10264000026A22F4805202624268C3690D6823F470
:10265000E64343EA05238D6824F4005444EA053434
:10266000084DA84202D0084DA84204D14D6922F479
:10267000804242EA85124260C36149680164046293
:1026800030BD0000000001400004014010B5036AA5
:10269000046A24F001040462846924F0F00444EA2A
:1026A000021423F00A020A438461026210BD10B5CD
:1026B000036A046A24F010040462846923F0A0030E
:1026C00024F4704444EA023243EA01118261016257
:1026D00010BD000010B53520FEF75AF80C4C2068EC
:1026E0000168C943890605D46FF0200101600948DB
:1026F00000F04BFE20680168C943090607D46FF05B
:1027000080010160BDE81040024800F067BE10BDC6
:102710000C0200201412002070B504460068016904
:10272000E26821F44051114301612169A068E26926
:1027300008436169114308432168CA6849F20C6380
:102740009A430243CA6020684169A26921F440713A
:102750001143416131492068884202D030498842A2
:1027600002D1FEF70BF901E0FEF7F8F8E269002369
:10277000192164253226B2F5004F626828D0A0FBEB
:102780000101930F9200FDF78FFD0146B0FBF5F0BC
:102790006FF01802504301EB800006EB0010B0FB15
:1027A000F5F000F0F002B1FBF5F002EB0012B1FB26
:1027B000F5F06FF01803584301EB800006EB0010B2
:1027C000B0FBF5F000F00F0021681044886070BD88
:1027D000A0FB010192185B41FDF766FD0146B0FBCD
:1027E000F5F00201B1FBF5F06FF01803584301EB6F
:1027F000800006EBC000B0FBF5F000F0F80002EB43
:102800004002B1FBF5F0584301EB800006EBC0003D
:10281000B0FBF5F000F00700D6E700000010014023
:102820000014014010B52520FDF7B2FF0C4C2068C4
:102830000168C943890605D46FF020010160094889
:1028400000F0A3FD20680168C943090607D46FF0B2
:1028500080010160BDE81040024800F0BFBD10BD1E
:10286000540200206C05002010B52620FDF790FFD3
:102870000C4C20680168C943890605D46FF020011B
:102880000160094800F081FD20680168C94309061C
:1028900007D46FF080010160BDE81040024800F0ED
:1028A0009DBD10BD9C020020C00B0020FEE7090763
:1028B000090E002804DB00F1E02080F800147047C6
:1028C00000F00F0000F1E02080F8141D70470000B8
:1028D000FDF70CFFFFF7E0FBFEF788FFFFF760F95D
:1028E000FFF742F9FFF778F9FFF7D4F8FFF7F8F8A8
:1028F000FFF718F9174A01204FF4964382F8A20512
:102900000021C2F8A43582F8A315134A82F8A20563
:10291000C2F8A43582F8A315104A82F8A2054FF434
:10292000E130C2F8A40582F8A3150A4800F0F8FACD
:10293000094800F0F5FA094800F0F2FAFFF79EFAAC
:10294000044800F033FC044800F030FC034800F079
:102950002DFCF5E76C050020C00B002014120020B0
:1029600070B5094DFF231A4605F5807606E000BFD5
:1029700010F8014B54402A5D5A40335D491E89B21C
:10298000F6D242EA032070BDE838000830B490F86F
:102990000312052931D008DC012928D0022926D0CC
:1029A000032927D0042906D124E0062928D00F299D
:1029B00029D010292AD0012180F80014447890F8F9
:1029C0000252C11C621C42700B46655490F80312FF
:1029D00041F0800441784A1C4270CC54417890F810
:1029E00000444A1C4270CC5430BC00F0A4BC30BC43
:1029F00000F020BD30BC00F099BD30BC00F0FABD45
:102A000030BC00F042BE30BC00F080BE30BC00F0F4
:102A1000DDBE10B501F0070400EBD101012391F8F0
:102A20000104A3400AB1184300E0984381F801046F
:102A300010BD00002DE9F04F00242DED028BB3B046
:102A40000F460646022A7DD006EB4700A0F8122466
:102A5000AC48864202D0AC48864273D1DFF8ACB2B3
:102A60009FEDAB8AA949202218390CA8FDF793FCE9
:102A70000BF10800D84690E80E00DBF81400CDE911
:102A80001412CDE91630072C09D814A830F8141008
:102A90000CA850F82400FDF711FE012865D0002194
:102AA00004EB840906EB8905B5F8140482468142DB
:102AB0001ED096492022183104A8FDF76CFC08F1BD
:102AC0003800072C90E80E00D8F84400CDE9181221
:102AD000CDE91A300CD818A8BAF1000F30F814104C
:102AE00004A850F8240042D05FF00102FDF7EBFD8E
:102AF00086492022483104A8FDF74DFC08F1680002
:102B0000072C90E80E00D8F87400CDE90C12CDE93E
:102B10000E3009D80CA830F8141004A850F824007E
:102B2000FDF7CCFD012824D05FF00001B5F81604B4
:102B300081420AD07748C4EBC40200EB8200012135
:102B4000017400E0D7E0002141747349B5F81C041A
:102B500051F82420904219D068B14FF47A62904223
:102B60000BD9104641F824200EE0012198E70022FD
:102B7000BCE70121DAE74FF4FA6041F82400B0F530
:102B8000803F01D34FF6FF70A5F81C04634AB5F8E7
:102B90001A0432F81410884209D050B34FF47A6105
:102BA000884200D9084622F81400A5F81A04DFF874
:102BB0007081B5F8180438F81410884210D0D0B1DC
:102BC0004FF4FA51884200D9084628F81400A5F8B5
:102BD000180432F8142038F814102046FFF760F972
:102BE000062101EB4900B8421BD1B5F81E0420B103
:102BF00017E00120D7E70120E7E72046FFF7A4F917
:102C00004448C4EBC402012100EB820028F81410F0
:102C100080ED008A80ED028A80ED018A4161002109
:102C20000176C72F17D1B6F8A005012813D1204689
:102C3000FFF78AF93748C4EBC402012100EB820098
:102C400028F8141080ED008A80ED028A80ED018A58
:102C5000416100210176641CE4B2082CFFF402AF4C
:102C6000002403AD0DF14C0828494022783123A8F7
:102C7000FDF791FB25492022B8311BA8FDF78BFBFE
:102C80000F2C09D81BA830F8141023A850F82400E2
:102C9000FDF714FD012800D0002006EB4401B1F837
:102CA000B274B84214D019494022D83103A8FDF7B4
:102CB00072FB20221B4913A8FDF76DFB0F2C07D8D0
:102CC00038F8141055F82400D7B10122FDF7FBFCA9
:102CD000641CE4B2102CC7D3134A002006EB400159
:102CE000B1F8D21419B102EB4003A3F82814401C28
:102CF000C0B20528F2D333B0BDEC028BBDE8F08F33
:102D00000022E3E76C050020C00B0020683C0008AF
:102D10000000000034000020140000200400002007
:102D200014010020803D00081412002090F80114C6
:102D300041F0010180F80114704700002DE9F04FC7
:102D400005466E480024A9B0854202D06C488542F1
:102D50007ED16C4FDFF8B0A1DFF8B0B1DFF8B08101
:102D600007F18009202267490FA8FDF714FB07F13E
:102D700020000BAE0FC886E80F00072C09D80BA85F
:102D800030F814100FA850F82400FDF797FC012824
:102D900000D0002004EB840105EB81065949A6F818
:102DA00012042022303117A8FDF7F5FA07F150017F
:102DB0000DF10C0C0FC98CE80F00072C09D803A8E3
:102DC00030F8141017A850F82400FDF777FC0128FC
:102DD00000D000204B49A6F81404202260311FA81F
:102DE000FDF7D9FA99E80E00D9F80C00072CCDE9C7
:102DF0000930CDE9071209D807A830F814101FA828
:102E000050F82400FDF75AFC012800D00020A6F855
:102E100016043AF81400A6F818043BF81400A6F8B3
:102E20001A0458F82400B0F5803F01D34FF6FF7024
:102E3000A6F81C04C4EBC4013648641C00EB8100F6
:102E4000E4B2808AA6F81E04082C8BD3002400E08C
:102E500050E001AE15AF2B495022903101A8FDF78B
:102E60009AFA28492822E03115A8FDF794FA132C84
:102E700007D837F8141056F82400FDF71FFC012876
:102E800000D0002005EB4401641CE4B2A1F8E60484
:102E9000142CE0D3002401AE11AF40221E4901A83A
:102EA000FDF779FA1C492022403111A8FDF773FA89
:102EB0000F2C07D837F8141056F82400FDF7FEFB46
:102EC000012800D0002005EB4401641CE4B2A1F805
:102ED000B204102CE1D31149002000BF01EB4002E5
:102EE00005EB4003401CB2F81224C0B2A3F80E2533
:102EF0001028F3D329B0BDE8F08F00006C05002046
:102F0000C00B0020E83A0008140100200400002053
:102F10001400002034000020F03B000814120020B0
:102F20002DE9F0418D49044600F5BC6600F2F455E8
:102F300000F5B56888424AD1262289494046FDF706
:102F40002AFA874FF88CA4F8CE05B86AC4F8D005E1
:102F5000B88DA4F8D405F88DA4F8D605386BC4F85C
:102F6000D805786BC4F8DC05092207F13801304632
:102F700004F21C64FDF70FFA97F8410004F8330CD3
:102F800097F8420004F8320C786C44F8300C75481D
:102F900044F82C0C3D2274492846FDF7FCF9724890
:102FA00010F83D1F61754178A1758178E175C17890
:102FB0002176017961764179A1768179E176C179CD
:102FC0002177017A6177407AA07768489AE068486B
:102FD00084424AD1262267494046FDF7DCF9654F15
:102FE000F88CA4F8CE05B86AC4F8D005B88DA4F85A
:102FF000D405F88DA4F8D605386BC4F8D805786BDD
:10300000C4F8DC05092207F13801304604F21C64DB
:10301000FDF7C1F997F8410004F8330C97F8420026
:1030200004F8320C786C44F8300C534844F82C0CFB
:103030003D2252492846FDF7AEF9504810F83D1F91
:1030400061754178A1758178E175C1782176017942
:1030500061764179A1768179E176C1792177017A2A
:103060006177407AA07746484CE0464884424CD18C
:10307000262245494046FDF78EF9434FF88CA4F8C7
:10308000CE05B86AC4F8D005B88DA4F8D405F88D7B
:10309000A4F8D605386BC4F8D805786BC4F8DC05FD
:1030A000092207F13801304604F21C64FDF773F978
:1030B00097F8410004F8330C97F8420004F8320CFA
:1030C000786C44F8300C314844F82C0C3D223049DF
:1030D0002846FDF760F92E4810F83D1F61754178CC
:1030E000A1758178E175C1782176017961764179A0
:1030F000A1768179E176C1792177017A6177407A89
:10310000A07724482062A4F21C64404694F8A335BA
:10311000D4F8A425D4F8F01500F0E8F82846D4F83F
:10312000A425D4F83C1600F0AFF81B48C4F84006BC
:103130001A48C4F844061A48C4F848061948C4F89E
:103140004C061948C4F85006032020704046BDE8DC
:10315000F0410122002100F0B5B800006C0500200C
:1031600054020020001001403401002000100040F3
:10317000C00B00209C020020004400407C01002085
:1031800000140040141200200C02002000500040E7
:10319000C4010020001800400B3200080332000870
:1031A000C5320008473200081132000870B50178B6
:1031B0000446042908D0002005291AD0062915D173
:1031C00084F80102032010E094F801120625042976
:1031D0000DD304F20220FFF7C3FB40B994F80202BA
:1031E00094F8A215884202D10520207070BD257088
:1031F00070BD607084F800042046BDE87040FFF7A1
:10320000C5BB00684068087070470068416070473F
:1032100001680A6A41F211131A4207D10A6A9B1027
:103220001A4203D10A6822F001020A6002680021F2
:1032300051620168CA6822F00102CA6000686FF03A
:1032400001010161704701680A6A41F211131A42D3
:1032500007D10A6A9B101A4203D10A6822F00102C0
:103260000A6002686FF0010111610168CA6842F0EA
:103270000102CA600268002151620068016841F0E1
:10328000010101607047000010B5016053214160E9
:1032900000218160B2F5964F02D94FF4E16202E05D
:1032A000074BB3FBF2F2C0E903218161FDF776FE23
:1032B000002803D0BDE81040FDF705B910BD00009F
:1032C000A0764B0203680029D96802D041F0800142
:1032D00001E021F08001D9600068C16812B141F0BD
:1032E000200101E021F02001C160704710B5C0E964
:1032F000001200214FF48052012B10D0022B13D06A
:103300008160C16001610C22C0E90521C161FEF745
:1033100093F900280ED0BDE81040FDF7D4B8C0E9FD
:1033200002214FF4C06203E0C0E902214FF4806241
:103330000261E8E710BD10B504460020A07084F8D3
:1033400001026178E01CFFF70BFB6278E11C531C63
:1033500063705054030A6078421C62704354012029
:103360002070014604F5B560D4F84836BDE8104039
:10337000002218470178032906D104210170D0F8F2
:10338000501600F2F4500847704738B50446D0F89C
:103390004426694600F5B5609047237804F2022080
:1033A00004F2F452022B02D0032B12D109E00021C7
:1033B0009DF80050012384F801320D540320207041
:1033C00007E094F801329DF80050591C84F801126E
:1033D0001D54D4F84C161046884738BD10B50178F6
:1033E000044600F5B560012908D0022921D1D4F89E
:1033F00048360122BDE8104000211847A1786278C4
:1034000091420DD1022121700122D4F848360021C9
:10341000984704F2F450D4F84C16BDE81040084721
:10342000E31C4A1CA270C95CD4F84026BDE81040D9
:10343000104710BD2DE9F84304460020009094F891
:103440000102082804D0032084F80004BDE8F883B2
:10345000B4F8040290FA90F9B4F8060246BAF01DE6
:10346000C708E51C5EB309EB0600102827D82046E4
:10347000FFF75CFC0020694601221AE009EB00031B
:1034800004EBD30C03F007039CF801C42CFA03FCF3
:103490005FEACC730BD001EBD00300F0070893F880
:1034A00000C002FA08F84CEA080C83F800C0401C7F
:1034B00080B2B042E2D394F80004D8B102E0022016
:1034C00084F80004607894F80222411C617042552F
:1034D00094F8030240F080026078411C617042550C
:1034E000617894F80024481C60704A552046FFF724
:1034F00022FFABE7627894F80232501C607053559B
:10350000607894F80332421C627043556278501C14
:1035100060705755002006E062780E5C531C6370A3
:10352000401C565580B2B842F6D3DFE72DE9F04192
:10353000044690F80102082802D0032084F8000411
:10354000B4F80402E51C46BAB4F8060247BA4FB113
:10355000F019C82806D82046FFF7F0FB94F80004BD
:10356000E0B102E0022084F80004607894F80222BE
:10357000411C6170425594F8030240F0800260786B
:10358000411C61704255607894F80024411C6170C0
:1035900042552046BDE8F041FFF7CDBE607894F873
:1035A0000222411C61704255607894F80322411C4C
:1035B0006170425561787A00481C60704A5500205D
:1035C00015E000BF04EB4602761CB2F81214B6B246
:1035D0004FEA112C61784B1C637001F805C06178CB
:1035E00092F812344A1C6270401C4B5580B2B842AB
:1035F000E8D3CEE770B5044690F80102032208280C
:1036000001D084F80024B4F8040241BAB4F80602E8
:1036100040BA20B1B0F57F4F01D084F800241029C2
:103620000AD808B1FF2200E000222046FFF7F1F996
:1036300094F80004E8B102E0022084F80004617804
:1036400094F80252E21C4B1C63708D5494F80302F0
:1036500040F080036078411C61708354607894F876
:103660000034411C617083542046BDE87040FFF770
:1036700062BE2118401C91F80222CA706178C0B263
:10368000491C61700628F4D3EEE770B5044690F843
:103690000102082802D0032084F80004B4F80402D0
:1036A00041BAB4F80602C82942BA06D82046FFF744
:1036B000C1F994F80004E8B102E0022084F80004A3
:1036C000617894F80252E21C4B1C63708D5494F89C
:1036D000030240F080036078411C6170835460787D
:1036E00094F80034411C617083542046BDE870405A
:1036F000FFF721BE2118401C91F80222CA706178A0
:1037000080B2491C61700628F4D3EEE72DE9F04140
:10371000044690F8010203210A2801D284F800141B
:10372000B4F8040246BAB4F8060247BA94F808029C
:10373000B0EBD70F01D984F8001400254FF0020830
:1037400019E000BF04EBD500102E90F809020ED846
:1037500005F00701C840C00701D0FF2200E00022A9
:1037600031462046FFF755F9761CB6B201E084F8E1
:1037700000846D1CEDB2BD42E4D394F80004C8B1DE
:10378000637894F80252E21C591C61709D5494F8BD
:10379000030240F080036078411C617083546078BC
:1037A00094F80034411C617083542046BDE8F04118
:1037B000FFF7C1BD2118401C91F80222CA70617840
:1037C000C0B2491C61700628F4D3EEE72DE9F04140
:1037D000044690F8011203200B2901D284F800045A
:1037E000B4F804124DBAB4F806124FBA94F808129D
:1037F000B1EB470F01D084F8000400264FF0020817
:1038000012E000BF04EB4600C82DB0F8090242BA2E
:1038100006D829462046FFF70DF96D1CADB201E030
:1038200084F80084761CF6B2BE42EBD394F8000410
:10383000C8B1617894F80252E21C4B1C63708D543D
:1038400094F8030240F080036078411C6170835457
:10385000607894F80034411C617083542046BDE8C0
:10386000F041FFF768BD2118401C91F80222CA7090
:103870006178C0B2491C61700628F4D3EEE74FF0BE
:103880004070E1EE100A704700040240001402404C
:1038900000100240001002400008024000080240F0
:1038A00000040240000C0240040000080008001060
:1038B00010002000008000010004024000140240BB
:1038C00000100240001002400008024000080240C0
:1038D00000040240000C0240040000080008001030
:1038E000100020000080000100C1814001C0804123
:1038F00001C0804100C1814001C0804100C18140C0
:1039000000C1814001C0804101C0804100C18140AF
:1039100000C1814001C0804100C1814001C080419F
:1039200001C0804100C1814001C0804100C181408F
:1039300000C1814001C0804100C1814001C080417F
:1039400001C0804100C1814000C1814001C080416F
:1039500001C0804100C1814001C0804100C181405F
:1039600000C1814001C0804101C0804100C181404F
:1039700000C1814001C0804100C1814001C080413F
:1039800001C0804100C1814000C1814001C080412F
:1039900001C0804100C1814001C0804100C181401F
:1039A00000C1814001C0804100C1814001C080410F
:1039B00001C0804100C1814001C0804100C18140FF
:1039C00000C1814001C0804101C0804100C18140EF
:1039D00000C1814001C0804100C1814001C08041DF
:1039E00001C0804100C1814000C0C101C30302C2C7
:1039F000C60607C705C5C404CC0C0DCD0FCFCE0E2F
:103A00000ACACB0BC90908C8D81819D91BDBDA1A9E
:103A10001EDEDF1FDD1D1CDC14D4D515D71716D60E
:103A2000D21213D311D1D010F03031F133F3F2327E
:103A300036F6F737F53534F43CFCFD3DFF3F3EFEEE
:103A4000FA3A3BFB39F9F83828E8E929EB2B2AEA5E
:103A5000EE2E2FEF2DEDEC2CE42425E527E7E626CE
:103A600022E2E323E12120E0A06061A163A3A2623E
:103A700066A6A767A56564A46CACAD6DAF6F6EAEAE
:103A8000AA6A6BAB69A9A86878B8B979BB7B7ABA1E
:103A9000BE7E7FBF7DBDBC7CB47475B577B7B6768E
:103AA00072B2B373B17170B05090915193535292FE
:103AB00096565797559594549C5C5D9D5F9F9E5E6E
:103AC0005A9A9B5B99595898884849894B8B8A4ADE
:103AD0004E8E8F4F8D4D4C8C44848545874746864E
:103AE000824243834181804000140240001402401E
:103AF00000040240001002400004024000040240A2
:103B0000000C0240000C02400080004000040080D5
:103B10000040002000100008001402400014024081
:103B20000010024000100240000402400004024065
:103B3000000C0240000C0240001000200020004059
:103B400000080010000200040004024000140240BB
:103B5000001002400010024000080240000802402D
:103B600000040240000C024004000008000800109D
:103B700010002000008000010010024000100240F0
:103B800000100240001002400010024000100240ED
:103B900000180240001802400018024000180240BD
:103BA0000018024000180240000C0240000C0240C5
:103BB000000C0240000C0240000C024000080240D1
:103BC00000080240000002404000200010000800F1
:103BD0000400020000400020001000080004000261
:103BE00080001000080002000100000800040080AE
:103BF00000000240000002400000024000080240B5
:103C0000000802400008024000080240001802407C
:103C1000001802400018024000180240001802403C
:103C20000018024000180240000C0240000C024044
:103C300000100008000100020001800040000001A7
:103C400080004000200010000800040000800040B8
:103C50000014024000140240001002400010024014
:103C60000004024000040240000C0240000C02402C
:103C70000010002000200040000800100002000496
:103C800000140240001402400010024000100240E4
:103C90000004024000040240000C0240000C0240FC
:103CA0000010002000200040000800100002000466
:103CB00000040240001402400010024000100240C4
:103CC000000802400008024000040240000C0240CC
:103CD000040000080008001010002000008000010F
:103CE00000000240000002400000024000080240C4
:103CF000000802400008024000080240001802408C
:103D0000001802400018024000180240001802404B
:103D10000018024000180240000C0240000C024053
:103D200000100008000100020001800040000001B6
:103D300080004000200010000800040000800040C7
:103D40000000024000000240000002400008024063
:103D5000000802400008024000080240001802402B
:103D600000180240001802400018024000180240EB
:103D70000018024000180240000C0240000C0240F3
:103D80000010000800010002000180004000000156
:103D90008000400020001000080004000080004067
:103DA00000000000000000000102030406070809EB
:103DB0000000000001020304D83D000800000020BC
:103DC00034010000C4010008F43D00083401002063
:103DD000941D00002002000841CBE8030223D00715
:103DE000091A040114021B0109AE1CFA0102218206
:043DF000101324F494
:040000050800018965
:00000001FF
