:020000040800F2
:10000000201F002029020008F31B0008A917000880
:10001000D11B0008830400084D35000800000000D3
:100020000000000000000000000000003D2F00085C
:100030008504000800000000F51B00083F2F0008A1
:10004000430200084302000843020008430200087C
:10005000430200084302000843020008430200086C
:10006000430200084302000843020008430200085C
:10007000430200084302000843020008430200084C
:10008000430200084302000843020008430200083C
:10009000430200084302000843020008430200082C
:1000A00043020008E92F0008430200084302000849
:1000B000430200084302000843020008430200080C
:1000C00043020008430200084302000843020008FC
:1000D00043020008C534000809350008430200083F
:1000E0004302000843020008430200086930000888
:1000F00043020008430200084302000843020008CC
:1001000043020008430200084302000843020008BB
:1001100043020008753300083930000851300008E8
:10012000430200084302000843020008430200089B
:10013000430200084302000843020008430200088B
:10014000430200084302000843020008430200087B
:10015000430200084302000843020008430200086B
:10016000430200084302000843020008430200085B
:100170004302000843020008430200080000000098
:10018000430200084302000800F002F800F03CF8C7
:100190000AA090E8000C82448344AAF10107DA45E2
:1001A00001D100F031F8AFF2090EBAE80F0013F0F8
:1001B000010F18BFFB1A43F0010318478C610000C0
:1001C000AC610000103A24BF78C878C1FAD8520751
:1001D00024BF30C830C144BF04680C6070470000C1
:1001E0000023002400250026103A28BF78C1FBD840
:1001F000520728BF30C148BF0B6070471FB504F0DD
:1002000036FF1FBD10B510BD00F001F91146FFF714
:10021000F5FF03F0ADF900F01FF903B4FFF7F2FFAB
:1002200003BC00F027F9000009488047094800474F
:10023000FEE7FEE7FEE7FEE7FEE7FEE7FEE7FEE796
:10024000FEE7FEE704480549054A064B70470000F3
:10025000D92F00088901000820190020201F002044
:10026000201B0020201B002053EA020C00F06980B4
:100270002DE9F04B4FF00006002B1FBFB3FA83F5BA
:1002800003FA05F424FA05F65E4012BF1643B2FAEB
:1002900082F502FA05F4C5F120051EBF22FA05FC1D
:1002A00044EA0C04203556EA044C4FEA144418BFC3
:1002B000641C4FF000084FF00009904271EB030CF2
:1002C00039D3002919BFB1FA81F701FA07F6B0FA5C
:1002D00080F700FA07F6C7F120071EBF20FA07FCD7
:1002E00046EA0C062037B6FBF4FCA7EB0507103FE7
:1002F00007F01F0BCBF120060CFA0BFB2CFA06F6CD
:1003000044BFB3460026202FA4BF5E464FF0000B2B
:100310005BEA060C08BF4FF0010B19EB0B09ABFBB6
:10032000027C48EB0608C01B06FB02CC0BFB03CC8F
:1003300071EB0C01C1E70B46024641464846BDE859
:10034000F08B13B54FF000004FF00001AFF30080C9
:10035000BDE81C40704710B5203AC0F00B80B1E8F2
:100360001850203AA0E81850B1E81850A0E81850EA
:10037000BFF4F5AF5FEA027C24BFB1E81850A0E8F3
:10038000185044BF18C918C0BDE810405FEA827C0D
:1003900024BF51F8043B40F8043B08BF7047D20724
:1003A00028BF31F8023B48BF11F8012B28BF20F8C5
:1003B000023B48BF00F8012B70474FF0000200B528
:1003C000134694469646203922BFA0E80C50A0E878
:1003D0000C50B1F12001BFF4F7AF090728BFA0E826
:1003E0000C5048BF0CC05DF804EB890028BF40F8F2
:1003F000042B08BF704748BF20F8022B11F0804F34
:1004000018BF00F8012B704770477047704775465A
:1004100000F02CF8AE4605006946534620F0070070
:10042000854618B020B5FFF70DFFBDE820404FF01E
:1004300000064FF000074FF000084FF0000B21F0CE
:100440000701AC46ACE8C009ACE8C009ACE8C0099B
:10045000ACE8C0098D46704710B50446AFF3008084
:100460002046BDE81040FFF7D8BE000000487047A6
:10047000BC18002001491820ABBEFEE72600020090
:100480007047FEE7704772B6FEE700002DE9F84FAF
:10049000DFF8BCA10022012503264FF00F090AF165
:1004A000040BAAF1040E00BF0B6805FA02F4234006
:1004B000A34270D10F7907F00307012F01D0022F5B
:1004C00016D187684FEA420806FA08FC27EA0C07AB
:1004D000D1F80CC00CFA08FC4CEA070CC0F808C0B4
:1004E0004768A7430C79C4F3001494403C4344602C
:1004F0000C79E443A4070AD0C4684FEA420C06FA18
:100500000CF7BC438F6807FA0CF72743C7600C79D8
:1005100004F00304022C12D1D40800EB840CDCF8A4
:1005200020405707FF0E09FA07F824EA0804D1F81B
:10053000108008FA07F848EA0408CCF8208004681C
:100540004FEA420C06FA0CF7BC430F7907F0030799
:1005500007FA0CF7274307604C6814F4403F70D04B
:100560003C4C276847F480472760246822F0030743
:1005700004F480440094384C07EB040CDCF8084881
:1005800097074FEA177809FA08F7BC43334FB84288
:1005900002D1002724E054E0314FB84201D10127B5
:1005A0001EE0304FB84201D1022719E02E4FB84269
:1005B00001D1032714E02D4FB84201D104270FE0E9
:1005C0002B4FB84201D105270AE02A4FB84201D18A
:1005D000062705E0284FB84201D1072700E0082789
:1005E00007FA08F72743CCF80878DAF800405746AE
:1005F000D1F804C09C435FEACC2C00D51C433C607E
:10060000DBF800405F46D1F804C09C435FEA8C2CC5
:1006100000D51C433C60DEF800407746D1F804C0AA
:100620009C435FEA8C3C00D51C433C60084F083F6C
:100630003C68D1F804C09C435FEACC3C00D51C4325
:100640003C60521C102AFFF42FAFBDE8F88F000069
:10065000083C0140443802400030014000000240A4
:100660000004024000080240000C0240001002405A
:100670000014024000180240001C024000690840BB
:1006800000D0012070470AB1816170470904FBE77F
:100690000148806870470000180100200248816806
:1006A0000278114481607047180100200B4810B592
:1006B000016841F400710160016841F480610160EA
:1006C000016841F480710160032000F07BF80F2085
:1006D00000F006F800F024F8002010BD003C0240B5
:1006E00070B50D4D04464FF47A712878B1FBF0F0E7
:1006F0000A490968B1FBF0F000F016FB48B9102C6C
:1007000007D200222146501E00F03CF800206C6009
:1007100070BD012070BD00001801002024010020E0
:100720000A4808B5016841F480410160006800F49E
:10073000804000900548001F016841F08051016031
:10074000006800F08050009008BD0000443802406E
:10075000002809DB00F01F020121914040098000C0
:1007600000F1E020C0F880127047002809DB00F09B
:100770001F02012191404009800000F1E020C0F8F3
:1007800000117047F0B40E4B1B680C46C3F30223F4
:10079000C3F10705042D00D90425191D072901D22D
:1007A000002300E0DB1E012606FA05F1491E214068
:1007B00099409E40761E16403143F0BC02F0C7BE01
:1007C0000CED00E0064900F0070208684FF6FF0351
:1007D000184040EA0220034A1043086070470000B6
:1007E0000CED00E00000FA052DE9F0470E4605008B
:1007F00065D0DFF81481D8F80000F7B200F00700E8
:10080000B04207D288F80070D8F8000000F0070066
:10081000B04254D128683D4C810712D5400703D51A
:10082000206840F4E05020602878000703D5206855
:1008300040F4604020602068A96820F0F000084380
:1008400020602878C0072DD0304968680839012811
:1008500012D0022813D0032811D009688907002973
:100860002DDA216821F0030101432160FFF710FF19
:10087000814641F2883A0EE009688903EFE709688A
:100880008901ECE7FFF704FFA0EB0901514502D90C
:100890000320BDE8F0872068696800F00C00B0EB29
:1008A000810FEFD1D8F80010404601F00701B142A6
:1008B00007D90770006800F00700B04201D001209E
:1008C000E7E72878400705D52068E96820F4E0507C
:1008D000084320602878000706D52068296920F49D
:1008E000604040EAC100206000F038F82168084A02
:1008F000C1F30311515CC84006490860064800680E
:10090000FFF7EEFE0020C4E7003C0240083802403A
:1009100030630008240100201C0100200448054920
:1009200000680968044AC1F38221515CC8407047DD
:1009300024010020083802404063000804480549AB
:1009400000680968044AC1F34231515CC8407047ED
:10095000240100200838024040630008154810B503
:10096000006810F00C02144813D04110042A0FD074
:10097000082A0ED10F4C241F2268236802F03F0280
:100980005B0207D52068C0F38810A0FB010106E0D8
:10099000084610BD2168C1F38811A1FB00010023A6
:1009A000FFF762FC2168C1F30141491C4900B0FB1B
:1009B000F1F010BD083802400024F4002DE9F84F92
:1009C00004006ED02078DFF84C93C007A9F104052D
:1009D0004AD009F104000168C1F38101012908D05E
:1009E0000068C0F3810002280AD1D9F80000400253
:1009F00006D52868800337D560680028E1D033E049
:100A00006068B0F5803F10D0B0F5A02F286810D0F6
:100A100020F480302860286820F4802028606068F6
:100A2000A8B1FFF735FE06460DE0286840F4803097
:100A3000F4E740F480202860F7E700BFFFF728FEC6
:100A4000801B642873D828688003F7D50CE0FFF773
:100A50001FFE064605E000BFFFF71AFE801B642854
:100A6000F0D828688003F7D42078DFF8AC828007BC
:100A70004FF0000A3ED5A748001D016811F00C0F89
:100A800008D00068C0F3810002280BD1D9F800001B
:100A9000400207D42868800716D5E068012800D1F5
:100AA00012E033E1E068B8B10120C8F80000FFF7B8
:100AB000EFFD064605E000BFFFF7EAFD801B0228B8
:100AC000C0D828688007F7D52868216920F0F80089
:100AD00040EAC10028600DE0C8F800A0FFF7D8FD8B
:100AE000064604E0FFF7D4FD801B02281FD82868C3
:100AF0008007F7D42078000722D5864F87486169A0
:100B0000703771B101210160FFF7C2FD064604E0B4
:100B1000FFF7BEFD801B022809D838688007F7D58B
:100B20000EE0C0F800A0FFF7B3FD064605E082E046
:100B3000FFF7AEFD801B02287DD838688007F7D408
:100B40002078400768D5DFF8CCB100270BF13C0BCB
:100B5000DBF80000C0000BD4DBF8001041F080513E
:100B6000CBF80010DBF80000012700F08050009067
:100B70006B4E3068C00510D4306840F4807030602F
:100B8000FFF786FD009005E0FFF782FD0099401A0F
:100B9000022850D83068C005F6D55E4EA0686C3685
:100BA00001280FD00528306810D020F001003060F7
:100BB000306820F004003060A068B8B1FFF768FD2D
:100BC00000900FE0306840F00100F4E740F00400CE
:100BD0003060F7E7FFF75CFD0099411A41F2883079
:100BE000814266D830688007F4D50EE0FFF750FDEB
:100BF000009007E0FFF74CFD0099411A41F2883060
:100C0000814256D830688007F4D42FB1DBF8001049
:100C100021F08051CBF80010A069C8B33D49091DEF
:100C20000968C1F3810102294AD00228504607D041
:100C3000C8F8600000E03CE0FFF72AFD04463BE016
:100C40004746C8F86000FFF723FD064605E000BFF1
:100C5000FFF71EFD801B02282BD828688001F7D4DF
:100C6000D4E907010843A16A2E4A490802EB014171
:100C7000626A41EA8211084394F82C1040EA01614B
:100C8000C9F8001001203866FFF702FD044606E0AF
:100C90003EE000BFFFF7FCFC001B022809D82868D3
:100CA0008001F7D534E000BFFFF7F2FC001B0228FB
:100CB00002D90320BDE8F88F28688001F4D427E02A
:100CC0000128F7D0D9F80000E26900F480019142D0
:100CD0001CD1226A00F03F01914217D147F6C07142
:100CE000626A0140B1EB821F10D1A26A4FF0FF335C
:100CF00000F4403103EB5202B1EB024F06D194F8FD
:100D00002C1000F07060B0EB016F01D00120D1E732
:100D10000020CFE70438024000004742800E4742DF
:100D2000007000400000FFFF10B5401EB0F1807F52
:100D300001D3012010BD4FF0E02460610F21601746
:100D400002F005FC0020A06107202061002010BDFA
:100D500010B590F83C20012A22D0012280F83C20D6
:100D6000CA688C6822F4407222434C6822F4806284
:100D700022430C6822F4006222430C6922F4805260
:100D800022434C6922F400522243C969002322F411
:100D900080420A4301684A6480F83C30002010BD5C
:100DA000022010BD70B590F83C20012A32D00124F9
:100DB00080F83C40022280F83D2003685A689D6814
:100DC00022F070060A6832435A60134B02689A4256
:100DD00014D0B2F1804F11D0104B9A420ED0104B6C
:100DE0009A420BD00F4B9A4208D00F4B9A4205D033
:100DF0000E4B9A4202D00E4B9A4204D1496825F01C
:100E000080031943916080F83D40002180F83C1038
:100E1000084670BD022070BD000001400004004083
:100E200000080040000C0040000401400040014068
:100E30000018004010B50446022249B104290ED022
:100E4000082913D094F84500012816D0012010BDC0
:100E500094F842000128F9D184F842200FE094F878
:100E600043000128F2D184F8432008E094F84400BC
:100E70000128EBD184F8442001E084F845200422C5
:100E8000206802F072F92068416C41F4004141642D
:100E900011492068884214D0B0F1804F11D00F4919
:100EA00088420ED00E4988420BD00E49884208D0A5
:100EB0000D49884205D00D49884202D00C4988422C
:100EC00004D1816801F00701062903D0016841F0CF
:100ED00001010160002010BD00000140000400403D
:100EE00000080040000C00400004014000400140A8
:100EF0000018004070B504460D460068002202F05C
:100F000034F92068036A41F211110B4240F2444265
:100F100006D1036A134203D1436C23F400434364B4
:100F20002068036A0B4206D1016A114203D10168AD
:100F300021F00101016001203DB1042D08D0082DF0
:100F400009D084F84500002070BD84F84200FAE71B
:100F500084F84300F7E784F84400F4E710B5040090
:100F600003D094F83D0010B107E0012010BD00202F
:100F700084F83C00204600F01FF8022084F83D0071
:100F8000211D206802F07CF8012084F8460084F8D6
:100F90003E0084F83F0084F8400084F8410084F863
:100FA000420084F8430084F8440084F8450084F843
:100FB0003D00002010BD000008B51E4A01681E4813
:100FC00091420ED1016841F01001016000680022D9
:100FD00000F01000009011463620FFF7D3FB3620BA
:100FE00022E0164A91420ED1016841F020010160D1
:100FF0000068002200F02000009011463720FFF723
:10100000C1FB372010E00E4A914211D1016841F036
:10101000400101600068002200F04000009011468D
:101020002B20FFF7AFFB2B20BDE80840FFF79DBB4F
:1010300008BD00000010004040380240001400408D
:101040000018004090F83D10012901D001207047A0
:10105000022180F83D100168CA6842F00102CA60AE
:1010600000681149884214D0B0F1804F11D00F4967
:1010700088420ED00E4988420BD00E49884208D0D3
:101080000D49884205D00D49884202D00C4988425A
:1010900004D1816801F00701062903D0016841F0FD
:1010A0000101016000207047000001400004004081
:1010B00000080040000C00400004014000400140D6
:1010C0000018004070B5044690F83C000025012847
:1010D00017D0012684F83C60022084F83D00206887
:1010E000826822F0770222F47F42826008685028EA
:1010F00038D00DDC20284FD005DC90B3102811D15A
:101100004AE0022070BD302846D040280AD13BE09A
:1011100060282FD070280DD0B0F5805F03D0B0F5D7
:10112000005F12D0012584F83D60002084F83C0067
:10113000284670BDCB68D1E90121206802F022F871
:101140002068816841F0770109E0CB68D1E901218D
:10115000206802F017F82068816841F480418160BE
:10116000E1E719E0CA684968206802F0DFF8502119
:10117000206806E0CA684968206802F0E8F8602143
:10118000206802F009F8CEE7CA684968206802F0D2
:10119000CDF840212068F4E7226801461046F0E7C8
:1011A00070B5044690F83C0000260D4601280FD08B
:1011B000012084F83C006AB1042A1DD0082A2FD0EF
:1011C0000C2A3FD00126002084F83C00304670BD38
:1011D000022070BD206801F0E7FF2068816941F0BE
:1011E000080181612068816921F004018161206822
:1011F00081692A69114311E0206802F005F820682E
:10120000816941F4006181612068816921F4806114
:101210008161206881692A6941EA02218161D2E7FE
:10122000206802F027F82068C16941F00801C16117
:101230002068C16921F00401C1612068C1692A697F
:10124000114311E0206802F049F82068C16941F4B7
:101250000061C1612068C16921F48061C1612068B9
:10126000C1692A6941EA0221C161ACE710B50400F5
:1012700003D094F83D0010B107E0012010BD00201C
:1012800084F83C00204600F01FF8022084F83D005E
:10129000211D206801F0F4FE012084F8460084F846
:1012A0003E0084F83F0084F8400084F8410084F850
:1012B000420084F8430084F8440084F8450084F830
:1012C0003D00002010BD0000F0B587B00446142199
:1012D0006846FFF772F86E496C4B266800246C4D27
:1012E000143902226B484FF0030E9E4211D12B6835
:1012F00043F002032B602B6803F0020305930B6895
:1013000043F001030B60096801F001010591202100
:1013100039E0614B0127DFF884C19E421AD1286869
:1013200040F001002860286800F00100059008687E
:1013300040F00200086008680097CDE9012400F041
:101340000200CDE90470694603929CE0FFF79EF825
:1013500007B0F0BD4E4B1B1FB6F1804F19D0504F58
:10136000BE422CD12B6843F480332B602B6803F4EE
:10137000803305930B6843F001030B60096801F0AB
:101380000101059104218DE81600CDE9032E69467F
:10139000DCE71D6845F001051D601B6803F00103D3
:1013A00005930B6843F001030B6009680092CDE9D7
:1013B000012401F00101CDE90471039217E0394DD8
:1013C000AE4216D11D6845F008051D601B6803F08C
:1013D000080305930B6843F001030B60096801F0F3
:1013E0000101059108218DE81600039204926946D7
:1013F000ACE72D4F0925BE4211D11E6846F080068C
:101400001E601B6803F0800305930B6843F0010323
:101410000B60096801F001010591402113E0234FA1
:10142000BE4216D11E6846F480761E601B6803F427
:10143000807305930B6843F001030B60096801F0AA
:101440000101059180218DE81600CDE9032569464B
:101450007CE7174886427FF47BAF186840F00200B3
:101460001860186800F002000590086840F002005B
:10147000086008680092CDE9012400F00200CDE97F
:10148000042069460392604660E7000000040140C2
:1014900044380240000002400000014000040240C5
:1014A00000400140000C0040001C004000200040B3
:1014B0000004004010B50446022249B104290ED0B0
:1014C000082913D094F84100012816D0012010BD3E
:1014D00094F83E000128F9D184F83E200FE094F8FA
:1014E0003F000128F2D184F83F2008E094F8400042
:1014F0000128EBD184F8402001E084F8412001224A
:10150000206801F025FE16492068164A884201D05D
:10151000904203D1436C43F4004343642068884203
:1015200013D0B0F1804F10D00F4988420DD00F4931
:1015300088420AD00E49884207D0904205D00D4912
:10154000884202D00C49884204D1816801F0070129
:10155000062903D0016841F001010160002010BD9F
:101560000000014000040140000400400008004069
:10157000000C0040004001400018004030B5044617
:101580000D460068002201F0E3FD194B41F21111F4
:1015900020688A10984202D0164B984209D1036AFB
:1015A0000B4206D1036A134203D1436C23F4004378
:1015B00043642068036A0B4206D1016A114203D1D9
:1015C000016821F00101016001203DB1042D08D026
:1015D000082D09D084F84100002030BD84F83E0079
:1015E000FAE784F83F00F7E784F84000F4E70000EA
:1015F000000001400004014070B5040004D094F8DC
:101600004100002510B106E0012070BD84F8405073
:10161000204600F023F8242084F841002068C168A7
:1016200021F40051C160204601F0C6FE2068016926
:1016300021F4904101612068416921F02A01416152
:101640002068C16841F40051C1606564202084F8BD
:10165000410084F842006563002070BD2DE9F0412F
:1016600086B0044614216846FEF7A7FE4848474B5B
:10167000226800244649103802250326DFF8148129
:101680009A4233D10A6842F480120A60096801F470
:1016900080110591016841F004010160016801F0C9
:1016A00004010591016841F008010160006802AA87
:1016B00000F0080005909814CDE90005082782E89D
:1016C000D00069463448FEF7E1FE0420CDE900056C
:1016D00002AA694682E8D0004046FEF7D7FE002203
:1016E00011463520FFF74EF8352026E02B4F072313
:1016F000BA4227D12649091D0A6842F010020A6041
:10170000096801F010010591016841F001010160D3
:101710000068029400F0010005904FF4C060CDE92C
:101720000005CDE9036369461D48FEF7AFFE0022C0
:1017300011462520FFF726F82520FFF716F806B0FA
:10174000BDE8F081174FBA42F9D10A6842F400327D
:101750000A60096801F400310591016841F008014F
:1017600001600068029400F0080005906020CDE957
:101770000005CDE9036369464046FEF787FE002277
:1017800011462620FEF7FEFF2620D6E70050004037
:1017900040380240000C02400008024000100140A6
:1017A0000000024000440040FEE700002DE9F04F39
:1017B00087B014216846FEF700FE9E4800240168A9
:1017C00041F010010160016801F01001059101680C
:1017D00041F004010160016801F004010591016814
:1017E00041F020010160016801F0200105910168CC
:1017F00041F080010160016801F0800105910168FC
:1018000041F001010160016801F0010105910168E9
:1018100041F002010160016801F0020105910168D7
:1018200041F040010160016801F04001059101684B
:1018300041F0080101600068002200F008000590F6
:101840004FF47C717C48FEF71EFF49F60406002227
:1018500031467A48FEF717FF4FF4605700223946A9
:101860007748FEF710FF4FF4F048002241467548D4
:10187000FEF709FF4FF44749002249467248FEF738
:1018800002FF4FF4FE7A002251467048FEF7FBFE3D
:101890004FF4C85B002259466D48FEF7F4FE48F24B
:1018A0007E00CDE900040120029069466548FEF7FC
:1018B000EDFD4EF20F000325CDE9000569460294C7
:1018C0005D48FEF7E3FD40F2FF70CDE90005694693
:1018D00002945B48FEF7DAFDFF20CDE9000569467A
:1018E00002945B48FEF7D2FD4FF47C70009001201B
:1018F000CDE90104694650480394FEF7C7FD40F264
:10190000FB30CDE90005694602944C48FEF7BEFD68
:1019100001200096CDE90104694648480394FEF78A
:10192000B5FD01200097CDE90104694644480394C0
:10193000FEF7ACFDA803CDE9000401200290694642
:101940003F48FEF7A3FD48F20300CDE900056946D4
:1019500002943E48FEF79AFD40F28170CDE9000501
:10196000694602943748FEF791FD0120CDF80080CA
:10197000CDE90104694633480394FEF787FD4FF42F
:10198000C840CDE900040120029069462B48FEF7CB
:101990007DFD0120CDF80090CDE9010469462A487B
:1019A0000394FEF773FD41F69B00CDE9000401208E
:1019B000029069462448FEF769FD4FF40050CDE9D6
:1019C0000005694602942048FEF760FD0120CDF82D
:1019D00000A0CDE9010469461C480394FEF756FDBA
:1019E0000120CDF800B0CDE9010469461848039400
:1019F000FEF74CFD4FF40040CDE9000401200290B9
:101A000069461348FEF742FDA802CDE90004012013
:101A1000029069460848FEF739FD4FF4FC40CDE9D5
:101A200000040120029069460848FEF72FFD07B028
:101A3000BDE8F08F30380240000802400004024048
:101A40000014024000100240000C02400018024046
:101A5000000002401FB50021104800910191029141
:101A60000D4A0391C0E900214FF6FF72C0E902124E
:101A700001618161FFF772FA08B1FEF704FD4FF4CE
:101A80008050009069460548FFF71CFB002801D0F4
:101A9000FEF7F9FC1FBD000000180040B80100204F
:101AA0001CB500240E4800940C490194C0E90014B0
:101AB0004FF6FF71C0E902418461FFF74FFA08B1A8
:101AC000FEF7E1FC0094694605480194FFF76AF9C6
:101AD000002801D0FEF7D7FC1CBD0000001000401C
:101AE000280100201CB500240E4800940C490194E4
:101AF000C0E900144FF6FF71C0E902418461FFF7AD
:101B00002DFA08B1FEF7BFFC009469460548019420
:101B1000FFF748F9002801D0FEF7B5FC1CBD000016
:101B200000140040700100200C4810B50A49016003
:101B30004FF4E1314160002181600C22C160C0E9B5
:101B400004128161C161FFF757FD002803D0BDE891
:101B50001040FEF798BC10BD00500040000200206D
:101B60000C4810B50A4901604FF4E1314160002191
:101B700081600C22C160C0E904128161C161FFF77C
:101B80003BFD002803D0BDE81040FEF77CBC10BD33
:101B900000100140480200200C4810B50A490160BD
:101BA0004FF4E1314160002181600C22C160C0E945
:101BB00004128161C161FFF71FFD002803D0BDE859
:101BC0001040FEF760BC10BD0044004090020020B1
:101BD000FEE702464FF4FA60022A04D0032A02D03C
:101BE000042A01D0002070470029FCD040F6AC50F8
:101BF0007047FEE77047000070B5254E04468EB072
:101C000056F824002022084446F824004FF47A7144
:101C1000B0FBF1F085B21F4905A8FEF79CFB1D49FA
:101C20000DF1040C2031072C0FC98CE80F0009D8E6
:101C300001A830F8141005A850F82400FEF71EFD86
:101C4000012803D00021022C02D003E00121FAE791
:101C500099B10021002D17D056F824206FF07C0098
:101C6000684302EBC00046F82400094810380029F8
:101C700030F8141003D0294404E00121EAE7A94216
:101C800004D2002120F814100EB070BD491BF9E7F2
:101C9000E8020020F85000087CB50D4604460828EC
:101CA0002CD2034601AA6946284600F0C3F91A4817
:101CB000009900EB04100268126891620168019AB1
:101CC0000968CA628168D1B104291DD00068082959
:101CD0004FEA520100681CD0C0F840100F49C4EB15
:101CE000C40001EB8000042C456103D0032C01D01B
:101CF000022C03D129462046FFF77EFF7CBD0068F9
:101D0000510800684163E9E7006851080068816391
:101D1000E4E7C163E2E700007850000838000020E3
:101D200030B52DED108BB0EE419AF0EE429AB4EE44
:101D3000C90AB0EE61BAF0EE60BAF1EE10FA83B003
:101D400006D99FEDB4ABF5EEC09AF1EE10FA04D8C7
:101D500003B00020BDEC108B30BD10EE100A03F074
:101D600015F941EC180B1BEE900A03F00FF941EC4A
:101D70001E0B19EE100A03F009F941EC1F0B19EEC6
:101D8000900A03F003F941EC1D0B1BEE100A03F05F
:101D9000FDF841EC1C0BB0EE4A9AF0EE6A9A53EC57
:101DA0001C2B51EC1E0B02F08BFE7DD253EC1E2B34
:101DB00051EC1C0B03F000F853EC1D2B02F0F8FC67
:101DC00041EC1B0B9FED950B51EC1D0B53EC102BB5
:101DD00002F0EEFC53EC1B2B02F0AEFE53EC1B2B7F
:101DE00002F0AAFE53EC1B2B02F0A6FE41EC100BF6
:101DF0008DED000B9FED8B0B51EC1E0B53EC102B5C
:101E000002F09AFE53EC1B2B02F096FE53EC1B2BB8
:101E100002F092FE41EC1A0B53EC1B2B51EC180B09
:101E200002F08AFE53EC1A2B02F0C6FF9DED000B68
:101E300053EC102B02F0C0FF41EC1A0B9FED790B15
:101E400051EC1D0B53EC102B02F076FE53EC1B2BC8
:101E500002F072FE53EC1B2B02F06EFE41EC100BF5
:101E600053EC1B2B8DED000B51EC1E0B02F064FEAE
:101E700053EC182B02F094FF9DED000B53EC102B4C
:101E800002F09AFF41EC180BB0EE49BAF0EE69BAD5
:101E900053EC1B2B51EC1A0B02F012FE03D2B0EEE6
:101EA0004BAAF0EE6BAA00E015E053EC1F2B51ECAF
:101EB000180B02F005FE06D89FED5A0B51EC1A0BD9
:101EC00053EC102B9DE053EC1A2B51EC190B02F044
:101ED000BBFB41EC190B9FED53BB51EC1C0B53ECBE
:101EE0001B2B02F029FE0D4645EC100B044653EC6B
:101EF0001C2B51EC100B02F01FFE53EC1D2B02F0BB
:101F000057FC53EC1F2B02F09FFB41EC1A0B51ECDA
:101F1000180B53EC1A2B02F00DFF2AD29FED430B46
:101F200051EC1C0B53EC102B02F006FE41EC1E0B87
:101F300053EC1A2B51EC1A0B02F0FEFD41EC1F0B77
:101F400053EC182B51EC180B02F0F6FD53EC1F2B41
:101F500002F032FF53EC1E2B02F02AFC41EC100B76
:101F600051EC190B53EC102B02F06EFB41EC190BEA
:101F700003E0B0EE48AAF0EE68AA53EC1D2B51EC3A
:101F80001C0B02F015FC9FED250B41EC180B53ECDC
:101F9000102B51EC1D0B02F00BFC53EC182B02F034
:101FA000CBFD53EC182B02F0C7FD53EC182B02F0BD
:101FB000C3FD45EC104B41EC1C0B53EC182B51ECC2
:101FC000100B02F0B9FD53EC182B02F0B5FD41ECFB
:101FD0001D0B53EC182B51EC1A0B02F0ADFD53EC1A
:101FE0001D2B02F0E9FE53EC1C2B02F02DFB41EC03
:101FF000100B51EC190B53EC102B02F025FB53EC9A
:102000001B2B02F021FB03B0BDEC108BBDE8304070
:1020100002F026BD000000000000000000000000EB
:1020200000001840000000000000E03F0000000039
:102030000000004010B590B14FF4FA54A04200D90E
:102040002046012B0DD0032B0BD0062B09D0532398
:102050000B600549B1FBF0F0401E106010BD01207F
:10206000EFE7A723F4E7000040420F0010B5ADF5FD
:10207000227D402260494CA8FEF76DF95E4920227E
:10208000403192A8FEF767F95B49402260315CA8B5
:10209000FEF761F958492022A0319AA8FEF75BF9B2
:1020A000BDF864125A98FEF7E9FA012806D0BDF887
:1020B00086126B98FEF7E2FA01287DD14E49402244
:1020C000C0313CA8FEF747F920224C498AA8FEF708
:1020D00042F9BDF844124A98FEF7D0FA01282BD0F5
:1020E00000244649502220316846FEF734F943491E
:1020F000282270316CA8FEF72EF940495022983101
:1021000014A8FEF728F93D492822E83180A8FEF7F7
:1021100022F950223A4928A8FEF71DF93849282209
:10212000503176A8FEF717F9BDF8BE110798FEF7F3
:10213000A5FA012809D101E00124D2E7BDF8121265
:102140001D98FEF79BFA012800D0F4B9BDF8E811FC
:102150003098FEF793FA012800D00020204314D0D5
:1021600000242749502278314CA8FEF7F4F824497E
:102170002822C83160A8FEF7EEF8BDF8A6115F98D6
:10218000FEF77CFA012804D101E00124E9E7002CE4
:102190002FD01B494022F0314CA8FEF7DCF820225A
:1021A00018495CA8FEF7D7F8BDF88C1100225A98A0
:1021B000FEF769FA402200E01BE012494CA82031EA
:1021C000FEF7C9F80F49202260315CA8FEF7C3F87A
:1021D000BDF88E1100225B98FEF755FA0A490020DF
:1021E000A1F8CE04A1F8D0040849A1F8CE04A1F8C2
:1021F000D0040DF5227D10BD585A0008585B000828
:10220000685C0008985D0008C0050020140C0020E0
:10221000F0B58FB00C4605461F4616461C21684691
:10222000FEF7CBF8202107A8FEF7C7F86C60002462
:10223000C5E9024680202C61C5E905402846FFF724
:1022400015F8C8B96020CDE9000402940394049401
:1022500005943A46694628460694FEF7A1FF58B908
:102260000E940B940C940D940A9407A92846099493
:10227000FEF76EFD002800D001200FB0F0BD000079
:10228000F0B50026ADF5177D15460C460746022829
:102290001AD0032F02D0042F67D13CE050225F49AF
:1022A00079A8FEF758F85D49282250318DA8FEF72D
:1022B00052F8BDF834127998FEF7E0F9012800D001
:1022C0000020204367D04FE05449502278316846BF
:1022D000FEF741F851492822C8313CA8FEF73BF8E7
:1022E0004E495022F03114A8FEF735F828224C4907
:1022F00046A8FEF730F8BDF8F2100198FEF7BEF9D7
:10230000012800D00020204345D0BDF81C111698AC
:1023100026E0ECBB28E042495022283150A8FEF7C5
:102320001AF83F492822783164A8FEF714F83C498E
:102330005022A03128A8FEF70EF839492822F031A2
:102340006EA8FEF708F8BDF89A115598FEF796F9B1
:10235000012800D0002020431DD0BDF8C4112E98C4
:10236000FEF78CF90128D4D1002650222D49684669
:10237000FDF7F1FF2B492822503114A8FDF7EBFFA0
:10238000BDF876101398FEF779F9012805D000E022
:1023900001E0012602E00126E7E7D6B3F8B200F03B
:1023A0005BFA214901209FED210A21F8170085EDF4
:1023B000000A85ED010AB7EE000A85ED020A002445
:1023C0002C7668611A482C7407EB47016C7410F87E
:1023D000112022B100F8114000EB410004711149B5
:1023E000502278316846FDF7B6FF0E492822C831E1
:1023F00014A8FDF7B0FF042F0BD1BDF85A100598B3
:10240000FEF73CF9012804D0094830380481103027
:1024100004610DF5177D3046F0BD0000285100081D
:1024200068520008805300080800002000000000E7
:10243000080300202DE9F04F0446A34900EB4406B1
:102440002DED028B9DB011F8160000283BD09F4A5D
:10245000C4EBC40002EB800501EB4608A1F1300299
:10246000B8F8020032F814204FF0000B871A9FEDE5
:10247000988ADFF858A2AAF1300A40B1A0F57F424D
:10248000FF3A06D1032C04D010B3012621E0022C20
:10249000FAD198F804004FF0010900287DD0002FF0
:1024A00011D1204600F0D8F985ED008A85ED018A2A
:1024B00085F818B08449C5F814902AF8149001F8EA
:1024C00016B088F804B01DB0BDEC028BBDE8F08FEB
:1024D0000026022C00D1002631462046FFF779FB6A
:1024E000074620227B4915A8FDF735FFDFF8E48178
:1024F000072C08F1080808F1180090E80E00D8F839
:102500002400CDE90412CDE9063009D804A830F83A
:10251000141015A850F82400FEF7B0F8012800D0D8
:102520000020B04208D13AF81400B84204D1287E05
:1025300010B1287C0028C6D0204600F08DF96549EE
:10254000202230310CA8FDF706FF08F14800072CC7
:1025500090E80E00D8F85400CDE90812CDE90A3011
:102560000AD80CA808A950F8240031F81410C6B1F4
:102570005FF00102FEF787F885ED008A85ED018A9C
:10258000524885F810B085F811B020382AF8147038
:1025900030F814203946204600E004E000F024F929
:1025A00091E70022E6E7002F03D013DD4FF001068C
:1025B00011E0204600F050F985ED008A85ED018A92
:1025C00085F818B04049C5F814902AF8149001F81D
:1025D00016B078E70026022C01D146B1002631461C
:1025E0002046FFF7F6FA1090287C10B103E0012690
:1025F000F5E7687C10B185F8189064E7354920222A
:1026000060316846FDF7A7FE32480DF12C0C803092
:10261000072C0FC88CE80F0008D80BA830F814104E
:102620005DF82400FEF72AF8012800D00020B0420F
:1026300006D085F8189085F8109085F811B042E71B
:1026400085F81890002F00DA7F4220481F4E10387E
:10265000203E30F814009FED201A00EE100A36F8E4
:102660001400B8EE402A00EE100AF8EE401A95EC7D
:10267000020AFFF755FB002800DA002000F1640190
:102680008F420CD395ED000ADFED140A80EE201A7C
:10269000BDEEC10A10EE101A791A814201DA6425E2
:1026A00000E0109D3AF81410A94292D02AF8145074
:1026B00036F814202946204600F096F8642D88D17B
:1026C00088F80490FFE6000008030020380000208E
:1026D00000000000705400080000C84200007A4466
:1026E000F0B589B0082802D3012009B0F0BD1B491C
:1026F000034601EB00140120D4E900120A6001AA8C
:102700006946FFF797FC207B30B1DDE90012A36832
:102710002068FFF77DFDE8E7DDE900762568A4681D
:102720001C2102A8FDF749FE6F600027C5E902766B
:1027300080202F61A8612846FEF798FD012658B930
:102740006020CDE902070497224602A92846069791
:10275000FEF726FD00B93E463046C6E77850000831
:1027600070B500252C46E0B2FFF7BAFF08B101258D
:1027700002E0641C082CF6DB00F06AFB00B10125C6
:10278000284670BD7CB50C460546082803D214B116
:10279000B4F5FA5F01D901207CBD034601AA694660
:1027A0002046FFF747FC284600F056F80028F3D1F2
:1027B0000B48009900EB051002685160026801990E
:1027C000D1600068FEF752FD0028E5D10549C5EB50
:1027D000C50001EB80004461284600F02BF87CBD69
:1027E000785000083800002010B5082807D24B1E8A
:1027F0004FF4FA54A34202D2531EA34201D3012044
:1028000010BD0B4CC0EBC00300EE101A04EB8304A8
:10281000074BB8EE400A203B012984ED020A23F859
:10282000102001D900F006F801202076002010BD0C
:1028300038000020082801D301207047054901EB2A
:102840000010017B00298168006801D0FEF7F2BA10
:10285000FEF730BE78500008082801D301207047E9
:10286000054901EB0010017B00298168006801D057
:10287000FEF740BBFEF782BE785000082DE9F0411C
:1028800005469549C0EBC50001EB80042DED028B98
:10289000A6B0207E002854D04FF07E589FED8F8A3E
:1028A00020688F4F002640454FF0200254DCA7F1EE
:1028B000100112A8FDF74FFD07F11000B84690E88F
:1028C0000E00F869CDE90612CDE90830072D09D8C8
:1028D00006A830F8151012A850F82500FDF7CEFE16
:1028E000012833D00027207C20B384ED008A84EDBA
:1028F000018A6FB300277A49202220310AA8FDF708
:102900002AFD08F14000072D90E80E00D8F84C0091
:10291000CDE90212CDE904300AD80AA802A950F87C
:10292000250031F81510AFB15FF00102FDF7ABFEE5
:1029300026746674224639462846FFF7A1FC90B3F8
:10294000267426B0BDEC028BBDE8F0810127CAE7F2
:102950000127D0E70022E9E7614916A85031FDF7C9
:10296000FAFC70370DF1480C97E80F008CE80F0067
:10297000072D09D812A830F8151016A850F8250010
:10298000FDF77CFE012817D0002122462846FFF7DC
:1029900077FC0028D5D1207C28B1607C70B101285B
:1029A0000ED002287DD026B02146BDEC028B2846F1
:1029B000BDE8F04100F098B80121E6E7012060741D
:1029C00094ED000A10EE100A40454EDC84ED008ABA
:1029D00084ED018A2846FFF73FFF414920228031DC
:1029E0001EA8FDF7B8FCDFF8F880072D08F1800875
:1029F00008F1200090E80E00D8F82C00CDE906126E
:102A0000CDE9083009D806A830F815101EA850F8EE
:102A10002500FDF733FE01281BD000273049202276
:102A2000B0310AA8FDF797FC08F15000072D90E897
:102A30000E00D8F85C00CDE90330CDE901120DD8C5
:102A40000AA801A950F8250031F815101FB100227D
:102A500002E00127E2E70122FDF715FE0220607483
:102A600026742846FFF7E6FE6BE71B48103830F85F
:102A7000150000EE900A18482038B8EE601A30F8B9
:102A8000150000EE900A2046F8EE600A00F016FAF3
:102A900094EC020A9FED131A00EEC10A84ED000ABD
:102AA00000E016E0B5EEC00AF1EE10FA01D284EDB6
:102AB000008A94ED000AF6EE000A30EE200ABCEE21
:102AC000C00A10EE101A01B901212846FFF7E4F8F8
:102AD00037E7667435E7000038000020000000008A
:102AE000785900086F12833A2DE9F04106462DED22
:102AF000028B0C46D1ED021A91ED000A31EEC08A2C
:102B0000B5EEC08AF1EE10FA02DBB0EE480A01E041
:102B1000B1EE480A3748F6EE008A4FF07E5730F89B
:102B200016004FF4FA5500EE900A32481030F8EED5
:102B3000600A30F8160001EE100A10EE100AB8EE26
:102B4000411AB0F17C5F25DC11EE900A9FED2A8AD4
:102B5000C4ED001A84ED018AB8420CDC3046FFF760
:102B60007BFE84ED008A84ED018A00202076BDEC96
:102B7000028BBDE8F08131EEA80A33E0012102E0CA
:102B8000A94200D92946BDEC028B3046BDE8F04190
:102B9000FFF782B8084600F091F99FED180AB5EEEC
:102BA000C08AF1EE10FAD4EC020A02DD41EE000A0E
:102BB00001E041EE400A10EE900AC4ED000AB8426E
:102BC00003DAB7EE000A84ED000A0D492068884256
:102BD00002DC00EE100A03E09FED0A0A84ED000A11
:102BE00030EE280ABCEEC00A10EE101A0029C7D138
:102BF000C4E7000018000020000000006F12833AB4
:102C00000000FA450000FA452DE9F043874C002703
:102C100001252078DFF81882DFF81892F9B004F166
:102C2000380605287ED2DFE800F003566BBDD300DE
:102C3000402281496846FDF78EFB7F4920224031C2
:102C400010A8FDF788FBBDF8401001220098FDF7A1
:102C50001AFD7949402260316846FDF77CFB7649D0
:102C60002022A03110A8FDF776FBBDF8421001220A
:102C70000198FDF708FD70494022C0316846FDF714
:102C80006AFB20226D4910A8FDF765FBBDF84410D2
:102C900001220298FDF7F7FC68494022203168467E
:102CA000FDF759FB65492022603110A8FDF753FB61
:102CB000BDF84E1001220798FDF7E5FCA8F8C054B6
:102CC000A8F8B654A8F8B454A9F8C054A9F8B65452
:102CD000A9F8B45460E05949202280316846FDF7D4
:102CE0003AFB56487830008E81B20498FDF7C6FC56
:102CF000012851D186F8885006F8805F77704BE044
:102D00004E495022B0316846FDF725FB28224C4938
:102D100050A8FDF720FB4A495022283114A8FDF79E
:102D20001AFB00E03BE04649282278315AA8FDF71B
:102D300012FB43495022A03128A8FDF70CFB404963
:102D40002822F03164A8FDF706FB50223D493CA83B
:102D5000FDF701FB3B49282250316EA8FDF7FBFA35
:102D6000BDF846110398FDF789FC01280DD0BDF888
:102D700070111898FDF782FC012806D0BDF8B61135
:102D80003B98FDF77BFC012806D0BDF8C2114198A5
:102D9000FDF774FC012802D02078401C207079B027
:102DA000BDE8F08396F880000028F8D196F88100FD
:102DB0000028F4D11D484FF4C861083002898A42C6
:102DC000EAD00181103002890420FFF70DFDE3E70E
:102DD0001C49502278316846FDF7BDFA194928226E
:102DE000C83124A8FDF7B7FABDF89A100598FDF789
:102DF00045FC0128D3D014481249402207811030E5
:102E0000F031076114A8FDF7A6FA20220F492EA879
:102E1000FDF7A1FABDF8C61000221B98FDF733FCA0
:102E2000A8F8C074A9F8C074B6E70000000000203C
:102E3000C0050020140C00200055000800560008B2
:102E40000057000818580008D80200204859000808
:102E500038B517480021026842F400320260006869
:102E6000154C00F40030009012482060A720C4E9FF
:102E7000010140F2E730C4E903018020A06120464F
:102E8000FEF76CF888B92068C16841F00101C160A3
:102E9000002201211920FDF775FC1920FDF765FCC2
:102EA0002046FEF7CFF8002800D0012038BD0000F2
:102EB000443802400044014038030020D0ED011A9C
:102EC000B6EE002ADFED1A2A21EE822A22EE212A0E
:102ED00082EE013AB4EEC30AF1EE10FA0BDD41EED8
:102EE000221AC0ED011AF4EEE01AF1EE10FA01DD3B
:102EF000C0ED010A704710EE101A0E4A914204DD2F
:102F0000C2EE000AC0ED030A01E080ED031A90ED65
:102F1000030A40EE621AC0ED011AF5EEC01AF1EE96
:102F200010FAE7D29FED040A80ED010A7047000015
:102F30006F12833A0AD7233C000000007047FDF768
:102F4000ADBB000030B593B030216846FDF735FACF
:102F500014210CA8FDF731FA1D480025016841F045
:102F600080510160006800F080501190194801689C
:102F700041F4804101600068022400F48040119017
:102F800001200090000401908001CDE9064008AACC
:102F90000420A82182E813000B906846FDF70EFD7F
:102FA00008B172B6FEE70CA90F2081E831004FF49A
:102FB000A0500F904FF48050109005210CA8FDF701
:102FC00013FC002801D072B6FEE713B030BD00003C
:102FD00040380240007000400248016841F470012E
:102FE0000160704788ED00E0114810B50068016984
:102FF000C943C9071BD1891E01610E484168491C9C
:1030000000244160E0B2FFF739FC641C082CF9DBB6
:103010000420FFF70FFA0320FFF70CFA0220FFF756
:1030200009FAFFF7F1FDBDE81040FFF71FB810BD2A
:10303000380300200000002003496FF001000968F8
:103040000861024801F07AB828010020C00500207C
:1030500003496FF0010009680861024801F06EB889
:1030600070010020140C002003496FF00100096872
:103070000861024801F062B8B8010020681200201F
:10308000F0B50268274B284D284E294F294C4FF0A8
:10309000804C984209D0604507D0A84205D0B04284
:1030A00003D0B84201D0A04204D122F0700E4A6889
:1030B00042EA0E0298421BD0604519D0A84217D0B0
:1030C000B04215D0B84213D0A04211D01A4DA84238
:1030D0000ED01A4DA8420BD0194DA84208D0194D58
:1030E000A84205D0184DA84202D0184DA84203D1DD
:1030F00022F44075CA682A434D6922F080022A43AF
:103100008D68C5620D688562984201D0A04201D1E8
:1031100009690163016841F0040101600121416115
:103120000260F0BD000001400004004000080040C3
:10313000000C0040000401400040014000440140F8
:103140000048014000180040001C004000200040E2
:1031500010B501F01F030121046A99408C430462F9
:10316000016A9A401143016210BD10B501F00F03CE
:103170000421046A99408C430462016A9A40114315
:10318000016210BD10B5846842EA032224F47F4432
:103190000A432243826010BD826822F070020A4313
:1031A00042F0070181607047F0B5036A026A22F0BD
:1031B0000102026242688469124E24F073050C68B1
:1031C0002C4323F002058B682B430D4DA84201D000
:1031D000B04205D123F00807CB683B4323F004033A
:1031E000A84201D0B04205D14D6922F44072154386
:1031F0008A692A4342608461496841630362F0BD81
:103200000000014000040140F0B5026A036A23F0A7
:1032100010030362436884690D6824F4E64444EAB9
:1032200005248D6822F0200242EA05120F4D104E4F
:10323000A84201D0B04206D1CF6822F0800242EA13
:10324000071222F04002A84201D0B04207D14D69D6
:1032500023F4406343EA85038D6943EA85034360B1
:103260008461496881630262F0BD00000000014092
:1032700000040140F0B5026A036A23F4807303621C
:103280004368C46922F4007224F073050C68124E7E
:103290002C438D6842EA05220E4DA84201D0B0426F
:1032A00006D1CF6822F4006242EA072222F480624B
:1032B000A84201D0B04207D14D6923F4405343EAFC
:1032C00005138D6943EA05134360C4614968C1630E
:1032D0000262F0BD000001400004014030B5046A04
:1032E000026A22F4805202624268C3690D6823F4C4
:1032F000E64343EA05238D6824F4005444EA053488
:10330000084DA84202D0084DA84204D14D6922F4CC
:10331000804242EA85124260C361496801640462E6
:1033200030BD0000000001400004014010B5036AF8
:10333000046A24F001040462846924F0F00444EA7D
:10334000021423F00A020A438461026210BD10B520
:10335000036A046A24F010040462846923F0A00361
:1033600024F4704444EA023243EA011182610162AA
:1033700010BD000010B53520FDF7EAF90C4C2068AF
:103380000168C943890605D46FF02001016009482E
:1033900000F0DFFE20680168C943090607D46FF01A
:1033A00080010160BDE81040024800F0FBBE10BD86
:1033B000000200206812002070B504460068016910
:1033C000E26821F44051114301612169A068E2697A
:1033D00008436169114308432168CA6849F20C63D4
:1033E0009A430243CA6020684169A26921F440718E
:1033F0001143416131492068884202D030498842F6
:1034000002D1FDF79BFA01E0FDF788FAE26900239B
:10341000192164253226B2F5004F626828D0A0FB3E
:103420000101930F9200FCF71FFF0146B0FBF5F07E
:103430006FF01802504301EB800006EB0010B0FB68
:10344000F5F000F0F002B1FBF5F002EB0012B1FB79
:10345000F5F06FF01803584301EB800006EB001005
:10346000B0FBF5F000F00F0021681044886070BDDB
:10347000A0FB010192185B41FCF7F6FE0146B0FB90
:10348000F5F00201B1FBF5F06FF01803584301EBC2
:10349000800006EBC000B0FBF5F000F0F80002EB96
:1034A0004002B1FBF5F0584301EB800006EBC00091
:1034B000B0FBF5F000F00700D6E700000010014077
:1034C0000014014010B52520FDF742F90C4C20688E
:1034D0000168C943890605D46FF0200101600948DD
:1034E00000F037FE20680168C943090607D46FF071
:1034F00080010160BDE81040024800F053BE10BDDD
:1035000048020020C005002010B52620FDF720F954
:103510000C4C20680168C943890605D46FF020016E
:103520000160094800F015FE20680168C9430906DA
:1035300007D46FF080010160BDE81040024800F040
:1035400031BE10BD90020020140C0020FEE70907D8
:10355000090E002804DB00F1E02080F80014704719
:1035600000F00F0000F1E02080F8141D704700000B
:10357000FDF79CF8FFF7E6FCFEF718F9FEF7F0FA06
:10358000FEF7D2FAFEF708FBFEF764FAFEF788FAB8
:10359000FEF7A8FA1B4B01204FF4E13183F8A20596
:1035A0000022C3F8A41583F8A325174B83F8A205BE
:1035B000C3F8A41583F8A325144B83F8A205C3F818
:1035C000A41583F8A3250F4800F08EFB0E4800F0E9
:1035D0008BFB0E4800F088FBFFF7C2F8094800F0AB
:1035E00085FA094800F082FA084800F07FFA054899
:1035F00000F0C0FC044800F0BDFC044800F0BAFC38
:10360000F5E70000C0050020140C0020681200201F
:1036100070B5094DFF231A4605F5807606E000BF18
:1036200010F8014B54402A5D5A40335D491E89B25F
:10363000F6D242EA032070BD185E000830B490F85C
:103640000312052931D008DC012928D0022926D00F
:10365000032927D0042906D124E0062928D00F29E0
:1036600029D010292AD0012180F80014447890F83C
:103670000252C11C621C42700B46655490F8031242
:1036800041F0800441784A1C4270CC54417890F853
:1036900000444A1C4270CC5430BC00F030BD30BCF9
:1036A00000F0ACBD30BC00F025BE30BC00F086BEE2
:1036B00030BC00F0CEBE30BC00F00CBF30BC00F01F
:1036C00069BF10B501F0070400EBD101012391F8A7
:1036D0000104A3400AB1184300E0984381F80104B3
:1036E00010BD00002DE9F04F00242DED028BB3B08A
:1036F0000F460546022A2AD0EB480078052826D135
:1037000005EB4700A0F81224E848854202D0E848BB
:1037100085421CD1E7484FF000084FF00109C42F43
:1037200022D0C52F18D0C62F0AD09FEDE38A00BF44
:10373000E04804EB440110F8110000287DD11DE0A1
:10374000B5F89E15418380F8189080F81C8033B03E
:10375000BDEC028BBDE8F08FB5F89C15818280F836
:10376000129080F81680F2E7D44989889142EED011
:10377000C28180F80C9080F81080E8E72022D049C0
:103780000CA8FCF7E8FDDFF838B319AE0BF1180B05
:103790000BF10801072C91E80D00DBF814101C91C7
:1037A00086E80D0009D819A830F814100CA850F8B4
:1037B0002400FCF763FF01287ED0002104EB840A7B
:1037C00005EB8A06B6F81404019081421ED0BC496C
:1037D0002022303104A8FCF7BEFD0BF13800072C85
:1037E00090E80E00DBF84400CDE91412CDE9163064
:1037F0000CD80198002814A830F8141004A850F828
:10380000240076D05FF00102FCF73DFFAC49202296
:10381000603108A8FCF79FFD0BF16800072C90E8C9
:103820000E00DBF87400CDE90412CDE906300BD8A8
:1038300004A830F8141008A800E0C1E050F82400F3
:10384000FCF71CFF012800D00020B6F816148842AF
:1038500008D09C48C4EBC40200EB820080F81090B2
:1038600080F81180984AB6F81C0432F81410884287
:103870000ED0E8B343F69821884200D9084622F8D2
:103880001400B0F5803F01D34FF6FF70A6F81C047A
:103890008E49B6F81A0431F81420904209D048B382
:1038A0004FF4FA52904200D9104621F81400A6F8BD
:1038B0001A04B6F8180400E049E0DFF814B23BF847
:1038C0001420904210D0E0B34FF4FA52904200D945
:1038D00010462BF81400A6F8180431F814203BF811
:1038E00014102046FEF780FF062101EB4A0002E09B
:1038F00031E02EE032E0B84226D1B6F81E647EB345
:10390000012E21D94FF4FA50864200D9064631469D
:103910002046FEF737FF00EE106A6A48C4EBC40188
:10392000B8EE400A00EB810080ED000A00EE106A5C
:10393000B8EE400A80ED020A80ED018A80F8188016
:1039400000E00EE02BF81460C72F21D038E00121F1
:1039500034E7002258E74FF4FA6090E70120A4E72B
:1039600001E00120B5E72046FEF776FF5548C4EB9D
:10397000C40200EB82002BF8149080ED008A80EDE9
:10398000028A80ED018AC0F8149080F81880DBE785
:10399000B5F8A005012813D12046FEF75DFF494880
:1039A000C4EBC40200EB82002BF8149080ED008A77
:1039B00080ED028A80ED018AC0F8149080F81880AA
:1039C000641CE4B2082CFFF4B3AE002401AE0DF188
:1039D00044081BE00E2C19D1B5F8CE04012815D1EE
:1039E00037494022903119A8FCF7B5FC3449202210
:1039F000D03129A8FCF7AFFCB5F8D004BDF8C2104F
:103A0000002828984AD00122FCF73DFE2C4940228C
:103A1000F03119A8FCF79FFC20222E4929A8FCF7B9
:103A20009AFC0F2C09D829A830F8141019A850F8BE
:103A30002400FCF723FE012832D0002105EB4400CE
:103A4000B0F8B274B94215D022494022203101A801
:103A5000FCF781FC1F492022603111A8FCF77BFC98
:103A60000F2C07D838F8141056F82400D7B10122CB
:103A7000FCF709FE641CE4B2102CABD3164A0020FC
:103A800005EB4001B1F8D21419B102EB4003A3F8E1
:103A90002814401CC0B20528F2D358E60022B3E730
:103AA0000121CBE70022E3E700000020C005002051
:103AB000140C00200803002000000000D8020020A1
:103AC0008061000838000020280000201800002035
:103AD00008000020B06200086812002090F801146D
:103AE00041F0010180F80114704700002DE9F04F0A
:103AF000054672480024A9B0854202D0704885422C
:103B00007ED1704FDFF8C091DFF8C0A1DFF8C0B1FF
:103B100007F1800820226B490EA8FCF71CFC07F176
:103B200020000AAE0FC886E80F00072C09D80AA8A3
:103B300030F814100EA850F82400FCF79FFD01285F
:103B400000D0002004EB840105EB81065D49A6F856
:103B500012042022303116A8FCF7FDFB07F15001BA
:103B60000DF1080C0FC98CE80F00072C09D802A82A
:103B700030F8141016A850F82400FCF77FFD012837
:103B800000D000204F49A6F81404202260311EA85E
:103B9000FCF7E1FB98E80E00D8F80C00CDE906121E
:103BA000CDE90830072C09D806A830F814101EA853
:103BB00050F82400FCF762FD012800D00020A6F890
:103BC000160439F81400A6F818043AF81400A6F8F8
:103BD0001A043BF81400A6F81C04C4EBC4013D48C9
:103BE000641C00EB8100E4B2808AA6F81E04082C55
:103BF00090D3002401AE15AF32495022903100E03D
:103C000058E001A8FCF7A7FB2E492822E03115A8AF
:103C1000FCF7A1FB132C07D837F8141056F8240032
:103C2000FCF72CFD012800D0002005EB4401641CAA
:103C3000E4B2A1F8E604142CDED3002401AE11AFE7
:103C40004022254901A8FCF786FB23492022403168
:103C500011A8FCF780FB0F2C07D837F8141056F882
:103C60002400FCF70BFD012800D0002005EB4401E7
:103C7000641CE4B2A1F8B204102CE1D3174900206F
:103C800001EB400205EB4003401CB2F81224C0B225
:103C9000A3F80E251028F3D311480189A5F81A15A9
:103CA000C188A5F81E158088A5F820050D48007864
:103CB000A5F81C0529B0BDE8F08F0000C005002064
:103CC000140C0020186000080800002018000020D4
:103CD0002800002038000020206100086812002021
:103CE000D8020020000000202DE9F0418D49044653
:103CF00000F5BC6600F2F45500F5B56888424AD17B
:103D0000262289494046FCF726FB874FF88CA4F809
:103D1000CE05B86AC4F8D005B88DA4F8D405F88DDE
:103D2000A4F8D605386BC4F8D805786BC4F8DC0560
:103D3000092207F13801304604F21C64FCF70BFB42
:103D400097F8410004F8330C97F8420004F8320C5D
:103D5000786C44F8300C754844F82C0C3D227449BA
:103D60002846FCF7F8FA724810F83D1F6175417853
:103D7000A1758178E175C178217601796176417903
:103D8000A1768179E176C1792177017A6177407AEC
:103D9000A07768489AE0684884424AD12622674959
:103DA0004046FCF7D8FA654FF88CA4F8CE05B86AFF
:103DB000C4F8D005B88DA4F8D405F88DA4F8D605BC
:103DC000386BC4F8D805786BC4F8DC05092207F114
:103DD0003801304604F21C64FCF7BDFA97F8410044
:103DE00004F8330C97F8420004F8320C786C44F86D
:103DF000300C534844F82C0C3D2252492846FCF71D
:103E0000AAFA504810F83D1F61754178A175817874
:103E1000E175C1782176017961764179A176817960
:103E2000E176C1792177017A6177407AA0774648B7
:103E30004CE0464884424CD1262245494046FCF796
:103E40008AFA434FF88CA4F8CE05B86AC4F8D005B6
:103E5000B88DA4F8D405F88DA4F8D605386BC4F84D
:103E6000D805786BC4F8DC05092207F13801304623
:103E700004F21C64FCF76FFA97F8410004F8330C65
:103E800097F8420004F8320C786C44F8300C314852
:103E900044F82C0C3D2230492846FCF75CFA2E48A9
:103EA00010F83D1F61754178A1758178E175C17881
:103EB0002176017961764179A1768179E176C179BE
:103EC0002177017A6177407AA07724482062A4F2B2
:103ED0001C64404694F8A335D4F8A425D4F8F01512
:103EE00000F0E8F82846D4F8A425D4F83C1600F0F1
:103EF000AFF81B48C4F840061A48C4F844061A48EC
:103F0000C4F848061948C4F84C061948C4F85006C5
:103F1000032020704046BDE8F0410122002100F05E
:103F2000B5B80000C0050020480200200010014084
:103F30002801002000100040140C002090020020F6
:103F4000004400407001002000140040681200206E
:103F50000002002000500040B8010020001800407E
:103F6000D33F0008CB3F00088D4000080F400008F9
:103F7000D93F000870B501780446042908D0002014
:103F800005291AD0062915D184F80102032010E072
:103F900094F80112062504290DD304F20220FFF73C
:103FA00037FB40B994F8020294F8A215884202D176
:103FB0000520207070BD257070BD607084F800040D
:103FC0002046BDE87040FFF739BB006840680870C4
:103FD000704700684160704701680A6A41F2111336
:103FE0001A4207D10A6A9B101A4203D10A6822F0CA
:103FF00001020A600268002151620168CA6822F069
:104000000102CA6000686FF0010101617047016838
:104010000A6A41F211131A4207D10A6A9B101A4226
:1040200003D10A6822F001020A6002686FF0010100
:1040300011610168CA6842F00102CA600268002189
:1040400051620068016841F00101016070470000A1
:1040500010B501605321416000218160B2F5964F97
:1040600002D94FF4E16202E0074BB3FBF2F2C0E980
:1040700003218161FCF772FF002803D0BDE81040E6
:10408000FCF701BA10BD0000A0764B0203680029BE
:10409000D96802D041F0800101E021F08001D960AF
:1040A0000068C16812B141F0200101E021F0200157
:1040B000C160704710B5C0E9001200214FF4805272
:1040C000012B10D0022B13D08160C16001610C2242
:1040D000C0E90521C161FDF78FFA00280ED0BDE8C7
:1040E0001040FCF7D0B9C0E902214FF4C06203E0F0
:1040F000C0E902214FF480620261E8E710BD10B50B
:1041000004460020A07084F801026178E01CFFF7EB
:104110007FFA6278E11C531C63705054030A607884
:10412000421C6270435401202070014604F5B560C2
:10413000D4F84836BDE8104000221847017803291A
:1041400006D104210170D0F8501600F2F45008474F
:10415000704738B50446D0F84426694600F5B56086
:104160009047237804F2022004F2F452022B02D08A
:10417000032B12D109E000219DF80050012384F89F
:1041800001320D540320207007E094F801329DF8AD
:104190000050591C84F801121D54D4F84C161046D6
:1041A000884738BD10B50178044600F5B56001298F
:1041B00008D0022921D1D4F848360122BDE81040A8
:1041C00000211847A178627891420DD10221217017
:1041D0000122D4F848360021984704F2F450D4F86C
:1041E0004C16BDE810400847E31C4A1CA270C95C8D
:1041F000D4F84026BDE81040104710BD2DE9F84323
:1042000004460020009094F80102082804D00320FE
:1042100084F80004BDE8F883B4F8040290FA90F939
:10422000B4F8060246BAF01DC708E51C5EB309EBF8
:104230000600102827D82046FFF750FC00206946CA
:1042400001221AE009EB000304EBD30C03F007038F
:104250009CF801C42CFA03FC5FEACC730BD001EB91
:10426000D00300F0070893F800C002FA08F84CEAFF
:10427000080C83F800C0401C80B2B042E2D394F82E
:104280000004D8B102E0022084F80004607894F8B9
:104290000222411C6170425594F8030240F08002F2
:1042A0006078411C61704255617894F80024481C84
:1042B00060704A552046FFF722FFABE7627894F81A
:1042C0000232501C60705355607894F80332421CDF
:1042D000627043556278501C60705755002006E0AC
:1042E00062780E5C531C6370401C565580B2B84215
:1042F000F6D3DFE72DE9F041044690F801020828E3
:1043000002D0032084F80004B4F80402E51C46BA85
:10431000B4F8060247BA4FB1F019C82806D82046AB
:10432000FFF7E4FB94F80004E0B102E0022084F817
:104330000004607894F80222411C6170425594F8A0
:10434000030240F080026078411C61704255607841
:1043500094F80024411C617042552046BDE8F041AC
:10436000FFF7CDBE607894F80222411C617042557F
:10437000607894F80322411C6170425561787A009C
:10438000481C60704A55002015E000BF04EB46024F
:10439000761CB2F81214B6B24FEA112C61784B1C9D
:1043A000637001F805C0617892F812344A1C62709B
:1043B000401C4B5580B2B842E8D3CEE770B50446F6
:1043C00090F801020322082801D084F80024B4F8F0
:1043D000040241BAB4F8060240BA20B1B0F57F4FEA
:1043E00001D084F8002410290AD808B1FF2200E087
:1043F00000222046FFF765F994F80004E8B102E0D6
:10440000022084F80004617894F80252E21C4B1CEC
:1044100063708D5494F8030240F080036078411C6F
:1044200061708354607894F80034411C6170835447
:104430002046BDE87040FFF762BE2118401C91F88D
:104440000222CA706178C0B2491C61700628F4D398
:10445000EEE770B5044690F80102082802D0032068
:1044600084F80004B4F8040241BAB4F80602C8297A
:1044700042BA06D82046FFF735F994F80004E8B1AF
:1044800002E0022084F80004617894F80252E21CF1
:104490004B1C63708D5494F8030240F080036078E5
:1044A000411C61708354607894F80034411C617041
:1044B00083542046BDE87040FFF721BE2118401C00
:1044C00091F80222CA70617880B2491C6170062896
:1044D000F4D3EEE72DE9F041044690F80102032100
:1044E0000A2801D284F80014B4F8040246BAB4F8D9
:1044F000060247BA94F80802B0EBD70F01D984F846
:10450000001400254FF0020819E000BF04EBD500AD
:10451000102E90F809020ED805F00701C840C00718
:1045200001D0FF2200E0002231462046FFF7C9F803
:10453000761CB6B201E084F800846D1CEDB2BD4279
:10454000E4D394F80004C8B1637894F80252E21CF2
:10455000591C61709D5494F8030240F08003607808
:10456000411C61708354607894F80034411C617080
:1045700083542046BDE8F041FFF7C1BD2118401C1F
:1045800091F80222CA706178C0B2491C6170062895
:10459000F4D3EEE72DE9F041044690F80112032030
:1045A0000B2901D284F80004B4F804124DBAB4F80F
:1045B00006124FBA94F80812B1EB470F01D084F8F5
:1045C000000400264FF0020812E000BF04EB460092
:1045D000C82DB0F8090242BA06D829462046FFF78E
:1045E00081F86D1CADB201E084F80084761CF6B24F
:1045F000BE42EBD394F80004C8B1617894F802523B
:10460000E21C4B1C63708D5494F8030240F080034D
:104610006078411C61708354607894F80034411CC8
:10462000617083542046BDE8F041FFF768BD211852
:10463000401C91F80222CA706178C0B2491C6170B6
:104640000628F4D3EEE7000010B591EA030F48BF47
:1046500083F0004300F1B883841A71EB030C05D298
:10466000121943EB0C03001B61EB0C01DFF824E192
:104670004FEA1154A4EB135C1EEA430F18BF9EEAE5
:10468000445F73D023EA0E03DCF1200E21EA0451CB
:1046900043F4801332D322FA0CFE10EB0E0023FAFF
:1046A0000CFE41EB0E01CCF1200E03FA0EFE10EBD6
:1046B0000E0051F10001B1F5801FCCF1200E32D275
:1046C00001EB045112FA0EF2BDE8104058BF7047DA
:1046D000401C38BF5FEA420218BF7047002814BF71
:1046E00020F0010041F100014FEA410313F5001FE2
:1046F00038BF7047A1F1C04100F016BB012A43EB5F
:104700000302ACF1200CDCF11F0E32BF4FF0000EA3
:1047100023FA0CF310EB030041EB0451B4EB115FEF
:10472000D0D0A1EB045101F5801149085FEA3000B7
:1047300001EB04510ED350F1000038BF12FA0EFE07
:1047400008D1BDE81040C9E7401C38BF5FEA42020B
:10475000CAD1C3E7BDE810404FEA410313F5001F7B
:1047600038BF7047A1F1C04100F0DEBA9EEA445F55
:1047700008D011EA5E0FBDE8104004BF01F000410F
:1047800000207047BDE8104070B500F07FFA00BF10
:1047900064FBBE3E0000E0FF491058BFC1F140413C
:1047A0005B1058BFC3F140438B42EFF3008070476A
:1047B0002DE9C04130B4DFF8A0C23CEA111418BFA3
:1047C0003CEA131400F0EC8081EA03051CEA1114A2
:1047D00044EAD57418BF1CEA131500F0C780A4EB97
:1047E00005044FF0004545EAC12145EAC32341EAEB
:1047F000505143EA525304F17F74994204F5003456
:104800004FEAC0204FEAC22208BF904200F09C80CD
:104810004FEA13650FF24016765D4FEA134506FB2B
:1048200005F7C7F1807706FB07F74FEAD737A7FBF5
:1048300003687642C8F58038A7FB06CE38BFA8F1DA
:10484000010807FB08E64FF0000EA6FB028CE6FB12
:1048500003CEDCF1000CCEF1004E38BFAEF1010EFC
:10486000A6FB0C584FF000074FF00005E6FB0E8743
:10487000A1FB08C6A0FB07CE16EB0E0645F100050E
:10488000E1FB076515F1E04E7EBFA4F580345FEAD9
:1048900046066D4116F1800745F100054FEA1727DE
:1048A0004FEA066647EA0567A6F1DE46B6F1805F85
:1048B0004FEA15251FD9384624F0010C05EBC471C9
:1048C000BCF1FE6F01EB0C1102D8F0BCBDE8008119
:1048D00024425CBF01F5801E9EEAC47F02D4F0BC76
:1048E000BDE80081244238D4F0BCA1F1C041BDE84C
:1048F000004100F019BA4FEAD22242EA43524FEA8D
:10490000D323A7FB02864FEAD02040EA415007FBA1
:1049100003661EEA0E0F4FEAD12105FB026658BF5F
:10492000A6EB0056B6EB00564FEA520E4EEAC37E97
:1049300018EB0E0E56EB530EBDD518EB02085E4178
:104940007F1C55F10005B6E74FF480154FF00007C6
:104950004FF000064FF00008ADE7F0BC4FF000004C
:1049600001F1C04101F00041BDE8008111EA0C1FD6
:104970000CEA131500D00CE013EA0C1F00F02580A0
:104980004FF00000F0BC81EA030101F00041BDE8F6
:104990000081F0BCBDE8004181EA030100F0C4B928
:1049A000F0BCBDE8004170B500F070F9097EFC3E36
:1049B00000F007B881EA03014FF0000001F0004168
:1049C000704781EA030100F0AFB9F0BCBDE80041D7
:1049D0004FF0000021497047FFFDFBF9F7F5F4F2B5
:1049E000F0EEEDEBE9E8E6E4E3E1E0DEDDDBDAD88A
:1049F000D7D5D4D3D1D0CFCDCCCBCAC8C7C6C5C4E8
:104A0000C2C1C0BFBEBDBCBBBAB9B8B7B6B5B4B3FE
:104A1000B2B1B0AFAEADACABAAA9A8A8A7A6A5A4E9
:104A2000A3A3A2A1A09F9F9E9D9C9C9B9A999998AD
:104A30009797969595949393929191908F8F8E8E50
:104A40008D8C8C8B8B8A89898888878786858584DD
:104A500084838382828181800000FF070000F87FC9
:104A60004FEA41034FEA5353A3F58063D3F11E038A
:104A7000C8BFD3F1210C0CDD4FF0004242EAC12245
:104A800042EA505232FA03FC8CEAE17CACEBE17072
:104A90007047102BC4BF0020704703F5787CBCF131
:104AA000FF3F04D06FF0004282EA2100704770B5EA
:104AB00000F0ECF84992248000207047F2E70000F3
:104AC00051EA030C17D41CF5801F58BFBCF5801F9A
:104AD00000F10680994218BF704708BF90427047A6
:104AE00007D711F5801F58BF13F5801F19D49942BD
:104AF0007047894270471CF5801F08D5BCF5801FA0
:104B0000F7D58B4218BF704708BF824270474FF4F9
:104B1000001C1CEB410F38BF1CEB430F01D28B4232
:104B2000704770B500F0B2F8922449004FF0005180
:104B30004FF08053FFF730BEDFF848C170B51CEA74
:104B4000111E1EBF1CEA13159EEA0C0F95EA0C0FEE
:104B500000F06F8081EA030423EA4C134EEAD47E0E
:104B600021EA4C1141F4801143F48013AE44A1FBBF
:104B7000024CA0FB0365AEF17F7E361955EB0C05A8
:104B8000A1FB034C4CF10003A0FB021C16EB0C062E
:104B9000654153F10003094218BF46F0010613F4C2
:104BA000007F0BD14FEA03314FEA0530340341EA6D
:104BB000155140EA16506FF003020AE04FEAC32194
:104BC0004FEAC520F40241EA555140EA56506FF0D1
:104BD000020202EB2E4201EB025585EACE710AD0A9
:104BE0005FEA440C18BF24F0004450F1000041F18A
:104BF000000120EAD47040F2FE7C624500D270BD14
:104C0000A84214BF4FF080444FF04044002E08BF2C
:104C10000024BEF1806FA8BFA1F1C041BDE8704083
:104C200080F282804FF0000001F1C04101F00041AC
:104C300070479EEA0C0F0CEA131518BF95EA0C0F8B
:104C400006D04FF0000081EA030E0EF0004170BD67
:104C500000F01CF88900013E00F007B800F009B828
:104C60004FEA430C5FEA5C5C08D081EA030100F084
:104C70005BB84FEA410C5FEA5C5CF6D14FF0000094
:104C8000014970470000FF070000F87F0EF1020E97
:104C90002EF0030E5EF8046B364205D4012A43EB76
:104CA000030515F5001F12D8012841EB010C1CF576
:104CB000001F0CD80ED14FEAD17C15F5001F0CEB6C
:104CC0004C0C0CF1020C08BF4CEBD37C04E04FF011
:104CD000080C01E04FEAD37C0CEB4C0526FA05F6F4
:104CE00006F00706B6F1040C06D20EEB860CBDE802
:104CF00070404CF0010C6047DFE80CF0090B020239
:104D00004FF000414FF00000A1F5002170BD1946A1
:104D10001046012851EB010418BFD4F5001484BFDC
:104D2000002001F0004170BD0808A0F500114FEA15
:104D30003101704753EA010C17D41CF5801F58BF8E
:104D4000BCF5801F00F106808B4218BF704708BF7A
:104D50008242704707D713F5801F58BF11F5801F97
:104D600019D48B4270479B4270471CF5801F08D5B1
:104D7000BCF5801FF7D5994218BF704708BF904215
:104D800070474FF4001C1CEB430F38BF1CEB410F66
:104D900001D2994270470FB40CBC03BCFFF7C1BEEF
:104DA00091EA030F10B581F000413FF555AC83F057
:104DB000004300F009B8000010B591EA030F48BFA6
:104DC00083F000433FF548AC841A71EB030C07D223
:104DD00012198CF0004C43EB0C03001B61EB0C012F
:104DE000DFF8A4E14FEA1154A4EB135C1EEA430F71
:104DF00018BF9EEA445F00F0B08023EA6E0352427F
:104E000021EA0451C3EB6E0338BF5B1EDCF1200EB8
:104E100025D322FA0CFE10EB0E0043FA0CFE41EBF8
:104E20000E01CCF1200E03FA0EFE10EB0E0051F134
:104E30000001CCF1200E29D412FA0EF201EB04513C
:104E4000BDE8104058BF7047401C1CBFB2F1004F76
:104E5000704700280CBF491C20F00100704712EB7E
:104E6000020E43EB030218BF4FF0010E4EEA42025E
:104E7000ACF1200CDCF11E0E54D943FA0CFE10EB01
:104E80000E0051F1FF31CCF11E0ED5D50EF1010E01
:104E900012FA0EFE404141EB010101EB445C5FEA76
:104EA0005C5C10D910EBDE7001EB045138BFBEF131
:104EB000004FBDE8104018BF704700280CBF491CC8
:104EC00020F00100704730D24FEAD42C11F50011C8
:104ED00024F400641BD0B1FA81F20B3AA41AA41E88
:104EE000D2F12003914030FA03F31943904001EBD3
:104EF000CC71002C01EB0451BDE81040A8BF7047F5
:104F000001F1C0414FF0000001F000417047B0FADC
:104F100080F310FA03F100D110BDE41A173C4805E4
:104F2000C90AE4E701EB045110BD491001EB04513B
:104F3000BDE810404FEA300002E04FF0000170473A
:104F40004A0008BF0042F8D0B2F5001F28BF7047E2
:104F500001F000414FF0000070479EEA445F07D027
:104F600011EA5E0FBDE8104004BF00210020704729
:104F7000BDE8104070B5FFF789FE00BF40DFF63E88
:104F800083F00041104670470000E0FF43004FEA05
:104F9000D30C4FEA3C0C43401FBF40070CF160515B
:104FA00013F0FE4F70471CF0006F03D100200CF08F
:104FB000004170470CF0004343EA507010B540EADE
:104FC000CC0000F00EF800BF000000924FEA000194
:104FD000FFF7AABE4FF000414FF00000A1F50021FD
:104FE00070470EF1020E2EF0030E5EF8044B2442C1
:104FF00004D44FEA4102B2F17F4F11D84FEA400387
:10500000B3F17F4F0CD80ED14FEAD07CB2F17F4F75
:105010000CEB4C0C0CF1020C08BF4CEBD17C04E007
:105020004FF0080C01E04FEAD17C0CEB4C0324FA62
:1050300003F404F00704B4F1040C06D20EEB840C64
:10504000BDE810404CF0010C6047DFE80CF00708A9
:1050500002024FF00040A0F5800010BD084642005B
:1050600018BFD2F1807288BF00F0004010BD4FF031
:105070004070E1EE100A70478003002000000040FD
:105080000400000000000000C803002000400140B0
:10509000000000000000000010040020000C004090
:1050A0000C0000000000000030050020000401405A
:1050B000000000000100000058040020001C004017
:1050C0000000000000000000A004002000200040BC
:1050D00000000000000000007805002000000140F2
:1050E0000400000001000000E8040020000400406B
:1050F0000C00000000000000000402400014024008
:105100000010024000100240000802400008024067
:1051100000040240000C02400400000800080010D7
:10512000100020000080000100100240001002402A
:105130000010024000100240001002400010024027
:1051400000180240001802400018024000180240F7
:105150000018024000180240000C0240000C0240FF
:10516000000C0240000C0240000C0240000802400B
:10517000000802400000024040002000100008002B
:10518000040002000040002000100008000400029B
:1051900080001000080002000100000800040080E8
:1051A00000100240001002400010024000100240B7
:1051B0000010024000100240001802400018024097
:1051C0000018024000180240001802400018024077
:1051D000000C0240000C0240000C0240000C024097
:1051E000000C02400008024000080240000002409B
:1051F00040002000100008000400020000400020D1
:1052000000100008000400028000100008000200E6
:10521000010000080004008000100240001002405D
:105220000010024000100240001002400010024036
:105230000018024000180240001802400018024006
:105240000018024000180240000C0240000C02400E
:10525000000C0240000C0240000C0240000802401A
:10526000000802400000024040002000100008003A
:1052700004000200004000200010000800040002AA
:1052800080001000080002000100000800040080F7
:1052900000100240001002400010024000100240C6
:1052A00000100240001002400018024000180240A6
:1052B0000018024000180240001802400018024086
:1052C000000C0240000C0240000C0240000C0240A6
:1052D000000C0240000802400008024000000240AA
:1052E00040002000100008000400020000400020E0
:1052F00000100008000400028000100008000200F6
:10530000010000080004008000100240001002406C
:105310000010024000100240001002400010024045
:105320000018024000180240001802400018024015
:105330000018024000180240000C0240000C02401D
:10534000000C0240000C0240000C02400008024029
:105350000008024000000240400020001000080049
:1053600004000200004000200010000800040002B9
:105370008000100008000200010000080004008006
:1053800000100240001002400010024000100240D5
:1053900000100240001002400018024000180240B5
:1053A0000018024000180240001802400018024095
:1053B000000C0240000C0240000C0240000C0240B5
:1053C000000C0240000802400008024000000240B9
:1053D00040002000100008000400020000400020EF
:1053E0000010000800040002800010000800020005
:1053F000010000080004008000100240001002407C
:105400000010024000100240001002400010024054
:105410000018024000180240001802400018024024
:105420000018024000180240000C0240000C02402C
:10543000000C0240000C0240000C02400008024038
:105440000008024000000240400020001000080058
:1054500004000200004000200010000800040002C8
:105460008000100008000200010000080004008015
:1054700000040240001402400010024000100240EC
:10548000000802400008024000040240000C0240F4
:105490000400000800080010100020000080000137
:1054A00000040240001402400010024000100240BC
:1054B000000802400008024000040240000C0240C4
:1054C0000400000800080010100020000080000107
:1054D000000402400014024000100240001002408C
:1054E000000802400008024000040240000C024094
:1054F00004000008000800101000200000800001D7
:10550000000002400000024000000240000802408B
:105510000008024000080240000802400018024053
:105520000018024000180240001802400018024013
:105530000018024000180240000C0240000C02401B
:10554000001000080001000200018000400000017E
:10555000800040002000100008000400008000408F
:10556000000002400000024000000240000802402B
:1055700000080240000802400008024000180240F3
:1055800000180240001802400018024000180240B3
:105590000018024000180240000C0240000C0240BB
:1055A000001000080001000200018000400000011E
:1055B000800040002000100008000400008000402F
:1055C00000000240000002400000024000080240CB
:1055D0000008024000080240000802400018024093
:1055E0000018024000180240001802400018024053
:1055F0000018024000180240000C0240000C02405B
:1056000000100008000100020001800040000001BD
:1056100080004000200010000800040000800040CE
:10562000000002400000024000000240000802406A
:105630000008024000080240000802400018024032
:1056400000180240001802400018024000180240F2
:105650000018024000180240000C0240000C0240FA
:10566000001000080001000200018000400000015D
:10567000800040002000100008000400008000406E
:1056800000040240001402400010024000100240DA
:10569000000802400008024000040240000C0240E2
:1056A0000400000800080010100020000080000125
:1056B00000100240001002400010024000100240A2
:1056C0000010024000100240001802400018024082
:1056D0000018024000180240001802400018024062
:1056E000000C0240000C0240000C0240000C024082
:1056F000000C024000080240000802400000024086
:1057000040002000100008000400020000400020BB
:1057100000100008000400028000100008000200D1
:105720000100000800040080001002400010024048
:105730000010024000100240001002400010024021
:1057400000180240001802400018024000180240F1
:105750000018024000180240000C0240000C0240F9
:10576000000C0240000C0240000C02400008024005
:105770000008024000000240400020001000080025
:105780000400020000400020001000080004000295
:1057900080001000080002000100000800040080E2
:1057A00000100240001002400010024000100240B1
:1057B0000010024000100240001802400018024091
:1057C0000018024000180240001802400018024071
:1057D000000C0240000C0240000C0240000C024091
:1057E000000C024000080240000802400000024095
:1057F00040002000100008000400020000400020CB
:1058000000100008000400028000100008000200E0
:105810000100000800040080001002400010024057
:105820000010024000100240001002400010024030
:105830000018024000180240001802400018024000
:105840000018024000180240000C0240000C024008
:10585000000C0240000C0240000C02400008024014
:105860000008024000000240400020001000080034
:1058700004000200004000200010000800040002A4
:1058800080001000080002000100000800040080F1
:1058900000100240001002400010024000100240C0
:1058A00000100240001002400018024000180240A0
:1058B0000018024000180240001802400018024080
:1058C000000C0240000C0240000C0240000C0240A0
:1058D000000C0240000802400008024000000240A4
:1058E00040002000100008000400020000400020DA
:1058F00000100008000400028000100008000200F0
:105900000100000800040080000002400000024086
:105910000000024000080240000802400008024067
:10592000000802400018024000180240001802401F
:1059300000180240001802400018024000180240FF
:10594000000C0240000C02400010000800010002A0
:105950000001800040000001800040002000100095
:1059600008000400008000400004024000140240CF
:1059700000100240001002400008024000080240EF
:1059800000040240000C024004000008000800105F
:1059900010002000008000010004024000140240BA
:1059A00000100240001002400008024000080240BF
:1059B00000040240000C024004000008000800102F
:1059C000100020000080000100040240001402408A
:1059D000001002400010024000080240000802408F
:1059E00000040240000C02400400000800080010FF
:1059F000100020000080000100040240001402405A
:105A0000001002400010024000080240000802405E
:105A100000040240000C02400400000800080010CE
:105A20001000200000800001000402400014024029
:105A3000001002400010024000080240000802402E
:105A400000040240000C024004000008000800109E
:105A50001000200000800001000002400000024011
:105A60000000024000080240000802400008024016
:105A700000080240001802400018024000180240CE
:105A800000180240001802400018024000180240AE
:105A9000000C0240000C024000100008000100024F
:105AA0000001800040000001800040002000100044
:105AB0000800040000800040000002400000024096
:105AC00000000240000802400008024000080240B6
:105AD000000802400018024000180240001802406E
