:020000040800F2
:10000000681E002029020008D31B0008A917000859
:10001000D11B0008830400083D28000800000000F0
:10002000000000000000000000000000992000080F
:100030008504000800000000D51B00089B20000874
:10004000430200084302000843020008430200087C
:10005000430200084302000843020008430200086C
:10006000430200084302000843020008430200085C
:10007000430200084302000843020008430200084C
:10008000430200084302000843020008430200083C
:10009000430200084302000843020008430200082C
:1000A00043020008452100084302000843020008FB
:1000B000430200084302000843020008430200080C
:1000C00043020008430200084302000843020008FC
:1000D00043020008B5270008F9270008430200087A
:1000E00043020008430200084302000859230008A5
:1000F00043020008430200084302000843020008CC
:1001000043020008430200084302000843020008BB
:10011000430200086526000829230008412300083F
:10012000430200084302000843020008430200089B
:10013000430200084302000843020008430200088B
:10014000430200084302000843020008430200087B
:10015000430200084302000843020008430200086B
:10016000430200084302000843020008430200085B
:100170004302000843020008430200080000000098
:10018000430200084302000800F002F800F03CF8C7
:100190000AA090E8000C82448344AAF10107DA45E2
:1001A00001D100F031F8AFF2090EBAE80F0013F0F8
:1001B000010F18BFFB1A43F0010318475C4200000F
:1001C0007C420000103A24BF78C878C1FAD85207A0
:1001D00024BF30C830C144BF04680C6070470000C1
:1001E0000023002400250026103A28BF78C1FBD840
:1001F000520728BF30C148BF0B6070471FB503F0DE
:1002000086FE1FBD10B510BD00F001F91146FFF7C5
:10021000F5FF02F095FB00F01FF903B4FFF7F2FFC2
:1002200003BC00F027F9000009488047094800474F
:10023000FEE7FEE7FEE7FEE7FEE7FEE7FEE7FEE796
:10024000FEE7FEE704480549054A064B70470000F3
:10025000352100088901000868180020681E002068
:10026000681A0020681A002053EA020C00F0698026
:100270002DE9F04B4FF00006002B1FBFB3FA83F5BA
:1002800003FA05F424FA05F65E4012BF1643B2FAEB
:1002900082F502FA05F4C5F120051EBF22FA05FC1D
:1002A00044EA0C04203556EA044C4FEA144418BFC3
:1002B000641C4FF000084FF00009904271EB030CF2
:1002C00039D3002919BFB1FA81F701FA07F6B0FA5C
:1002D00080F700FA07F6C7F120071EBF20FA07FCD7
:1002E00046EA0C062037B6FBF4FCA7EB0507103FE7
:1002F00007F01F0BCBF120060CFA0BFB2CFA06F6CD
:1003000044BFB3460026202FA4BF5E464FF0000B2B
:100310005BEA060C08BF4FF0010B19EB0B09ABFBB6
:10032000027C48EB0608C01B06FB02CC0BFB03CC8F
:1003300071EB0C01C1E70B46024641464846BDE859
:10034000F08B13B54FF000004FF00001AFF30080C9
:10035000BDE81C40704710B5203AC0F00B80B1E8F2
:100360001850203AA0E81850B1E81850A0E81850EA
:10037000BFF4F5AF5FEA027C24BFB1E81850A0E8F3
:10038000185044BF18C918C0BDE810405FEA827C0D
:1003900024BF51F8043B40F8043B08BF7047D20724
:1003A00028BF31F8023B48BF11F8012B28BF20F8C5
:1003B000023B48BF00F8012B70474FF0000200B528
:1003C000134694469646203922BFA0E80C50A0E878
:1003D0000C50B1F12001BFF4F7AF090728BFA0E826
:1003E0000C5048BF0CC05DF804EB890028BF40F8F2
:1003F000042B08BF704748BF20F8022B11F0804F34
:1004000018BF00F8012B704770477047704775465A
:1004100000F02CF8AE4605006946534620F0070070
:10042000854618B020B5FFF70DFFBDE820404FF01E
:1004300000064FF000074FF000084FF0000B21F0CE
:100440000701AC46ACE8C009ACE8C009ACE8C0099B
:10045000ACE8C0098D46704710B50446AFF3008084
:100460002046BDE81040FFF7D8BE000000487047A6
:100470000818002001491820ABBEFEE72600020044
:100480007047FEE7704772B6FEE700002DE9F84FAF
:10049000DFF8BCA10022012503264FF00F090AF165
:1004A000040BAAF1040E00BF0B6805FA02F4234006
:1004B000A34270D10F7907F00307012F01D0022F5B
:1004C00016D187684FEA420806FA08FC27EA0C07AB
:1004D000D1F80CC00CFA08FC4CEA070CC0F808C0B4
:1004E0004768A7430C79C4F3001494403C4344602C
:1004F0000C79E443A4070AD0C4684FEA420C06FA18
:100500000CF7BC438F6807FA0CF72743C7600C79D8
:1005100004F00304022C12D1D40800EB840CDCF8A4
:1005200020405707FF0E09FA07F824EA0804D1F81B
:10053000108008FA07F848EA0408CCF8208004681C
:100540004FEA420C06FA0CF7BC430F7907F0030799
:1005500007FA0CF7274307604C6814F4403F70D04B
:100560003C4C276847F480472760246822F0030743
:1005700004F480440094384C07EB040CDCF8084881
:1005800097074FEA177809FA08F7BC43334FB84288
:1005900002D1002724E054E0314FB84201D10127B5
:1005A0001EE0304FB84201D1022719E02E4FB84269
:1005B00001D1032714E02D4FB84201D104270FE0E9
:1005C0002B4FB84201D105270AE02A4FB84201D18A
:1005D000062705E0284FB84201D1072700E0082789
:1005E00007FA08F72743CCF80878DAF800405746AE
:1005F000D1F804C09C435FEACC2C00D51C433C607E
:10060000DBF800405F46D1F804C09C435FEA8C2CC5
:1006100000D51C433C60DEF800407746D1F804C0AA
:100620009C435FEA8C3C00D51C433C60084F083F6C
:100630003C68D1F804C09C435FEACC3C00D51C4325
:100640003C60521C102AFFF42FAFBDE8F88F000069
:10065000083C0140443802400030014000000240A4
:100660000004024000080240000C0240001002405A
:100670000014024000180240001C024000690840BB
:1006800000D0012070470AB1816170470904FBE77F
:100690000148806870470000C4000020024881685B
:1006A0000278114481607047C40000200B4810B5E7
:1006B000016841F400710160016841F480610160EA
:1006C000016841F480710160032000F07BF80F2085
:1006D00000F006F800F024F8002010BD003C0240B5
:1006E00070B50D4D04464FF47A712878B1FBF0F0E7
:1006F0000A490968B1FBF0F000F016FB48B9102C6C
:1007000007D200222146501E00F03CF800206C6009
:1007100070BD012070BD0000C4000020D00000208A
:100720000A4808B5016841F480410160006800F49E
:10073000804000900548001F016841F08051016031
:10074000006800F08050009008BD0000443802406E
:10075000002809DB00F01F020121914040098000C0
:1007600000F1E020C0F880127047002809DB00F09B
:100770001F02012191404009800000F1E020C0F8F3
:1007800000117047F0B40E4B1B680C46C3F30223F4
:10079000C3F10705042D00D90425191D072901D22D
:1007A000002300E0DB1E012606FA05F1491E214068
:1007B00099409E40761E16403143F0BC02F03FB88F
:1007C0000CED00E0064900F0070208684FF6FF0351
:1007D000184040EA0220034A1043086070470000B6
:1007E0000CED00E00000FA052DE9F0470E4605008B
:1007F00065D0DFF81481D8F80000F7B200F00700E8
:10080000B04207D288F80070D8F8000000F0070066
:10081000B04254D128683D4C810712D5400703D51A
:10082000206840F4E05020602878000703D5206855
:1008300040F4604020602068A96820F0F000084380
:1008400020602878C0072DD0304968680839012811
:1008500012D0022813D0032811D009688907002973
:100860002DDA216821F0030101432160FFF710FF19
:10087000814641F2883A0EE009688903EFE709688A
:100880008901ECE7FFF704FFA0EB0901514502D90C
:100890000320BDE8F0872068696800F00C00B0EB29
:1008A000810FEFD1D8F80010404601F00701B142A6
:1008B00007D90770006800F00700B04201D001209E
:1008C000E7E72878400705D52068E96820F4E0507C
:1008D000084320602878000706D52068296920F49D
:1008E000604040EAC100206000F038F82168084A02
:1008F000C1F30311515CC84006490860064800680E
:10090000FFF7EEFE0020C4E7003C0240083802403A
:1009100000440008D0000020C80000200448054919
:1009200000680968044AC1F38221515CC8407047DD
:10093000D00000200838024010440008044805494F
:1009400000680968044AC1F34231515CC8407047ED
:10095000D00000200838024010440008154810B5A7
:10096000006810F00C02144813D04110042A0FD074
:10097000082A0ED10F4C241F2268236802F03F0280
:100980005B0207D52068C0F38810A0FB010106E0D8
:10099000084610BD2168C1F38811A1FB00010023A6
:1009A000FFF762FC2168C1F30141491C4900B0FB1B
:1009B000F1F010BD083802400024F4002DE9F84F92
:1009C00004006ED02078DFF84C93C007A9F104052D
:1009D0004AD009F104000168C1F38101012908D05E
:1009E0000068C0F3810002280AD1D9F80000400253
:1009F00006D52868800337D560680028E1D033E049
:100A00006068B0F5803F10D0B0F5A02F286810D0F6
:100A100020F480302860286820F4802028606068F6
:100A2000A8B1FFF735FE06460DE0286840F4803097
:100A3000F4E740F480202860F7E700BFFFF728FEC6
:100A4000801B642873D828688003F7D50CE0FFF773
:100A50001FFE064605E000BFFFF71AFE801B642854
:100A6000F0D828688003F7D42078DFF8AC828007BC
:100A70004FF0000A3ED5A748001D016811F00C0F89
:100A800008D00068C0F3810002280BD1D9F800001B
:100A9000400207D42868800716D5E068012800D1F5
:100AA00012E033E1E068B8B10120C8F80000FFF7B8
:100AB000EFFD064605E000BFFFF7EAFD801B0228B8
:100AC000C0D828688007F7D52868216920F0F80089
:100AD00040EAC10028600DE0C8F800A0FFF7D8FD8B
:100AE000064604E0FFF7D4FD801B02281FD82868C3
:100AF0008007F7D42078000722D5864F87486169A0
:100B0000703771B101210160FFF7C2FD064604E0B4
:100B1000FFF7BEFD801B022809D838688007F7D58B
:100B20000EE0C0F800A0FFF7B3FD064605E082E046
:100B3000FFF7AEFD801B02287DD838688007F7D408
:100B40002078400768D5DFF8CCB100270BF13C0BCB
:100B5000DBF80000C0000BD4DBF8001041F080513E
:100B6000CBF80010DBF80000012700F08050009067
:100B70006B4E3068C00510D4306840F4807030602F
:100B8000FFF786FD009005E0FFF782FD0099401A0F
:100B9000022850D83068C005F6D55E4EA0686C3685
:100BA00001280FD00528306810D020F001003060F7
:100BB000306820F004003060A068B8B1FFF768FD2D
:100BC00000900FE0306840F00100F4E740F00400CE
:100BD0003060F7E7FFF75CFD0099411A41F2883079
:100BE000814266D830688007F4D50EE0FFF750FDEB
:100BF000009007E0FFF74CFD0099411A41F2883060
:100C0000814256D830688007F4D42FB1DBF8001049
:100C100021F08051CBF80010A069C8B33D49091DEF
:100C20000968C1F3810102294AD00228504607D041
:100C3000C8F8600000E03CE0FFF72AFD04463BE016
:100C40004746C8F86000FFF723FD064605E000BFF1
:100C5000FFF71EFD801B02282BD828688001F7D4DF
:100C6000D4E907010843A16A2E4A490802EB014171
:100C7000626A41EA8211084394F82C1040EA01614B
:100C8000C9F8001001203866FFF702FD044606E0AF
:100C90003EE000BFFFF7FCFC001B022809D82868D3
:100CA0008001F7D534E000BFFFF7F2FC001B0228FB
:100CB00002D90320BDE8F88F28688001F4D427E02A
:100CC0000128F7D0D9F80000E26900F480019142D0
:100CD0001CD1226A00F03F01914217D147F6C07142
:100CE000626A0140B1EB821F10D1A26A4FF0FF335C
:100CF00000F4403103EB5202B1EB024F06D194F8FD
:100D00002C1000F07060B0EB016F01D00120D1E732
:100D10000020CFE70438024000004742800E4742DF
:100D2000007000400000FFFF10B5401EB0F1807F52
:100D300001D3012010BD4FF0E02460610F21601746
:100D400001F07DFD0020A06107202061002010BD82
:100D500010B590F83C20012A22D0012280F83C20D6
:100D6000CA688C6822F4407222434C6822F4806284
:100D700022430C6822F4006222430C6922F4805260
:100D800022434C6922F400522243C969002322F411
:100D900080420A4301684A6480F83C30002010BD5C
:100DA000022010BD70B590F83C20012A32D00124F9
:100DB00080F83C40022280F83D2003685A689D6814
:100DC00022F070060A6832435A60134B02689A4256
:100DD00014D0B2F1804F11D0104B9A420ED0104B6C
:100DE0009A420BD00F4B9A4208D00F4B9A4205D033
:100DF0000E4B9A4202D00E4B9A4204D1496825F01C
:100E000080031943916080F83D40002180F83C1038
:100E1000084670BD022070BD000001400004004083
:100E200000080040000C0040000401400040014068
:100E30000018004010B50446022249B104290ED022
:100E4000082913D094F84500012816D0012010BDC0
:100E500094F842000128F9D184F842200FE094F878
:100E600043000128F2D184F8432008E094F84400BC
:100E70000128EBD184F8442001E084F845200422C5
:100E8000206801F0EAFA2068416C41F400414164B5
:100E900011492068884214D0B0F1804F11D00F4919
:100EA00088420ED00E4988420BD00E49884208D0A5
:100EB0000D49884205D00D49884202D00C4988422C
:100EC00004D1816801F00701062903D0016841F0CF
:100ED00001010160002010BD00000140000400403D
:100EE00000080040000C00400004014000400140A8
:100EF0000018004070B504460D460068002201F05D
:100F0000ACFA2068036A41F211110B4240F24442EC
:100F100006D1036A134203D1436C23F400434364B4
:100F20002068036A0B4206D1016A114203D10168AD
:100F300021F00101016001203DB1042D08D0082DF0
:100F400009D084F84500002070BD84F84200FAE71B
:100F500084F84300F7E784F84400F4E710B5040090
:100F600003D094F83D0010B107E0012010BD00202F
:100F700084F83C00204600F01FF8022084F83D0071
:100F8000211D206801F0F4F9012084F8460084F85E
:100F90003E0084F83F0084F8400084F8410084F863
:100FA000420084F8430084F8440084F8450084F843
:100FB0003D00002010BD000008B51E4A01681E4813
:100FC00091420ED1016841F01001016000680022D9
:100FD00000F01000009011463620FFF7D3FB3620BA
:100FE00022E0164A91420ED1016841F020010160D1
:100FF0000068002200F02000009011463720FFF723
:10100000C1FB372010E00E4A914211D1016841F036
:10101000400101600068002200F04000009011468D
:101020002B20FFF7AFFB2B20BDE80840FFF79DBB4F
:1010300008BD00000010004040380240001400408D
:101040000018004090F83D10012901D001207047A0
:10105000022180F83D100168CA6842F00102CA60AE
:1010600000681149884214D0B0F1804F11D00F4967
:1010700088420ED00E4988420BD00E49884208D0D3
:101080000D49884205D00D49884202D00C4988425A
:1010900004D1816801F00701062903D0016841F0FD
:1010A0000101016000207047000001400004004081
:1010B00000080040000C00400004014000400140D6
:1010C0000018004070B5044690F83C000025012847
:1010D00017D0012684F83C60022084F83D00206887
:1010E000826822F0770222F47F42826008685028EA
:1010F00038D00DDC20284FD005DC90B3102811D15A
:101100004AE0022070BD302846D040280AD13BE09A
:1011100060282FD070280DD0B0F5805F03D0B0F5D7
:10112000005F12D0012584F83D60002084F83C0067
:10113000284670BDCB68D1E90121206801F09AF9F9
:101140002068816841F0770109E0CB68D1E901218D
:10115000206801F08FF92068816841F48041816046
:10116000E1E719E0CA684968206801F057FA5021A0
:10117000206806E0CA684968206801F060FA6021CA
:10118000206801F081F9CEE7CA684968206801F05B
:1011900045FA40212068F4E7226801461046F0E74E
:1011A00070B5044690F83C0000260D4601280FD08B
:1011B000012084F83C006AB1042A1DD0082A2FD0EF
:1011C0000C2A3FD00126002084F83C00304670BD38
:1011D000022070BD206801F05FF92068816941F04C
:1011E000080181612068816921F004018161206822
:1011F00081692A69114311E0206801F07DF92068B6
:10120000816941F4006181612068816921F4806114
:101210008161206881692A6941EA02218161D2E7FE
:10122000206801F09FF92068C16941F00801C1619F
:101230002068C16921F00401C1612068C1692A697F
:10124000114311E0206801F0C1F92068C16941F43F
:101250000061C1612068C16921F48061C1612068B9
:10126000C1692A6941EA0221C161ACE710B50400F5
:1012700003D094F83D0010B107E0012010BD00201C
:1012800084F83C00204600F01FF8022084F83D005E
:10129000211D206801F06CF8012084F8460084F8D4
:1012A0003E0084F83F0084F8400084F8410084F850
:1012B000420084F8430084F8440084F8450084F830
:1012C0003D00002010BD0000F0B587B00446142199
:1012D0006846FFF772F86E496C4B266800246C4D27
:1012E000143902226B484FF0030E9E4211D12B6835
:1012F00043F002032B602B6803F0020305930B6895
:1013000043F001030B60096801F001010591202100
:1013100039E0614B0127DFF884C19E421AD1286869
:1013200040F001002860286800F00100059008687E
:1013300040F00200086008680097CDE9012400F041
:101340000200CDE90470694603929CE0FFF79EF825
:1013500007B0F0BD4E4B1B1FB6F1804F19D0504F58
:10136000BE422CD12B6843F480332B602B6803F4EE
:10137000803305930B6843F001030B60096801F0AB
:101380000101059104218DE81600CDE9032E69467F
:10139000DCE71D6845F001051D601B6803F00103D3
:1013A00005930B6843F001030B6009680092CDE9D7
:1013B000012401F00101CDE90471039217E0394DD8
:1013C000AE4216D11D6845F008051D601B6803F08C
:1013D000080305930B6843F001030B60096801F0F3
:1013E0000101059108218DE81600039204926946D7
:1013F000ACE72D4F0925BE4211D11E6846F080068C
:101400001E601B6803F0800305930B6843F0010323
:101410000B60096801F001010591402113E0234FA1
:10142000BE4216D11E6846F480761E601B6803F427
:10143000807305930B6843F001030B60096801F0AA
:101440000101059180218DE81600CDE9032569464B
:101450007CE7174886427FF47BAF186840F00200B3
:101460001860186800F002000590086840F002005B
:10147000086008680092CDE9012400F00200CDE97F
:10148000042069460392604660E7000000040140C2
:1014900044380240000002400000014000040240C5
:1014A00000400140000C0040001C004000200040B3
:1014B0000004004010B50446022249B104290ED0B0
:1014C000082913D094F84100012816D0012010BD3E
:1014D00094F83E000128F9D184F83E200FE094F8FA
:1014E0003F000128F2D184F83F2008E094F8400042
:1014F0000128EBD184F8402001E084F8412001224A
:10150000206800F09DFF16492068164A884201D0E5
:10151000904203D1436C43F4004343642068884203
:1015200013D0B0F1804F10D00F4988420DD00F4931
:1015300088420AD00E49884207D0904205D00D4912
:10154000884202D00C49884204D1816801F0070129
:10155000062903D0016841F001010160002010BD9F
:101560000000014000040140000400400008004069
:10157000000C0040004001400018004030B5044617
:101580000D460068002200F05BFF194B41F211117B
:1015900020688A10984202D0164B984209D1036AFB
:1015A0000B4206D1036A134203D1436C23F4004378
:1015B00043642068036A0B4206D1016A114203D1D9
:1015C000016821F00101016001203DB1042D08D026
:1015D000082D09D084F84100002030BD84F83E0079
:1015E000FAE784F83F00F7E784F84000F4E70000EA
:1015F000000001400004014070B5040004D094F8DC
:101600004100002510B106E0012070BD84F8405073
:10161000204600F023F8242084F841002068C168A7
:1016200021F40051C160204601F03EF820680169B4
:1016300021F4904101612068416921F02A01416152
:101640002068C16841F40051C1606564202084F8BD
:10165000410084F842006563002070BD2DE9F0412F
:1016600086B0044614216846FEF7A7FE4848474B5B
:10167000226800244649103802250326DFF8148129
:101680009A4233D10A6842F480120A60096801F470
:1016900080110591016841F004010160016801F0C9
:1016A00004010591016841F008010160006802AA87
:1016B00000F0080005909814CDE90005082782E89D
:1016C000D00069463448FEF7E1FE0420CDE900056C
:1016D00002AA694682E8D0004046FEF7D7FE002203
:1016E00011463520FFF74EF8352026E02B4F072313
:1016F000BA4227D12649091D0A6842F010020A6041
:10170000096801F010010591016841F001010160D3
:101710000068029400F0010005904FF4C060CDE92C
:101720000005CDE9036369461D48FEF7AFFE0022C0
:1017300011462520FFF726F82520FFF716F806B0FA
:10174000BDE8F081174FBA42F9D10A6842F400327D
:101750000A60096801F400310591016841F008014F
:1017600001600068029400F0080005906020CDE957
:101770000005CDE9036369464046FEF787FE002277
:1017800011462620FEF7FEFF2620D6E70050004037
:1017900040380240000C02400008024000100140A6
:1017A0000000024000440040FEE700002DE9F04F39
:1017B00087B014216846FEF700FE9E4800240168A9
:1017C00041F010010160016801F01001059101680C
:1017D00041F004010160016801F004010591016814
:1017E00041F020010160016801F0200105910168CC
:1017F00041F080010160016801F0800105910168FC
:1018000041F001010160016801F0010105910168E9
:1018100041F002010160016801F0020105910168D7
:1018200041F040010160016801F04001059101684B
:1018300041F0080101600068002200F008000590F6
:101840004FF47C717C48FEF71EFF49F60406002227
:1018500031467A48FEF717FF4FF4605700223946A9
:101860007748FEF710FF4FF4F048002241467548D4
:10187000FEF709FF4FF44749002249467248FEF738
:1018800002FF4FF4FE7A002251467048FEF7FBFE3D
:101890004FF4C85B002259466D48FEF7F4FE48F24B
:1018A0007E00CDE900040120029069466548FEF7FC
:1018B000EDFD4EF20F000325CDE9000569460294C7
:1018C0005D48FEF7E3FD40F2FF70CDE90005694693
:1018D00002945B48FEF7DAFDFF20CDE9000569467A
:1018E00002945B48FEF7D2FD4FF47C70009001201B
:1018F000CDE90104694650480394FEF7C7FD40F264
:10190000FB30CDE90005694602944C48FEF7BEFD68
:1019100001200096CDE90104694648480394FEF78A
:10192000B5FD01200097CDE90104694644480394C0
:10193000FEF7ACFDA803CDE9000401200290694642
:101940003F48FEF7A3FD48F20300CDE900056946D4
:1019500002943E48FEF79AFD40F28170CDE9000501
:10196000694602943748FEF791FD0120CDF80080CA
:10197000CDE90104694633480394FEF787FD4FF42F
:10198000C840CDE900040120029069462B48FEF7CB
:101990007DFD0120CDF80090CDE9010469462A487B
:1019A0000394FEF773FD41F69B00CDE9000401208E
:1019B000029069462448FEF769FD4FF40050CDE9D6
:1019C0000005694602942048FEF760FD0120CDF82D
:1019D00000A0CDE9010469461C480394FEF756FDBA
:1019E0000120CDF800B0CDE9010469461848039400
:1019F000FEF74CFD4FF40040CDE9000401200290B9
:101A000069461348FEF742FDA802CDE90004012013
:101A1000029069460848FEF739FD4FF4FC40CDE9D5
:101A200000040120029069460848FEF72FFD07B028
:101A3000BDE8F08F30380240000802400004024048
:101A40000014024000100240000C02400018024046
:101A5000000002401FB50021104800910191029141
:101A60000D4A0391C0E900214FF6FF72C0E902124E
:101A700001618161FFF772FA08B1FEF704FD4FF4CE
:101A80008050009069460548FFF71CFB002801D0F4
:101A9000FEF7F9FC1FBD00000018004064010020A3
:101AA0001CB500240E4800940C490194C0E90014B0
:101AB0004FF6FF71C0E902418461FFF74FFA08B1A8
:101AC000FEF7E1FC0094694605480194FFF76AF9C6
:101AD000002801D0FEF7D7FC1CBD0000001000401C
:101AE000D40000201CB500240E4800940C49019439
:101AF000C0E900144FF6FF71C0E902418461FFF7AD
:101B00002DFA08B1FEF7BFFC009469460548019420
:101B1000FFF748F9002801D0FEF7B5FC1CBD000016
:101B2000001400401C0100200C4810B50A49016057
:101B30004FF4E1314160002181600C22C160C0E9B5
:101B400004128161C161FFF757FD002803D0BDE891
:101B50001040FEF798BC10BD00500040AC010020C2
:101B60000C4810B50A4901604FF4E1314160002191
:101B700081600C22C160C0E904128161C161FFF77C
:101B80003BFD002803D0BDE81040FEF77CBC10BD33
:101B900000100140F40100200C4810B50A49016012
:101BA0004FF4E1314160002181600C22C160C0E945
:101BB00004128161C161FFF71FFD002803D0BDE859
:101BC0001040FEF760BC10BD004400403C02002005
:101BD000FEE7FEE7704710B5A0B14FF47A64A0426B
:101BE00000D92046012B0FD0032B0DD0062B0BD094
:101BF00040F28F630B604CF25031B1FBF0F0401EAD
:101C0000106010BD0120EDE740F61F53F2E7F0B57C
:101C10008FB00C4605461F4616461C216846FEF747
:101C2000CCFB202107A8FEF7C8FB6C600024C5E9A7
:101C3000024680202C61C5E905402846FFF716FBC7
:101C4000C8B96020CDE9000402940394049405947B
:101C50003A46694628460694FFF7A2FA58B90E9408
:101C60000B940C940D940A9407A928460994FFF745
:101C70006FF8002800D001200FB0F0BDF0B587B09C
:101C80000C4605461F4616461C216846FEF795FB86
:101C90006C600024C5E9024680202C61A8612846BA
:101CA000FFF7E4FA58B96020CDE9000402943A46FF
:101CB000694628460494FFF773FA002800D00120F3
:101CC00007B0F0BD1CB5044608284CD2034601AA53
:101CD00069460120FFF77FFF082C44D2DFE804F0BB
:101CE000040B12191F262D3820494FF08040042381
:101CF0000860084632E01D491D484831002308604D
:101D000008462BE019491B4890310C23086008460F
:101D100024E01A49184800230860084613E01349D4
:101D20001748D83100230860084617E013491548C2
:101D3000903900230860084610E0104912484831E5
:101D4000042308600846DDE90012FFF760FF1CBDB0
:101D50000A490E4848390C2308600846DDE900129C
:101D6000FFF78CFF1CBD01201CBD00008402002079
:101D700000400140000C00400004014034040020F9
:101D8000001C004000200040000001400004004012
:101D900070B500252C46E0B2FFF794FF08B101258D
:101DA00002E0641C082CF6DB00F040F900B10125CC
:101DB000284670BD082825D2184B00EB800203EBA3
:101DC00082024CF250331269B3FBF2F2914200D915
:101DD0001146082816D2DFE800F00406090C0E119F
:101DE000161B0F4811E00E48483009E00C489030AF
:101DF00010E00C4804E00A48D83001E00948903867
:101E00000068416370470748483000688163704745
:101E1000044848380068016470470000040000204E
:101E20008402002034040020082828D2B5EEC00A1D
:101E3000DFED130AF1EE10FA02D29FED120A06E06E
:101E400010EE101A104A914201DDB0EE600A0F4AFE
:101E500000EB800180EE201A02EB81014CF250323F
:101E60000969B2FBF1F100EE101AB8EE400A21EE5A
:101E7000000ABCEEC00A10EE101AFFF79BBF7047B5
:101E80000000C842000000000000C842040000201A
:101E900030B513460C460546082807D234B1B4F5D0
:101EA0007A6F03D813B1B3F57A7F01D9012030BD21
:101EB00000F0AAF800EE103A9FED1C1A1C48F8EE4C
:101EC000400A05EB850100EB810080EE810A00EEFF
:101ED000904A90ED011AF8EE600AB4EEE01AF1EEC5
:101EE00010FA01DDB1EE400AB5EEC00AF1EE10FACB
:101EF00006DD71EE001AF4EEE01AF1EE10FA0BDCDA
:101F0000B5EEC00AF1EE10FA08D271EE001AF4EE46
:101F1000E01AF1EE10FA01D230EEC10AC0ED000A6B
:101F2000012180ED020A0173002030BD0000C8428B
:101F300004000020082825D2DFE800F004070B0F7A
:101F400012161A1F042110481AE00F4800214830C9
:101F500016E00D480C21903012E000210B480AE0F9
:101F600009480021D8300BE008480021903807E0EC
:101F7000064804214830FEF75DBF04480C2148386C
:101F8000FFF798BA01207047840200203404002033
:101F900070B500252C46E0B2FFF7CCFF08B1012553
:101FA00002E0641C082CF6DB284670BD082825D208
:101FB000DFE800F004070B0F12161A1F0421104867
:101FC0001AE00F480021483016E00D480C219030EF
:101FD00012E000210B480AE009480021D8300BE04C
:101FE00008480021903807E0064804214830FEF7F1
:101FF00081BF04480C214838FFF7C0BA0120704760
:10200000840200203404002008280AD200EB800259
:102010000448002100EB82009FED030A017380ED6C
:10202000020A7047040000200000000038B517487D
:102030000021026842F4003202600068154C00F48E
:102040000030009012482060A720C4E9010142F24C
:102050000F70C4E903018020A0612046FEF77EFFD7
:1020600088B92068C16841F00101C16000221146B1
:102070001920FEF787FB1920FEF777FB2046FEF7B5
:10208000E1FF002800D0012038BD000044380240A4
:1020900000440140C40400207047FEF7FFBA00006E
:1020A00030B593B030216846FEF787F914210CA8AB
:1020B000FEF783F91D480025016841F08051016059
:1020C000006800F0805011901948016841F4804187
:1020D00001600068022400F480401190012000900B
:1020E000000401908001CDE9064008AA0420A8213F
:1020F00082E813000B906846FEF760FC08B172B6E8
:10210000FEE70CA90F2081E831004FF4A0500F909A
:102110004FF48050109005210CA8FEF765FB0028B5
:1021200001D072B6FEE713B030BD00004038024067
:10213000007000400248016841F47001016070477E
:1021400088ED00E02DE9F04F6F482DED028B83B054
:1021500000680169C943C90773D16C490A68521CF8
:102160000A606FF001010161DFF8A891674E002459
:10217000DFF89C814FF07E5709F1480B09F5FC7A96
:1021800016F1040604EB840006EB8005287B00288A
:1021900056D095EC030A30EE818A18EE100AB84248
:1021A00002DAB7EE008A05E018EE100A404501DDBC
:1021B0009FED598A594938EE401AB0EEC11A11EE16
:1021C000100A884203DA0020B0EE408A287338EE05
:1021D000600A5349B0EEC00A10EE100A88422FDBA5
:1021E00018EE100A01F022FE41EC100B00F038FB53
:1021F00051EC100B01F0E2FB23466A4601A9029064
:10220000FFF7E9FCE0B2FFF7D1FE082C72D2DFE85D
:1022100004F0040C1920272E343D0199C9F804104C
:1022200000993C48C9F80C1007E00199CBF804105C
:10223000384800994830CBF80C10FFF717F860B316
:1022400058E05BE033480199903041600099C160EB
:10225000F3E72D480199903841600099C160ECE79F
:102260002C480199D83041600099C160E5E72D48BC
:10227000019941600099C160DFE70199CAF8041033
:10228000214800994838CAF80C10D6E7254801992A
:10229000483041600099C160CFE700984008082CA1
:1022A00021D2DFE804F004070A0D1215181CD9F832
:1022B000001012E0DBF8001005E01649903110E044
:1022C0001149903905E048630DE01649483900E0AE
:1022D00014490968F7E7DAF80010886303E0114948
:1022E00048310968086485ED018A02982861E0B2E6
:1022F000FFF720FE641C082CFFF644AF03B0BDECD2
:10230000028BBDE8F08F0000C40400200000002014
:1023100000007A458402002000007A456F12833A5B
:10232000CDCCCC3DA403002003496FF00100096827
:102330000861024801F008B8D40000200C05002014
:1023400003496FF0010009680861024800F0FCBF12
:102350001C010020600B002003496FF00100096898
:102360000861024800F0F0BF64010020B4110020B1
:10237000F0B50268274B284D284E294F294C4FF0C5
:10238000804C984209D0604507D0A84205D0B042A1
:1023900003D0B84201D0A04204D122F0700E4A68A6
:1023A00042EA0E0298421BD0604519D0A84217D0CD
:1023B000B04215D0B84213D0A04211D01A4DA84255
:1023C0000ED01A4DA8420BD0194DA84208D0194D75
:1023D000A84205D0184DA84202D0184DA84203D1FA
:1023E00022F44075CA682A434D6922F080022A43CC
:1023F0008D68C5620D688562984201D0A04201D106
:1024000009690163016841F0040101600121416132
:102410000260F0BD000001400004004000080040E0
:10242000000C004000040140004001400044014015
:102430000048014000180040001C004000200040FF
:1024400010B501F01F030121046A99408C43046216
:10245000016A9A401143016210BD10B501F00F03EB
:102460000421046A99408C430462016A9A40114332
:10247000016210BD10B5846842EA032224F47F444F
:102480000A432243826010BD826822F070020A4330
:1024900042F0070181607047F0B5036A026A22F0DA
:1024A0000102026242688469124E24F073050C68CE
:1024B0002C4323F002058B682B430D4DA84201D01D
:1024C000B04205D123F00807CB683B4323F0040357
:1024D000A84201D0B04205D14D6922F440721543A3
:1024E0008A692A4342608461496841630362F0BD9E
:1024F0000000014000040140F0B5026A036A23F0C5
:1025000010030362436884690D6824F4E64444EAD6
:1025100005248D6822F0200242EA05120F4D104E6C
:10252000A84201D0B04206D1CF6822F0800242EA30
:10253000071222F04002A84201D0B04207D14D69F3
:1025400023F4406343EA85038D6943EA85034360CE
:102550008461496881630262F0BD000000000140AF
:1025600000040140F0B5026A036A23F48073036239
:102570004368C46922F4007224F073050C68124E9B
:102580002C438D6842EA05220E4DA84201D0B0428C
:1025900006D1CF6822F4006242EA072222F4806268
:1025A000A84201D0B04207D14D6923F4405343EA19
:1025B00005138D6943EA05134360C4614968C1632B
:1025C0000262F0BD000001400004014030B5046A21
:1025D000026A22F4805202624268C3690D6823F4E1
:1025E000E64343EA05238D6824F4005444EA0534A5
:1025F000084DA84202D0084DA84204D14D6922F4EA
:10260000804242EA85124260C36149680164046203
:1026100030BD0000000001400004014010B5036A15
:10262000046A24F001040462846924F0F00444EA9A
:10263000021423F00A020A438461026210BD10B53D
:10264000036A046A24F010040462846923F0A0037E
:1026500024F4704444EA023243EA011182610162C7
:1026600010BD000010B53520FEF772F80C4C206844
:102670000168C943890605D46FF02001016009484B
:1026800000F06DFE20680168C943090607D46FF0A9
:1026900080010160BDE81040024800F089BE10BD15
:1026A000AC010020B411002070B504460068016937
:1026B000E26821F44051114301612169A068E26997
:1026C00008436169114308432168CA6849F20C63F1
:1026D0009A430243CA6020684169A26921F44071AB
:1026E0001143416131492068884202D03049884213
:1026F00002D1FEF723F901E0FEF710F9E2690023A9
:10270000192164253226B2F5004F626828D0A0FB5B
:102710000101930F9200FDF7A7FD0146B0FBF5F014
:102720006FF01802504301EB800006EB0010B0FB85
:10273000F5F000F0F002B1FBF5F002EB0012B1FB96
:10274000F5F06FF01803584301EB800006EB001022
:10275000B0FBF5F000F00F0021681044886070BDF8
:10276000A0FB010192185B41FDF77EFD0146B0FB25
:10277000F5F00201B1FBF5F06FF01803584301EBDF
:10278000800006EBC000B0FBF5F000F0F80002EBB3
:102790004002B1FBF5F0584301EB800006EBC000AE
:1027A000B0FBF5F000F00700D6E700000010014094
:1027B0000014014010B52520FDF7CAFF0C4C20681D
:1027C0000168C943890605D46FF0200101600948FA
:1027D00000F0C5FD20680168C943090607D46FF001
:1027E00080010160BDE81040024800F0E1BD10BD6D
:1027F000F40100200C05002010B52620FDF7A8FFED
:102800000C4C20680168C943890605D46FF020018B
:102810000160094800F0A3FD20680168C94309066A
:1028200007D46FF080010160BDE81040024800F05D
:10283000BFBD10BD3C020020600B0020FEE7090771
:10284000090E002804DB00F1E02080F80014704736
:1028500000F00F0000F1E02080F8141D7047000028
:1028600010B52DED020B2DED088B84B09DED0C0BFA
:1028700051EC100B01F096F941EC180B9DED0C0B8F
:1028800053EC182B51EC100B01F0E6F941EC190B4D
:102890000D989FED290B10F0004F53EC102B51ECCD
:1028A000190B9FED21AB9FED22BB0ED001F0B4F8C8
:1028B0000ED953EC1B2B51EC190B01F03DF91CD236
:1028C00014E000BF41EC180B17E001F0A5F806D2A8
:1028D00053EC1A2B51EC180B01F0BEF9F2E753EC54
:1028E0001B2B51EC190B01F027F906D853EC1A2BCE
:1028F00051EC180B00F0AEFFE4E78DED028B9DED7F
:102900000C0B18EE901A10EE900A8DED000B61F38F
:102910001E0003909DED020B04B0BDEC088B02B0CD
:1029200010BD000000000000000000000000F03FAB
:10293000000000000000E03F000000000000E0BFD9
:102940002DED028BFDF7B2FEFFF7AAFBFEF72EFF7F
:10295000FFF706F9FFF7E8F8FFF71EF9FFF77AF837
:10296000FFF79EF8FFF7BEF8254A01214FF4964382
:1029700082F8A2150020C2F8A43582F8A305214AE6
:1029800082F8A215C2F8A43582F8A3051E4A82F87F
:10299000A2154FF4E131C2F8A41582F8A305184836
:1029A00000F0A8FA174800F0A5FA174800F0A2FABC
:1029B000FFF7EEF9D0B99FED158A0024E0B2B0EE32
:1029C000480AFFF731FA641C082CF7DBFFF7E0FA3E
:1029D0000F4D104E002400BF35F8142036F81410A7
:1029E000E0B2FFF755FA641C082CF5DB044800F050
:1029F000C7FB044800F0C4FB034800F0C1FBF5E747
:102A00000C050020600B0020B4110020000048429B
:102A1000B4000020A400002070B5094DFF231A4621
:102A200005F5807606E000BF10F8014B54402A5DA2
:102A30005A40335D491E89B2F6D242EA032070BD86
:102A4000183F000830B490F80312052931D008DC93
:102A5000012928D0022926D0032927D0042906D10C
:102A600024E0062928D00F2929D010292AD00121B5
:102A700080F80014447890F80252C11C621C427025
:102A80000B46655490F8031241F0800441784A1CCB
:102A90004270CC54417890F800444A1C4270CC54A7
:102AA00030BC00F032BC30BC00F0AEBC30BC00F03A
:102AB00027BD30BC00F088BD30BC00F0D0BD30BCBC
:102AC00000F00EBE30BC00F06BBE10B501F0070484
:102AD00000EBD101012391F80104A3400AB118438E
:102AE00000E0984381F8010410BD00002DE9F04F8B
:102AF000054600EB4100B3B0A0F812247D48002445
:102B0000854202D07C4885427DD1DFF8F0A1DFF814
:102B1000F0B1DFF8F09179492022183915A8FDF7B6
:102B20001AFC0AF1080003AE0FC886E80F005746EA
:102B3000072C09D803A830F8141015A850F8240061
:102B4000FDF79CFD01287CD05FF0000104EB8400C0
:102B500005EB8006B6F81404804681421AD0674916
:102B60002022183109A8FDF7F6FB07F138000DF116
:102B7000440C0FC88CE80F00072C0BD811A8B8F133
:102B8000000F30F8141009A850F824007ED001225C
:102B9000FDF779FD59492022483109A8FDF7DBFBF3
:102BA00068370DF14C0897E80F0088E80F00072CF4
:102BB00009D813A830F8141009A850F82400FDF71C
:102BC0005DFD012800D00020B6F81674B84219D077
:102BD0004A492022783101A8FDF7BDFB47480DF195
:102BE0005C089830072C0FC888E80F000AD817A88F
:102BF000002F30F8141001A850F8240075D00122DD
:102C0000FDF741FD00E068E0B6F818143BF8142029
:102C1000914205D1B6F81A3439F81420934208D0FD
:102C20002BF81410B6F81A2429F814202046FFF7C0
:102C30002FF9641CE4B2082CFFF46DAF002401AF3F
:102C400000E04EE00DF144082C494022A83119A8BB
:102C5000FDF781FB29492022E8312AA8FDF77BFBFB
:102C60000F2C09D82AA830F8141019A850F82400FD
:102C7000FDF704FD012800D0002005EB4401B1F868
:102C8000DA64B04216D040221F4900E02BE001A8D0
:102C9000FDF761FB1C492022403111A8FDF75BFBC9
:102CA0000F2C07D838F8141057F82400FEB1012271
:102CB000FDF7E9FC641CE4B2102CC5D3134A0020D4
:102CC00005EB4001B1F8101519B102EB4003A3F870
:102CD0002814401CC0B20528F2D333B0BDE8F08FF1
:102CE00003E0012132E7002252E7002288E70022B8
:102CF000DEE700000C050020600B00209842000871
:102D0000A4000020B4000020A0430008B41100205B
:102D100090F8011441F0010180F80114704700009F
:102D20002DE9F04F05466B480024A9B0854202D03A
:102D3000694885427ED1DFF8A481DFF8A4A1DFF8DD
:102D4000A4B108F18009202264490FA8FDF703FB14
:102D500008F12000072C90E80E00D8F82C00CDE9EF
:102D60000D30CDE90B1209D80BA830F814100FA8BC
:102D700050F82400FDF782FC012800D0002004EB6D
:102D8000840705EB87065549A6F812042022303146
:102D900017A8FDF7E0FA08F15000072C90E80E00A4
:102DA000D8F85C00CDE90330CDE9011209D801A8BB
:102DB00030F8141017A850F82400FDF75FFC012824
:102DC00000D000204549A6F814042022603120A834
:102DD000FDF7C1FA99E80E00D9F80C00072CCDE9EF
:102DE0000930CDE9071209D807A830F8141020A837
:102DF00050F82400FDF742FC012800D00020A6F87E
:102E000016043AF81400A6F818043BF81400A6F8C3
:102E10001A043548641C00EB8700E4B2008AA6F867
:102E20001C04082C8FD3002401AE15AF2B4950226F
:102E3000903100E04AE001A8FDF78DFA27492822E9
:102E4000E03115A8FDF787FA132C07D837F81410CE
:102E500056F82400FDF712FC012800D0002005EBF5
:102E60004401641CE4B2A1F8B204142CDED30024A3
:102E700001AE11AF40221D4901A8FDF76CFA1B49B4
:102E80002022403111A8FDF766FA0F2C07D837F839
:102E9000141056F82400FDF7F1FB012800D00020A3
:102EA00005EB4401641CE4B2A1F8DA04102CE1D370
:102EB0000F49002001EB400205EB4003401CB2F833
:102EC0001224C0B2A3F8FA241028F3D329B0BDE825
:102ED000F08F00000C050020600B00201841000856
:102EE000A4000020B40000200400002020420008BC
:102EF000B41100202DE9F0418D49044600F5BC666F
:102F000000F2F45500F5B56888424AD12622894975
:102F10004046FDF720FA874FF88CA4F8CE05B86A32
:102F2000C4F8D005B88DA4F8D405F88DA4F8D6055A
:102F3000386BC4F8D805786BC4F8DC05092207F1B2
:102F40003801304604F21C64FDF705FA97F8410099
:102F500004F8330C97F8420004F8320C786C44F80B
:102F6000300C754844F82C0C3D2274492846FDF776
:102F7000F2F9724810F83D1F61754178A1758178AA
:102F8000E175C1782176017961764179A1768179FF
:102F9000E176C1792177017A6177407AA077684834
:102FA0009AE0684884424AD1262267494046FDF7A4
:102FB000D2F9654FF88CA4F8CE05B86AC4F8D005EC
:102FC000B88DA4F8D405F88DA4F8D605386BC4F8EC
:102FD000D805786BC4F8DC05092207F138013046C2
:102FE00004F21C64FDF7B7F997F8410004F8330CBC
:102FF00097F8420004F8320C786C44F8300C5348CF
:1030000044F82C0C3D2252492846FDF7A4F95048BB
:1030100010F83D1F61754178A1758178E175C1781F
:103020002176017961764179A1768179E176C1795C
:103030002177017A6177407AA07746484CE046488C
:1030400084424CD1262245494046FDF784F9434F3E
:10305000F88CA4F8CE05B86AC4F8D005B88DA4F8E9
:10306000D405F88DA4F8D605386BC4F8D805786B6C
:10307000C4F8DC05092207F13801304604F21C646B
:10308000FDF769F997F8410004F8330C97F842000E
:1030900004F8320C786C44F8300C314844F82C0CAD
:1030A0003D2230492846FDF756F92E4810F83D1FBD
:1030B00061754178A1758178E175C17821760179D2
:1030C00061764179A1768179E176C1792177017ABA
:1030D0006177407AA07724482062A4F21C644046BD
:1030E00094F8A335D4F8A425D4F8F01500F0E8F846
:1030F0002846D4F8A425D4F83C1600F0AFF81B48B5
:10310000C4F840061A48C4F844061A48C4F84806E9
:103110001948C4F84C061948C4F85006032020701A
:103120004046BDE8F0410122002100F0B5B80000A2
:103130000C050020F401002000100140D400002004
:1031400000100040600B00203C02002000440040C2
:103150001C01002000140040B4110020AC0100202C
:10316000005000406401002000180040DF310008DA
:10317000D7310008993200081B320008E5310008F9
:1031800070B501780446042908D0002005291AD01A
:10319000062915D184F80102032010E094F80112E9
:1031A000062504290DD304F20220FFF735FC40B9AF
:1031B00094F8020294F8A215884202D105202070EA
:1031C00070BD257070BD607084F800042046BDE8B5
:1031D0007040FFF737BC00684068087070470068AF
:1031E0004160704701680A6A41F211131A4207D11F
:1031F0000A6A9B101A4203D10A6822F001020A608F
:103200000268002151620168CA6822F00102CA60A6
:1032100000686FF001010161704701680A6A41F2BC
:1032200011131A4207D10A6A9B101A4203D10A6885
:1032300022F001020A6002686FF001011161016869
:10324000CA6842F00102CA60026800215162006847
:10325000016841F0010101607047000010B5016094
:103260005321416000218160B2F5964F02D94FF49D
:10327000E16202E0074BB3FBF2F2C0E90321816196
:10328000FDF76CFE002803D0BDE81040FDF7FBB849
:1032900010BD0000A0764B0203680029D96802D057
:1032A00041F0800101E021F08001D9600068C1682F
:1032B00012B141F0200101E021F02001C16070470E
:1032C00010B5C0E9001200214FF48052012B10D03C
:1032D000022B13D08160C16001610C22C0E905217D
:1032E000C161FEF789F900280ED0BDE81040FDF756
:1032F000CAB8C0E902214FF4C06203E0C0E902216C
:103300004FF480620261E8E710BD10B5044600206A
:10331000A07084F801026178E01CFFF77DFB627801
:10332000E11C531C63705054030A6078421C6270A5
:10333000435401202070014604F5B560D4F84836A6
:10334000BDE81040002218470178032906D1042166
:103350000170D0F8501600F2F4500847704738B5A5
:103360000446D0F84426694600F5B56090472378B6
:1033700004F2022004F2F452022B02D0032B12D1E9
:1033800009E000219DF80050012384F801320D541A
:103390000320207007E094F801329DF80050591C7A
:1033A00084F801121D54D4F84C161046884738BDD5
:1033B00010B50178044600F5B560012908D002294E
:1033C00021D1D4F848360122BDE810400021184729
:1033D000A178627891420DD1022121700122D4F8A6
:1033E00048360021984704F2F450D4F84C16BDE852
:1033F00010400847E31C4A1CA270C95CD4F8402660
:10340000BDE81040104710BD2DE9F84304460020E8
:10341000009094F80102082804D0032084F80004E6
:10342000BDE8F883B4F8040290FA90F9B4F8060203
:1034300046BAF01DC708E51C5EB309EB060010286C
:1034400027D82046FFF764FC0020694601221AE0D5
:1034500009EB000304EBD30C03F007039CF801C451
:103460002CFA03FC5FEACC730BD001EBD00300F025
:10347000070893F800C002FA08F84CEA080C83F831
:1034800000C0401C80B2B042E2D394F80004D8B12E
:1034900002E0022084F80004607894F80222411CC3
:1034A0006170425594F8030240F080026078411C3C
:1034B00061704255617894F80024481C60704A5548
:1034C0002046FFF722FFABE7627894F80232501CE7
:1034D00060705355607894F80332421C6270435513
:1034E0006278501C60705755002006E062780E5CD0
:1034F000531C6370401C565580B2B842F6D3DFE7C8
:103500002DE9F041044690F80102082802D003207A
:1035100084F80004B4F80402E51C46BAB4F80602C4
:1035200047BA4FB1F019C82806D82046FFF7F8FB74
:1035300094F80004E0B102E0022084F8000460780E
:1035400094F80222411C6170425594F8030240F045
:1035500080026078411C61704255607894F80024C4
:10356000411C617042552046BDE8F041FFF7CDBED9
:10357000607894F80222411C61704255607894F89A
:103580000322411C6170425561787A00481C6070CA
:103590004A55002015E000BF04EB4602761CB2F845
:1035A0001214B6B24FEA112C61784B1C637001F80B
:1035B00005C0617892F812344A1C6270401C4B5569
:1035C00080B2B842E8D3CEE770B5044690F8010265
:1035D0000322082801D084F80024B4F8040241BA78
:1035E000B4F8060240BA20B1B0F57F4F01D084F89C
:1035F000002410290AD808B1FF2200E0002220464A
:10360000FFF763FA94F80004E8B102E0022084F8BE
:103610000004617894F80252E21C4B1C63708D54D4
:1036200094F8030240F080036078411C6170835479
:10363000607894F80034411C617083542046BDE8E2
:103640007040FFF762BE2118401C91F80222CA7038
:103650006178C0B2491C61700628F4D3EEE770B5FA
:10366000044690F80102082802D0032084F80004E0
:10367000B4F8040241BAB4F80602C82942BA06D81E
:103680002046FFF733FA94F80004E8B102E0022084
:1036900084F80004617894F80252E21C4B1C6370B9
:1036A0008D5494F8030240F080036078411C6170EF
:1036B0008354607894F80034411C61708354204630
:1036C000BDE87040FFF721BE2118401C91F802228E
:1036D000CA70617880B2491C61700628F4D3EEE7A5
:1036E0002DE9F041044690F8010203210A2801D295
:1036F00084F80014B4F8040246BAB4F8060247BAD3
:1037000094F80802B0EBD70F01D984F80014002513
:103710004FF0020819E000BF04EBD500102E90F81E
:1037200009020ED805F00701C840C00701D0FF22EA
:1037300000E0002231462046FFF7C7F9761CB6B2FA
:1037400001E084F800846D1CEDB2BD42E4D394F82E
:103750000004C8B1637894F80252E21C591C6170ED
:103760009D5494F8030240F080036078411C61701E
:103770008354607894F80034411C6170835420466F
:10378000BDE8F041FFF7C1BD2118401C91F80222AD
:10379000CA706178C0B2491C61700628F4D3EEE7A4
:1037A0002DE9F041044690F8011203200B2901D2C3
:1037B00084F80004B4F804124DBAB4F806124FBAF3
:1037C00094F80812B1EB470F01D084F800040026EA
:1037D0004FF0020812E000BF04EB4600C82DB0F81D
:1037E000090242BA06D829462046FFF77FF96D1C28
:1037F000ADB201E084F80084761CF6B2BE42EBD391
:1038000094F80004C8B1617894F80252E21C4B1C91
:1038100063708D5494F8030240F080036078411C7B
:1038200061708354607894F80034411C6170835453
:103830002046BDE8F041FFF768BD2118401C91F813
:103840000222CA706178C0B2491C61700628F4D3A4
:10385000EEE7000010B591EA030F48BF83F0004384
:1038600000F10282841A71EB030C05D2121943EBAA
:103870000C03001B61EB0C01DFF824E14FEA11544B
:10388000A4EB135C1EEA430F18BF9EEA445F73D09B
:1038900023EA0E03DCF1200E21EA045143F48013E5
:1038A00032D322FA0CFE10EB0E0023FA0CFE41EB91
:1038B0000E01CCF1200E03FA0EFE10EB0E0051F1BA
:1038C0000001B1F5801FCCF1200E32D201EB045182
:1038D00012FA0EF2BDE8104058BF7047401C38BFC6
:1038E0005FEA420218BF7047002814BF20F00100B1
:1038F00041F100014FEA410313F5001F38BF704743
:10390000A1F1C04100F012B9012A43EB0302ACF16E
:10391000200CDCF11F0E32BF4FF0000E23FA0CF327
:1039200010EB030041EB0451B4EB115FD0D0A1EBDD
:10393000045101F5801149085FEA300001EB0451A0
:103940000ED350F1000038BF12FA0EFE08D1BDE8C8
:103950001040C9E7401C38BF5FEA4202CAD1C3E742
:10396000BDE810404FEA410313F5001F38BF704710
:10397000A1F1C04100F0DAB89EEA445F08D011EA34
:103980005E0FBDE8104004BF01F000410020704709
:10399000BDE8104070B500F07BF800BF64FBBE3E90
:1039A0000000E0FF491058BFC1F140415B1058BF13
:1039B000C3F140438B42EFF3008070474FEA11534D
:1039C000A3F58063D3F11E03A8BFD3F1200C08DB5D
:1039D0004FF0004242EAC12252EA505232FA03F05A
:1039E000704709420BD4102BC4BF0020704703F569
:1039F000787CBCF1FF3F05D04FF0FF3070474FF0AF
:103A00000000704770B500F043F800BF4992248071
:103A100000207047F0E7000051EA030C17D41CF5B2
:103A2000801F58BFBCF5801F00F10680994218BF67
:103A3000704708BF9042704707D711F5801F58BFE5
:103A400013F5801F19D499427047894270471CF5BD
:103A5000801F08D5BCF5801FF7D58B4218BF704773
:103A600008BF824270474FF4001C1CEB410F38BF67
:103A70001CEB430F01D28B42704770B500F008F881
:103A8000922449004FF000514FF08053FFF78ABF56
:103A90000EF1020E2EF0030E5EF8046B364205D4D2
:103AA000012A43EB030515F5001F12D8012841EB4D
:103AB000010C1CF5001F0CD80ED14FEAD17C15F576
:103AC000001F0CEB4C0C0CF1020C08BF4CEBD37C30
:103AD00004E04FF0080C01E04FEAD37C0CEB4C05FE
:103AE00026FA05F606F00706B6F1040C06D20EEB30
:103AF000860CBDE870404CF0010C6047DFE80CF02C
:103B0000090B02024FF000414FF00000A1F5002127
:103B100070BD19461046012851EB010418BFD4F5B9
:103B2000001484BF002001F0004170BD0808A0F51A
:103B300000114FEA3101704753EA010C17D41CF50C
:103B4000801F58BFBCF5801F00F106808B4218BF54
:103B5000704708BF8242704707D713F5801F58BFD0
:103B600011F5801F19D48B4270479B4270471CF59A
:103B7000801F08D5BCF5801FF7D5994218BF704744
:103B800008BF904270474FF4001C1CEB430F38BF36
:103B90001CEB410F01D2994270470FB40CBC03BC1F
:103BA000FFF76BBF5FEA410C5FEA5C5CACF58063DA
:103BB0005B1C39D4D3F1340240F34580B2F12003C9
:103BC00014DA4FF0010C0CFA02FCACF101030340D3
:103BD000B3EB5C0220EA030008BF10EA0C0F98BFA9
:103BE000704710EB0C0041F1000170470AD0C3F19F
:103BF000200201FA02FC012821FA03F101FA03F183
:103C00004CF100004FF0010C0CFA03FCACF1010385
:103C1000B0F1004F21EA030108BF11EA0C0F4FF089
:103C2000000088BF61447047B3F1FF3F28BF50EAEE
:103C3000C12C01F000414FF0000084BF41F07C51E5
:103C400041F470017047B3F5806FB8BF704770B52D
:103C5000FFF71EFF40DBB6BE10B591EA030F48BF69
:103C600083F000433FF5FEAD841A71EB030C07D2DD
:103C700012198CF0004C43EB0C03001B61EB0C01A0
:103C8000DFF8A4E14FEA1154A4EB135C1EEA430FE2
:103C900018BF9EEA445F00F0B08023EA6E035242F0
:103CA00021EA0451C3EB6E0338BF5B1EDCF1200E2A
:103CB00025D322FA0CFE10EB0E0043FA0CFE41EB6A
:103CC0000E01CCF1200E03FA0EFE10EB0E0051F1A6
:103CD0000001CCF1200E29D412FA0EF201EB0451AE
:103CE000BDE8104058BF7047401C1CBFB2F1004FE8
:103CF000704700280CBF491C20F00100704712EBF0
:103D0000020E43EB030218BF4FF0010E4EEA4202CF
:103D1000ACF1200CDCF11E0E54D943FA0CFE10EB72
:103D20000E0051F1FF31CCF11E0ED5D50EF1010E72
:103D300012FA0EFE404141EB010101EB445C5FEAE7
:103D40005C5C10D910EBDE7001EB045138BFBEF1A2
:103D5000004FBDE8104018BF704700280CBF491C39
:103D600020F00100704730D24FEAD42C11F5001139
:103D700024F400641BD0B1FA81F20B3AA41AA41EF9
:103D8000D2F12003914030FA03F31943904001EB44
:103D9000CC71002C01EB0451BDE81040A8BF704766
:103DA00001F1C0414FF0000001F000417047B0FA4E
:103DB00080F310FA03F100D110BDE41A173C480556
:103DC000C90AE4E701EB045110BD491001EB0451AD
:103DD000BDE810404FEA300002E04FF000017047AC
:103DE0004A0008BF0042F8D0B2F5001F28BF704754
:103DF00001F000414FF0000070479EEA445F07D099
:103E000011EA5E0FBDE8104004BF0021002070479A
:103E1000BDE8104070B5FFF73BFE00BF40DFF63E47
:103E200083F00041104670470000E0FF43004FEA76
:103E3000D30C4FEA3C0C43401FBF40070CF16051CC
:103E400013F0FE4F70471CF0006F03D100200CF000
:103E5000004170470CF0004343EA507010B540EA4F
:103E6000CC0000F00EF800BF000000924FEA000105
:103E7000FFF75CBE4FF000414FF00000A1F50021BC
:103E800070470EF1020E2EF0030E5EF8044B244232
:103E900004D44FEA4102B2F17F4F11D84FEA4003F8
:103EA000B3F17F4F0CD80ED14FEAD07CB2F17F4FE7
:103EB0000CEB4C0C0CF1020C08BF4CEBD17C04E079
:103EC0004FF0080C01E04FEAD17C0CEB4C0324FAD4
:103ED00003F404F00704B4F1040C06D20EEB840CD6
:103EE000BDE810404CF0010C6047DFE80CF007081B
:103EF00002024FF00040A0F5800010BD08464200CD
:103F000018BFD2F1807288BF00F0004010BD4FF0A2
:103F10004070E1EE100A704700C1814001C080414D
:103F200001C0804100C1814001C0804100C1814089
:103F300000C1814001C0804101C0804100C1814079
:103F400000C1814001C0804100C1814001C0804169
:103F500001C0804100C1814001C0804100C1814059
:103F600000C1814001C0804100C1814001C0804149
:103F700001C0804100C1814000C1814001C0804139
:103F800001C0804100C1814001C0804100C1814029
:103F900000C1814001C0804101C0804100C1814019
:103FA00000C1814001C0804100C1814001C0804109
:103FB00001C0804100C1814000C1814001C08041F9
:103FC00001C0804100C1814001C0804100C18140E9
:103FD00000C1814001C0804100C1814001C08041D9
:103FE00001C0804100C1814001C0804100C18140C9
:103FF00000C1814001C0804101C0804100C18140B9
:1040000000C1814001C0804100C1814001C08041A8
:1040100001C0804100C1814000C0C101C30302C290
:10402000C60607C705C5C404CC0C0DCD0FCFCE0EF8
:104030000ACACB0BC90908C8D81819D91BDBDA1A68
:104040001EDEDF1FDD1D1CDC14D4D515D71716D6D8
:10405000D21213D311D1D010F03031F133F3F23248
:1040600036F6F737F53534F43CFCFD3DFF3F3EFEB8
:10407000FA3A3BFB39F9F83828E8E929EB2B2AEA28
:10408000EE2E2FEF2DEDEC2CE42425E527E7E62698
:1040900022E2E323E12120E0A06061A163A3A26208
:1040A00066A6A767A56564A46CACAD6DAF6F6EAE78
:1040B000AA6A6BAB69A9A86878B8B979BB7B7ABAE8
:1040C000BE7E7FBF7DBDBC7CB47475B577B7B67658
:1040D00072B2B373B17170B05090915193535292C8
:1040E00096565797559594549C5C5D9D5F9F9E5E38
:1040F0005A9A9B5B99595898884849894B8B8A4AA8
:104100004E8E8F4F8D4D4C8C448485458747468617
:1041100082424383418180400014024000140240E7
:10412000000402400010024000040240000402406B
:10413000000C0240000C024000800040000400809F
:10414000004000200010000800140240001402404B
:10415000001002400010024000040240000402402F
:10416000000C0240000C0240001000200020004023
:104170000008001000020004000402400014024085
:1041800000100240001002400008024000080240F7
:1041900000040240000C0240040000080008001067
:1041A00010002000008000010010024000100240BA
:1041B00000100240001002400010024000100240B7
:1041C0000018024000180240001802400018024087
:1041D0000018024000180240000C0240000C02408F
:1041E000000C0240000C0240000C0240000802409B
:1041F00000080240000002404000200010000800BB
:10420000040002000040002000100008000400022A
:104210008000100008000200010000080004008077
:10422000000002400000024000000240000802407E
:104230000008024000080240000802400018024046
:104240000018024000180240001802400018024006
:104250000018024000180240000C0240000C02400E
:104260000010000800010002000180004000000171
:104270008000400020001000080004000080004082
:1042800000140240001402400010024000100240DE
:104290000004024000040240000C0240000C0240F6
:1042A0000010002000200040000800100002000460
:1042B00000140240001402400010024000100240AE
:1042C0000004024000040240000C0240000C0240C6
:1042D0000010002000200040000800100002000430
:1042E000000402400014024000100240001002408E
:1042F000000802400008024000040240000C024096
:1043000004000008000800101000200000800001D8
:10431000000402400014024000100240001002405D
:10432000000802400008024000040240000C024065
:1043300004000008000800101000200000800001A8
:10434000000002400000024000000240000802405D
:104350000008024000080240000802400018024025
:1043600000180240001802400018024000180240E5
:104370000018024000180240000C0240000C0240ED
:104380000010000800010002000180004000000150
:104390008000400020001000080004000080004061
:1043A00000000240000002400000024000080240FD
:1043B00000080240000802400008024000180240C5
:1043C0000018024000180240001802400018024085
:1043D0000018024000180240000C0240000C02408D
:1043E00000100008000100020001800040000001F0
:1043F0008000400020001000080004000080004001
:104400000000000000000000010203040607080984
:1044100000000000010203043844000800000020EE
:10442000D4000000C40100080C450008D40000209E
:10443000941D0000E0010008000000000000484357
:10444000000048430000000000000000C800000019
:104450000000484300004843000000000000000046
:10446000C80000000000484300004843000000006E
:1044700000000000C800000000004843000048435E
:104480000000000000000000C800000000004843D9
:10449000000048430000000000000000C8000000C9
:1044A00000004843000048430000000000000000F6
:1044B000C80000000000484300004843000000001E
:1044C00000000000C800000000004843000048430E
:1044D0000000000000000000C80000000100010012
:1044E00001000100010001000100010064006400FE
:1044F0006400640064006400640064000100000063
:0C45000010000000000000000024F40087
:040000050800018965
:00000001FF
